:020000040000FA
:10000000830100308A006028FC0003088301EA00B5
:100010000408EB008B130B1D1E282F210B1121143C
:10002000A60A26080A3A031D1E28A601A114A70A3B
:1000300027080A3A031D1E28A7012115831203135E
:100040008C1E392883162308A43E840083130D21B7
:100050008313800020170C308316A30A2302031891
:10006000A3010C30A10A2102031C3928A301A2011B
:10007000A10183120C1E562883160C1E56288312CB
:100080003508360603195428B030D9003508D90789
:1000900059088400831300082621B50A35080C3A54
:1000A000031D5628B501562883160C128B1703130F
:1000B00083126B0884006A088300FC0E7C0E090022
:1000C000223084005B307A20A0308400BC307A205B
:1000D0002030840022307A2083010730E900F33099
:1000E000E8005B30840068307E208301642C0406C5
:1000F0008001840A0406031D77280034F0008A205A
:100100008000840A04087006031900347F288312D3
:100110000313E800E91B9528691B9D2869088A00DC
:100120006808E80A0319E90A82008313691883172B
:100130006808E80A84000008080082070E340034CA
:1001400012340034163400341A3400341E340034AF
:0C01500022340034263400342A340034F9
:10021A0083018C1E0D291A0808008301981C0034DA
:10022A0018121816013483018C1E18290030181967
:10023A000130080083018C1E1F2900301818013074
:10024A0008008301DA00831203130C1E28295A08B6
:10025A009900080007308316031381008B160B17C9
:10026A00B0308312810008008301CB0003178D0090
:10027A0083168C130C1483120C0803130800F40061
:10028A00F40AF403031900340310F00DF10DF20D12
:10029A00F30D46298301C5000430C600AA30C70001
:1002AA00C70B5529C60B5329C50B512908008301D1
:1002BA00CE004D08CE074E08803A743E031C6729CB
:1002CA00F430CE07CE1F6B290C30CE074E0808003B
:1002DA008301E608031D7C29A01C20197829A01B8C
:1002EA007829A01D7A29201408002010080020105F
:1002FA000800F401F5010310F30CF20C031C8C291D
:10030A007008F40771080318710AF5070310F00D55
:10031A00F10D720873040319003480298301201E29
:10032A00A629E60803192018A629E601E60A670B9A
:10033A009F29A3296708023A031DA6293230C10062
:10034A00C201A01AE6012012A012080083160313A4
:10035A001815333099001812831298178316071745
:10036A0087178312181683160C128C161813831209
:10037A001813831698168B170B178312080083011C
:10038A00D700D801D92958085707840083130008D1
:10039A00F0003608B03E8400700880000C30B60ABF
:1003AA0036020318B601D80A56085802031CC8298F
:1003BA0083160C16831208008301CC0083160317D8
:1003CA008C18E329831203134C0803178D000313B7
:1003DA004B0803178C0083168C1303108B1B031412
:1003EA008B130C1555308D00AA308D008C140C110E
:0603FA0003188B178301BC
:1004000008008301C500840083130008803AF000CF
:100410004508803A70020318112A450884004508EF
:1004200080004608803AF0004508840083130008E5
:10043000803A7002031808004508840083134608B8
:1004400080000800F030831603138505051683121B
:10045000C5010508C600F030C6054508C6074608B0
:1004600085000310C70DC80D8230C900C90B362A9C
:10047000051E3C2A47143D2A4710C50A1030450284
:10048000031C292A4708C3004808C4000800830148
:10049000C501F030831687008312AE080319592A6C
:1004A0002E1D552AF030C505572A0F30C504AE035E
:1004B0006A2AAE08031D6A2AC511E6080319622AD2
:1004C0004511632A4515E6080319201C692AC51041
:1004D0006A2AC51407080F384505870008008301FC
:1004E000CC00CB01C901A43E8400831300080A3A62
:1004F000031D0034FE30CD004C085C21A43E840076
:1005000083130008C900CA01CB014B084902031C30
:10051000962A4908FE3C4B07CD004C085C21A43EBE
:10052000840083130008CA06CB0A852AFF30CD0059
:100530004C085C21A43E8400831300084A0603197A
:10054000013400348301CD00CC014508CE004608BB
:10055000CF004708D0004808D1004908D2004A0817
:10056000D300CB01BA2A4B084E3E84008313000807
:10057000CC06CB0A4D084B02031CB32A4D084E3E55
:10058000840083134D0880004D084E3E840000080F
:10059000CC064D0A4E3E84004C0880004D08023EB9
:1005A0004E3E84000A3080004D08033ED6004E3097
:1005B000C4298301CF00840083130008F000840A5B
:1005C0000008F100803AF2004C08803A7202031DE4
:1005D000EB2A4B087002831203134F088400831325
:1005E0000318FB2A4B088000840A4C088000831201
:1005F00003134F0884000008F000840A0008F1008B
:100600004E08803AF2007108803A7202031D0A2BEC
:1006100070084D020318162B831203134F08840031
:1006200083134D088000840A4E088000830108006F
:100630008301C41B262B0A302A0203182C2BAA0A7A
:100640002A080A3A031D2C2BA0142C2BAA080319E4
:100650002C2BAA0B2C2BA010441B392B0A302B025D
:1006600003183F2BAB0A2B080A3A031D3F2B20151A
:100670003F2BAB0803193F2BAB0B3F2B2011441A28
:100680004C2B0A302C020318522BAC0A2C080A3AC5
:10069000031D522BA015522BAC080319522BAC0B87
:1006A000522BA011C41A5E2B0A302D020318080029
:1006B000AD0A2D080A3A0319A0170800AD08031D5A
:1006C000AD0B0800A013080083015B08163A031D58
:1006D000812B5C08093A031D812B5D080A3A031D32
:1006E000812BB008031D7F2B6708033A03197C2B6D
:1006F0006708043A031D7F2BB001B00A0800B0015F
:1007000008005B08163A031D952B5C08053A031D8B
:10071000952B5D08063A031D952B22083921C90047
:10072000CA01C90A0319CA0AA92B5B08163A031D94
:1007300008005C08073A031D08005D08083A031D1D
:10074000080022083921C900CA01C9080319CA03CF
:10075000C903CB01CC01C830CD00CE014930D9222C
:100760004908CB002208E1298B13831603132108C3
:100770008312C500831623088312C8008B17C5088F
:1007800003190800FF30CD0048085C21A43E840016
:10079000831300080A3A031D0800FD30CD00480805
:1007A0005C21A43E840083130008C6000A30460280
:1007B00003180800FF30CD0048085C216F22003884
:1007C000031908004608FD3CCD0048085C2183164B
:1007D000A2008312C701460847020318002C4708ED
:1007E000CD00831622085C21A43E840083130008F8
:1007F000F00047085B3E840070088000C70AEB2BBE
:1008000048088316A200831245088316A102642BB0
:1008100083014318162C033028020318172CA80A4A
:1008200003302802031C172C2016172CA80143198B
:10083000242C033029020318252CA90A033029028D
:10084000031C252CA016252CA9014319612C0F305F
:100850002F020318612C01304002F43003193F02CB
:1008600003180800BF0A0319C00A01304002F4301F
:1008700003193F02031C08006708C500C50A0530BC
:1008800045020318472C013045020318492CC501C5
:10089000C50A4508CB000830E1214508CB000A30E5
:1008A000E1214508CB000C30E1214508E700F000CC
:1008B0000310F00D0310F00D0310700DAE00E601F3
:1008C0000800BF01C00108002F218B170B178B13E5
:1008D0008B1783168601831286018714AB21CA24E5
:1008E0006708F0000310F00D0310F00D0310700DF9
:1008F000AE00201F7D2C2013B423211C852C211039
:100900002222C525182308249321A11CC12CA11043
:1009100047226D21CA246708033A031D962CB008AC
:10092000031D942C0E30B42C1230B42C6708043AFA
:10093000031DA12CB008031D9F2C1630B42C1A30B7
:10094000B42C670BAA2CB008031DA82C1E30B42CA5
:100950002230B42C6708023A031DB52CB008031DE1
:10096000B32C2630B42C2A30A2001630C500220841
:100970003921C600300AC700C801C901CA010330C5
:10098000A222211D792C211164302F020318792C09
:10099000AF0A792C08303921C7000A303921C60046
:1009A0000C303921C50047084606031DDB2C4708DB
:1009B000450603190A2D47084606031DE62C47087D
:1009C00045060319E62C4708C5000A2D47084606C8
:1009D0000319F12C47084506031DF12C4708C600F2
:1009E0000A2D470846060319FC2C46084506031D38
:1009F000FC2C4608C7000A2D4708460603190A2D95
:100A00004708450603190A2DC701C70AC601C60AC9
:100A1000C501C50A053047020318122D01304702EF
:100A20000318142DC701C70A0830392147060319D6
:100A30001D2D4708CB000830E1210A303921470637
:100A40000319262D4708CB000A30E1210C3039214B
:100A5000470603192F2D4708CB000C30E12147082A
:100A6000E700080083014508F0004608F100470848
:100A7000F2004808F300043044217008C7007108F0
:100A8000C8007208C9007308CA004708F400480883
:100A9000F5004908F6004A08F700F0010930F100B6
:100AA0003D30F2000030F3016827FF307007C500C9
:100AB000FF30031800307107C600803AF000813023
:100AC00070020030031945020318682DC61FA22DBD
:100AD0004508F0004608F1004708F2004808F30016
:100AE000063044217008C7007108C8007208C900A8
:100AF0007308CA004708F4004808F5004908F600E2
:100B00004A08F700F0010930F1003D30F2000030F2
:100B1000F3016827FF307007C500FF30031800306D
:100B20007107C600803AF00081307002003003196E
:100B3000450203189D2DC61F9F2D0130C32D83161E
:100B40001811A42D831618158312450883169900D1
:100B50001812831298171816981283160C128C12FA
:100B60008312C90883160319B72D1817B82D181347
:100B700083120313C9080319BF2D1817C02D1813AA
:100B8000831698160030831208008301C50183166E
:100B900086018312E6080319622F6708033A031DD2
:100BA000302E660BD92D4516A01C622F431FE12D58
:100BB000E92E6608023A031DE62D1C30C504A01F6D
:100BC000622F3230C100C2010330182F6608033A89
:100BD000031D012E1E30C504C1080319C203C10341
:100BE00042084104031D622F0A30F200F3010E3067
:100BF0003921F000F1017E217408C1007508C2009E
:100C0000172F6608043A031D1D2E5F30C504C10866
:100C10000319C203C10342084104031D622F0A30B5
:100C2000F200F30112303921F000F1017E21740845
:100C3000C1007508C2000530182F6608053A031D6B
:100C40002D2E5930C504C1080319C203C10342083F
:100C50004104031D622F0630502F6608063A572FB5
:100C60006708043A031D872E660B3C2E4516A01C10
:100C7000622F431F052FE92E6608023A031D452EF9
:100C80001C30C504A01F622F052F6608033A031D00
:100C90005A2E1E30C504C1080319C203C1034208FD
:100CA0004104031D622F0430E6000A30F200F30114
:100CB0001630382F6608043A031D6C2E1A30C5040E
:100CC000C1080319C203C10342084104031D622F76
:100CD0000530E6001E30522F6608053A031D812EAE
:100CE0001230C504C1080319C203C10342084104FC
:100CF000031D622F0630E6000A30F200F3011A30BD
:100D0000382F6608063A031D622FC5145A2F670B49
:100D1000DE2E660B8C2EE42E6608023A0319EF2EA7
:100D20006608113A0319FB2E6608033A03190D2FC2
:100D30006608043A03191E2F6608053A031DAC2EF7
:100D40003E30C504C1080319C203C103420841046F
:100D5000031D622F0630182F6608063A031DB62EB3
:100D60007E30C504A01D622F0730502F6608073A59
:100D7000031DCB2E3E30C504C1080319C203C103B5
:100D800042084104031D622F0830E6000A30F200D9
:100D9000F3011E30382F6608083A031DDB2E1A3087
:100DA000C504C1080319C203C10342084104031D5D
:100DB000622F0930502F6608093A572F6708023A08
:100DC000031D622F660BEB2E4516A01C622F431FDE
:100DD000F32E0230182F6608023A031DF72E1C303E
:100DE000C504A01F622F1130E6002830522F66087C
:100DF000113A031D092F1E30C504C1080319C2038F
:100E0000C10342084104031D622F0330E600323063
:100E1000522F6608033A031D1A2F3E30C504C1083D
:100E20000319C203C10342084104031D622F0430A9
:100E3000E600622F6608043A031D242F3F30C504E4
:100E4000201D622F0530502F6608053A031D412FE3
:100E50003E30C504C1080319C203C103420841045E
:100E6000031D622F0630E6000A30F200F30126303F
:100E70003921F000F1017E217408C1007508C2001B
:100E8000622F6608063A031D552F1A30C504C108A3
:100E90000319C203C10342084104031D622F073036
:100EA000E6001430C100C201622F6608073A031D34
:100EB000622F4516C1080319C203C1034208410449
:100EC0000319E601431F451100004508860008008C
:100ED000840183120313EC01F801F901FA01FB010B
:100EE00074087504760477040319792FC030EC0573
:100EF000842FF001F101F201F301E42F0310F40D4E
:100F0000F50DF60DF70DEC0AF71F7E2FEC0A031016
:100F1000F80DF90DFA0DFB0D77087302031D9A2FDA
:100F200076087202031D9A2F75087102031D9A2F0D
:100F300074087002031CAC2F78147408F002750852
:100F4000031C750FF1027608031C760FF202770876
:100F5000031C770FF3020310F70CF60CF50CF40CDE
:100F6000EC036C083F39031D872F6C1FC42F03103F
:100F7000FF30F007F009031CF107F109031CF20729
:100F8000F209031CF307F3097008F4007108F50077
:100F90007208F6007308F7007808F0007908F1008D
:100FA0007A08F2007B08F300EC1FE42F0310FF30F7
:100FB000F007F009031CF107F109031CF207F2091D
:100FC000031CF307F309E42F8408031900347308A2
:100FD0008000840372088000840371088000840309
:100FE00070088000003400340034003400340034D1
:100FF00000340034003400340034803400340134D0
:02400E007A3DF9
:00000001FF
