:020000040000FA
:10000000830100308A006028FC0003088301E400BB
:100010000408E5008B130B1D1E28B9230B11A11436
:10002000A50A25080A3A031D1E28A5012115A60ABE
:1000300026080A3A031D1E28A601A11583120313E0
:100040008C1E392883162308A43E8400831397232B
:100050008313800020170C308316A30A2302031891
:10006000A3010C30A10A2102031C3928A301A2011B
:10007000A10183120C1E562883160C1E56288312CB
:100080003108320603195428B030D3003108D307A1
:100090005308840083130008B023B10A31080C3AD6
:1000A000031D5628B101562883160C128B17031313
:1000B00083126508840064088300FC0E7C0E09002E
:1000C0002230840055307A20A0308400BC307A2061
:1000D0002030840022307A2083010730E300F3309F
:1000E000E2005530840062307E208301162D040624
:1000F0008001840A0406031D77280034F0008A205A
:100100008000840A04087006031900347F288312D3
:100110000313E200E31B9528631B9D2863088A00F4
:100120006208E20A0319E30A820083136318831743
:0A0130006208E20A840000080800DB
:10072E0083018C1E972B1A0808008301981C003435
:10073E0018121816013483018C1EA22B00301818C3
:10074E000130080083018C1EA92B003018190130CE
:10075E0008008301D400831203130C1EB22B54081D
:10076E009900080007308316031381008B160B17B0
:10077E00D830831281000800F400F40AF403031940
:10078E0000340310F00DF10DF20DF30DC52B8301A6
:10079E00C50003178D0083168C130C1483120C08DE
:1007AE00031308008301BF000430C0005A30C1009B
:1007BE00C10BDF2BC00BDD2BBF0BDB2B0800830126
:1007CE00E008031DF32BA01C2019EF2B211CF12B8D
:1007DE002014080020100800201008008301201E9D
:1007EE00012CE00803192018012CE001E00A1E304C
:0207FE00BB003E
:10080000BC01A01AE0012012A01208008301C80058
:100810004708C8074808803A743E031C112CF4307E
:10082000C807C81F152C0C30C807480808008301EA
:100830003E1D3E1C1F2CBE1C1F2CE10108003E1C4F
:100840003E1D272CBE1C272CE101E10A08000330C5
:10085000E1000800F401F5010310F30CF20C031C95
:10086000382C7008F40771080318710AF507031093
:10087000F00DF10D72087304031900342C2C830160
:10088000BF01F030831687008312BF11E0080319FF
:100890004B2C3F114C2C3F15E0080319201C522C07
:1008A000BF10532CBF1407080F383F0587000800FE
:1008B000831603131815193099001812831298170C
:1008C0008316071787178312181683160C128C16B7
:1008D000181383121813831698168B170B1783128D
:1008E00008008301D100D201862C520851078400F0
:1008F00083130008F0003208B03E840070088000C6
:100900000C30B20A32020318B201D20A5008520265
:10091000031C752C83160C168312080083013D18E6
:100920009D2C0330270203189F2CA70A03302702AF
:10093000031C9F2C2016A0179F2CA701A0133D1964
:10094000AB2C0330280203180800A80A0330280241
:100950000318A0160800A80108008301C50083162B
:1009600003178C18AF2C83120313450803178D004F
:100970000313440803178C0083168C1303108B1B7E
:1009800003148B130C1555308D00AA308D008C1478
:100990000C1103188B17830108008301BE1BDB2C8D
:1009A0000A3029020318DF2CA90A29080A3A031D74
:1009B000DF2CAD01DF2CA9080319DF2CA9033E1B96
:1009C000ED2C0A302A0203180800AA0A2A080A3A5B
:1009D000031D0800AD01AD0A0800AA08031DAA0303
:1009E0000800F03083160313850505168312BF0136
:1009F0000508C000F030C0053F08C007400885006A
:100A00000310C10DC20D4630C300C30B052D051EDA
:100A10000B2D41140C2D4110BF0A10303F02031C56
:100A2000F82C4108BD004208BE000800B9238B170E
:100A30000B178B138B17831686018312860187147D
:100A40005824201F252D2013B025A11C2D2DA110C9
:100A5000F1240426CD248E24F523211D422D2111BD
:100A60003F24E62317241630BF000E30CE23C000EB
:100A70001230CE23C1001630CE23C200C301C40100
:100A800003307925A11D212DA111212D8301C6003F
:100A9000C501C301A43E8400831300080A3A031D64
:100AA0000034FE30C70046080624A43E84008313A9
:100AB0000008C300C401C50145084302031C6D2D95
:100AC0004308FE3C4507C70046080624A43E8400B0
:100AD00083130008C406C50A5C2DFF30C700460812
:100AE0000624A43E8400831300084406031901343D
:100AF00000348301C700C6013F08C8004008C90090
:100B00004108CA004208CB004308CC004408CD008D
:100B1000C501912D4508483E840083130008C60690
:100B2000C50A47084502031C8A2D4708483E840031
:100B30008313470880004708483E84000008C60623
:100B4000470A483E8400460880004708023E483E67
:100B500084000A3080004708033ED0004830712CE2
:100B60008B138316031321088312BF0083162308F7
:100B70008312C2008B17BF0803190800FF30C7009B
:100B800042080624A43E8400831300080A3A031D89
:100B90000800FD30C70042080624A43E84008313E9
:100BA0000008C0000A30400203180800FF30C700E8
:100BB0004208062446250038031908004008FD3C79
:100BC000C700420806248316A2008312C101400810
:100BD00041020318FC2D4108C70083162208062491
:100BE000A43E840083130008F0004108553E8400B1
:100BF00070088000C10AE72D42088316A200831204
:100C00003F088316A102652E8301BF01831686016A
:100C10008312E0080319612E600B192E3F16BB08E2
:100C20000319BC03BB033C083B04031D612E0230C7
:100C3000462E6008023A031D2A2E1830BF04BB0856
:100C40000319BC03BB033C083B04031D612E0330A6
:100C5000E000612E6008033A031D372EBF15A01F68
:100C6000612E0430E0001E30BB00BC01612E600824
:100C7000043A031D542E1830BF04BB080319BC03EB
:100C8000BB033C083B04031D612E0530E0000A3025
:100C9000F200F3010E30CE23F000F1012A24740893
:100CA000BB007508BC00612E6008053A031D612E6B
:100CB0003F16BB080319BC03BB033C083B040319E4
:100CC000E00100003F088600080083015508163A3D
:100CD000031D772E5608053A031D772E5708063A4E
:100CE000031D772E0E30CE23C300C30A872E55086E
:100CF000163A031D8B2E5608073A031D8B2E5708F4
:100D0000083A031D8B2E0E30CE23C300C3034308C5
:100D1000C4000E30AD2C5508163A031D9C2E560803
:100D2000093A031D9C2E57080A3A031D9C2E1230C7
:100D3000CE23C300C30AAC2E5508163A031DB02EAD
:100D400056080B3A031DB02E57080C3A031DB02E5F
:100D50001230CE23C300C3034308C4001230AD2CAD
:100D60005508163A031DC12E56080D3A031DC12E13
:100D700057080E3A031DC12E1630CE23C300C30AF6
:100D8000D12E5508163A031D080056080F3A031DC8
:100D900008005708103A031D08001630CE23C30080
:100DA000C3034308C4001630AD2C83013F08F00094
:100DB0004008F1004108F2004208F3000430C32368
:100DC0007008C1007108C2007208C3007308C40033
:100DD0004108F4004208F5004308F6004408F70013
:100DE000F0010930F1003D30F2000030F3016827D6
:100DF000FF307007BF00FF30031800307107C000DC
:100E0000803AF00081307002003003193F0203186D
:100E10000B2FC01F452F3F08F0004008F10041088C
:100E2000F2004208F3000630C3237008C1007108C5
:100E3000C2007208C3007308C4004108F4004208ED
:100E4000F5004308F6004408F700F0010930F1000E
:100E50003D30F2000030F3016827FF307007BF001B
:100E6000FF30031800307107C000803AF000813075
:100E70007002003003193F020318402FC01F422F99
:100E80000130662F83161811472F83161815831209
:100E90003F08831699001812831298171816981293
:100EA00083160C128C128312C308831603195A2F4F
:100EB00018175B2F181383120313C3080319622F2B
:100EC0001817632F18138316981600308312080022
:100ED000840183120313E601F801F901FA01FB0111
:100EE00074087504760477040319792FC030E60579
:100EF000842FF001F101F201F301E42F0310F40D4E
:100F0000F50DF60DF70DE60AF71F7E2FE60A031022
:100F1000F80DF90DFA0DFB0D77087302031D9A2FDA
:100F200076087202031D9A2F75087102031D9A2F0D
:100F300074087002031CAC2F78147408F002750852
:100F4000031C750FF1027608031C760FF202770876
:100F5000031C770FF3020310F70CF60CF50CF40CDE
:100F6000E60366083F39031D872F661FC42F031051
:100F7000FF30F007F009031CF107F109031CF20729
:100F8000F209031CF307F3097008F4007108F50077
:100F90007208F6007308F7007808F0007908F1008D
:100FA0007A08F2007B08F300E61FE42F0310FF30FD
:100FB000F007F009031CF107F109031CF207F2091D
:100FC000031CF307F309E42F8408031900347308A2
:100FD0008000840372088000840371088000840309
:100FE00070088000003400340034003400340034D1
:100FF00000340034003400340034803400340034D1
:02400E007A3DF9
:00000001FF
