:020000040000FA
:10000000830100308A002428F10003088301C20024
:100010008B130B1D1C2861250B112017A50A250821
:100020000A3A031D1C28A501A017A60A26080A3AA9
:10003000031D1C28A60121148B17031383124208E9
:100040008300F10E710E0900223084003E303A2008
:100050002030840022303A2083010730C100FE3076
:10006000C0003E30840040303E208301F22D040663
:100070008001840A0406031D37280034F0004A205A
:100080008000840A04087006031900343F28831294
:100090000313C000C11B5528411B5D2841088A007D
:1000A0004008C00A0319C10A82008313411883174C
:0A00B0004008C00A840000080800A0
:100AC20007308316031381008B160B17D83083125D
:100AD200810008008301B9000430BA005A30BB001B
:100AE200BB0B712DBA0B6F2DB90B6D2D0800830155
:100AF200BE08031D852DA01C2019812DA01E832D4B
:100B02002014080020100800201008008301B901F9
:100B1200F030831687008312B911BE080319932D92
:100B22003911942D3915BE080319201C9A2DB910BC
:100B32009B2DB91407080F38390587000800830177
:100B4200A01DB52DBE0803192018B52DBE01BE0A81
:100B5200BF080319B32D3F0BAF2DB32D3F08023A47
:100B6200031DB52D3230A900201ABE01A01120129A
:100B720008008301381D381CC22DB81CC22DBF01CC
:100B82000800381C381DCA2DB81CCA2DBF01BF0A67
:100B92000800B81C381CD22D381DD22D0230BF00DF
:100BA20008000330BF00080083013718E32D03302B
:100BB20027020318E42DA70A03302702031CE42DA1
:100BC200A015E42DA7013719F02D033028020318D0
:100BD2000800A80A03302802031820160800A801FA
:100BE200080061258B170B178B138B178316860151
:0E0BF200831286018714201F042E2013112663
:100C000014273626D525A025A01F0B2EA0136F264E
:100C100087257825BA25211CFC2D21108B138B17D5
:100C2000FC2DF03083160313850505168312B901D8
:100C30000508BA00F030BA053908BA073A08850045
:100C40000310BB0DBC0D4630BD00BD0B252E051E8F
:100C50002B2E3B142C2E3B10B90A10303902031CEA
:100C6000182E3B08B7003C08B80008008301B81BE9
:100C7000442E0A302A0203184A2EAA0A2A080A3ADF
:100C8000031D4A2EA0144A2EAA0803194A2EAA0BA5
:100C90004A2EA010381B572E0A302B0203185D2E47
:100CA000AB0A2B080A3A031D5D2E20155D2EAB08FA
:100CB00003195D2EAB0B5D2E2011B81A692E0A3078
:100CC0002C0203180800AC0A2C080A3A0319A016D3
:100CD0000800AC08031DAC0B0800A012080083013B
:100CE000B901831686018312BF08031DB02EBE080A
:100CF000031D7C2EB901B02E3E0B7F2EA92E3E087F
:100D0000023A031D852E1C30AA2E3E08033A031D0D
:100D10008B2EB430AA2E3E08043A0319932E3E08B7
:100D2000053A031D952EB630AA2E3E08063A031941
:100D30009D2E3E08073A031D9F2EB530AA2E3E0871
:100D4000083A031DA52E1430AA2E3E08093A031DA9
:100D5000AC2E1830B904B02E3E080A3A0319B91562
:100D60003F0BE12EBE08031DB72EB901E12E3E0B4D
:100D7000BA2EDA2E3E08023A031DC02E1C30DB2E9E
:100D80003E08033A031DC62EB430DB2E3E08043A5B
:100D90000319CE2E3E08053A031DD02EB630DB2EA9
:100DA0003E08063A031DD62E1430DB2E3E08073AC5
:100DB000031DDD2E1830B904E12E3E08083A031950
:100DC000B9153F08023A031D112FBE08031DEA2E74
:100DD000B901112F3E0BEE2E18300B2F3E08023AB0
:100DE000031DF42E1C300B2F3E08033A031DFA2E70
:100DF00014300B2F3E08043A031D002F17300B2F21
:100E00003E08053A031D062F1B300B2F3E08063AFD
:100E1000031D0D2F0B30B904112F3E08073A03199B
:100E2000B9153908860008008301BF08031D712F1A
:100E30003E0B1E2FA90B712F02304B2F3E08023A9A
:100E4000031D282FA01EFC2F1E30A90003304B2F9E
:100E50003E08033A031D302FA90B712F04304B2F8E
:100E60003E08043A031D3A2FA01CFC2F1E30A90097
:100E700005304B2F3E08053A031D422FA90B712F59
:100E800006304B2F3E08063A031D4D2F201DFC2F28
:100E90001E30A9000730BE00712F3E08073A031D1F
:100EA000552FA90B712F0830662F3E08083A031DF5
:100EB0005F2FA90B712F0930BE009630682F3E08B6
:100EC000093A031D6A2FA90B712F0A30BE001E308C
:100ED000A900712F3E080A3A031D712FA90B712F2B
:100EE000BE013F0BBA2F3E0B792FA90BBA2F023050
:100EF000942F3E08023A031D832FA01EFC2F1E30A4
:100F0000A9000330942F3E08033A031D8B2FA90B31
:100F1000BA2F0430942F3E08043A031D962FA01CCC
:100F2000FC2F1E30A9000530BE00BA2F3E08053A3E
:100F3000031D9E2FA90BBA2F0630AF2F3E08063A8D
:100F4000031DA82FA90BBA2F0730BE009630B12F72
:100F50003E08073A031DB32FA90BBA2F0830BE0075
:100F60001E30A900BA2F3E08083A031DBA2FA90B5C
:100F7000BA2FBE013F08023A031DFC2F3E0BC42FBF
:100F8000A90BFC2F0230E02F3E08023A031DCE2FA2
:100F9000A01EFC2F1E30A9000330E02F3E08033AAC
:100FA000031DD62FA90BFC2F0430E02F3E08043A76
:100FB000031DE22FA018201DFC2F9630A90005303C
:100FC000BE00FC2F3E08053A031DEA2FA90BFC2F9B
:100FD0000630F12F3E08063A031DF52FA90BFC2F12
:100FE0000730BE001E30A900FC2F3E08073A031D43
:100FF000FC2FA90BFC2FBE010000080000340034B8
:02400E007A3DF9
:00000001FF
