:10000000830100308A002428F10003088301C20024
:100010008B130B1D1C2858250B112017A50A25082A
:100020000A3A031D1C28A501A017A60A26080A3AA9
:10003000031D1C28A60121148B17031383124208E9
:100040008300F10E710E09002030840022303A2026
:10005000223084003E303A2083010730C100FE3058
:10006000C0003E30840040303E208301EF2D040666
:100070008001840A0406031900343728F00049205F
:100080008000840A04087006031900343F28831294
:10009000C000C11B5428411B5C2841088A0040084D
:1000A000C00A0319C10A820083134118831740084C
:0800B000C00A840000080800EA
:100AB00007308316031381008B160B17D83083126F
:100AC0008100080083120313B9000430BA005A30C1
:100AD000BB00BB0B692DBA0B672DB90B652D080048
:100AE00083120313BE08031D7E2DA01C20197A2D2E
:100AF000A01E7C2D201408002010080020100800E3
:100B000083120313B901F030831687008312B911E1
:100B1000BE0803198D2D39118E2D3915BE08031904
:100B2000201C942DB910952DB91407080F383905DC
:100B30008700080083120313A01DB02DBE080319FF
:100B40002018B02DBE01BE0ABF080319AE2D3F0B01
:100B5000AA2DAE2D3F08023A031DB02D3230A90058
:100B6000201ABE01A0112012080083120313381DA1
:100B7000381CBE2DB81CBE2DBF010800381C381D06
:100B8000C62DB81CC62DBF01BF0A0800B81C381CF2
:100B9000CE2D381DCE2D0230BF0008000330BF001F
:100BA0000800831203133718E02D033027020318BF
:100BB000E12DA70A03302702031CE12DA015E12D2A
:100BC000A7013719ED2D0330280203180800A80AE1
:100BD00003302802031820160800A8010800582531
:100BE0008B170B178B138B178316860183128601C5
:100BF0008714201F012E20130E2613273326D125FC
:100C00009A25A01F082EA0136D2680257025B525D6
:100C1000211CF92D21108B138B17F92DF030831621
:100C20000313850505168312B9010508BA00F030D3
:100C3000BA053908BA073A0885000310BB0DBC0D88
:100C40004630BD00BD0B222E051E282E3B14292E3A
:100C50003B10B90A10303902031C152E3B08B700AF
:100C60003C08B800080083120313B81B422E0A3058
:100C70002A020318482EAA0A2A080A3A031D482EF7
:100C8000A014482EAA080319482EAA0B482EA0101B
:100C9000381B552E0A302B0203185B2EAB0A2B088B
:100CA0000A3A031D5B2E20155B2EAB0803195B2E41
:100CB000AB0B5B2E2011B81A672E0A302C020318DA
:100CC0000800AC0A2C080A3A0319A0160800AC0860
:100CD000031DAC0B0800A012080083120313B90116
:100CE000831686018312BF08031DAF2EBE08031DA5
:100CF0007B2EB901AF2E3E0B7E2EA82E3E08023A67
:100D0000031D842E1C30A92E3E08033A031D8A2E93
:100D1000B430A92E3E08043A0319922E3E08053A33
:100D2000031D942EB630A92E3E08063A03199C2EB8
:100D30003E08073A031D9E2EB530A92E3E08083AFC
:100D4000031DA42E1430A92E3E08093A031DAB2E14
:100D50001830B904AF2E3E080A3A0319B9153F0BF3
:100D6000E02EBE08031DB62EB901E02E3E0BB92EB3
:100D7000D92E3E08023A031DBF2E1C30DA2E3E0843
:100D8000033A031DC52EB430DA2E3E08043A031987
:100D9000CD2E3E08053A031DCF2EB630DA2E3E0882
:100DA000063A031DD52E1430DA2E3E08073A031DED
:100DB000DC2E1830B904E02E3E08083A0319B915A4
:100DC0003F08023A031D102FBE08031DE92EB9018A
:100DD000102F3E0BED2E18300A2F3E08023A031D4D
:100DE000F32E1C300A2F3E08033A031DF92E14304F
:100DF0000A2F3E08043A031DFF2E17300A2F3E0823
:100E0000053A031D052F1B300A2F3E08063A031D25
:100E10000C2F0B30B904102F3E08073A0319B915EF
:100E200039088600080083120313BF08031D712FC1
:100E30003E0B1E2FA90B712F02304B2F3E08023A9A
:100E4000031D282FA01EFC2F1E30A90003304B2F9E
:100E50003E08033A031D302FA90B712F04304B2F8E
:100E60003E08043A031D3A2FA01CFC2F1E30A90097
:100E700005304B2F3E08053A031D422FA90B712F59
:100E800006304B2F3E08063A031D4D2F201DFC2F28
:100E90001E30A9000730BE00712F3E08073A031D1F
:100EA000552FA90B712F0830662F3E08083A031DF5
:100EB0005F2FA90B712F0930BE009630682F3E08B6
:100EC000093A031D6A2FA90B712F0A30BE001E308C
:100ED000A900712F3E080A3A031D712FA90B712F2B
:100EE000BE013F0BBA2F3E0B792FA90BBA2F023050
:100EF000942F3E08023A031D832FA01EFC2F1E30A4
:100F0000A9000330942F3E08033A031D8B2FA90B31
:100F1000BA2F0430942F3E08043A031D962FA01CCC
:100F2000FC2F1E30A9000530BE00BA2F3E08053A3E
:100F3000031D9E2FA90BBA2F0630AF2F3E08063A8D
:100F4000031DA82FA90BBA2F0730BE009630B12F72
:100F50003E08073A031DB32FA90BBA2F0830BE0075
:100F60001E30A900BA2F3E08083A031DBA2FA90B5C
:100F7000BA2FBE013F08023A031DFC2F3E0BC42FBF
:100F8000A90BFC2F0230E02F3E08023A031DCE2FA2
:100F9000A01EFC2F1E30A9000330E02F3E08033AAC
:100FA000031DD62FA90BFC2F0430E02F3E08043A76
:100FB000031DE22FA018201DFC2F9630A90005303C
:100FC000BE00FC2F3E08053A031DEA2FA90BFC2F9B
:100FD0000630F12F3E08063A031DF52FA90BFC2F12
:100FE0000730BE001E30A900FC2F3E08073A031D43
:100FF000FC2FA90BFC2FBE010000080000340034B8
:02400E007A3DF9
:00000001FF
