:0C0000000AC0FECFFDCF41C0FBCFFACFFD
:10000C00F9CFF8CFF7CFF6CF0000F894EE27ECBB82
:10001C00E5BFF8E1A4B7E4BFF1BDE1BDA4BF8DE03D
:10002C00A2E0ED938A95E9F780E4A0E6ED938A953A
:10003C00E9F7E4E1F0E0C8953196802DC89531964A
:10004C00902D0097B9F0C8953196A02DC895319692
:10005C00B02DC8953196102CC89531966E2F7F2FE8
:10006C00F02DE12DC89531960D920197D9F7E62F19
:10007C00F72FE1CFEFE9EDBFC0E7D0E025C0EA9361
:10008C00FA93EFB7EA93EEECE2BFE42DF52D31963F
:10009C004E2E5F2E689421F8EAE0F0E0E415F505A9
:1000AC0024F444245524689420F8E991EFBFF99185
:1000BC00E9911895E881E7B9369A349BFECF349ACA
:1000CC00E4B1F5B121960895E0E865D064D0E8BBC1
:1000DC00E1E0E7BBE0E0EFBDE4E0E3BFE0E0E2BF7E
:1000EC00E6BFE9BDEBBFE5BFE2E0E9BFE0E8E8B998
:1000FC00E0E0E3B9E4BBE7B9E2E8E6B9E3B1E87FF5
:10010C00E3B9789421FE2CC0E89421F8E3E0EA935B
:10011C00D1DFEE55F140AE2FBF2FEFE0F0E043D032
:10012C0035968E2E9F2E0A2C0B2819F0A814B90484
:10013C000CF00AC0EA2DFB2D3196AE2EBF2EA81462
:10014C00B90414F0AA24BB24E5E0F0E0AE16BF0617
:10015C001CF08A149B040CF402C0C09A01C0C09815
:10016C0020FE02C0E89420F8B19B11C017D074F4A3
:10017C00EC2DFD2D3196CE2EDF2E10D03CF00A2C1E
:10018C000B2821F4E1E0F0E0AE2EBF2E02C0CC240F
:10019C00DD24B8CFFFCFE6BDE0E00895E8ECF0E059
:1001AC00CE16DF0608950024112490E1AA0FBB1F80
:1001BC00001C111C0E1A1F0A18F40E0E1F1E01C073
:1001CC00A1609A9599F7EA2FFB2FA02DB12D0895D8
:00000001FF
