:0A0000000AC0FECFFDCF41C0FBCFC8
:10000A00FACFF9CFF8CFF7CFF6CF0000F894EE2762
:10001A00ECBBE5BFF8E1A4B7E4BFF1BDE1BDA4BF05
:10002A008DE0A2E0ED938A95E9F780E4A0E6ED93EE
:10003A008A95E9F7E4E1F0E0C8953196802DC895F4
:10004A003196902D0097B9F0C8953196A02DC89594
:10005A003196B02DC8953196102CC89531966E2FD1
:10006A007F2FF02DE12DC89531960D920197D9F782
:10007A00E62FF72FE1CFEFE9EDBFC0E7D0E025C0CB
:10008A00EA93FA93EFB7EA93EEECE2BFE42DF52D8B
:10009A0031964E2E5F2E689421F8EAE0F0E0E415DE
:1000AA00F50524F444245524689420F8E991EFBF17
:1000BA00F991E9911895E881E7B9369A349BFECF10
:1000CA00349AE4B1F5B121960895E0E881D080D060
:1000DA00E8BBE1E0E7BBE0E0EFBDE4E0E3BFE0E07E
:1000EA00E2BFE6BFE9BDEBBFE5BFE2E0E9BFE0E89A
:1000FA00E8B9E0E0E3B9E4BBE7B9E2E8E6B9E3B1BD
:10010A00E87FE3B9789421FE2CC0E89421F8E3E073
:10011A00EA93D1DFEE55F140AE2FBF2FEFE0F0E0CA
:10012A005AD035968E2E9F2E0A2C0B2819F0A81419
:10013A00B9040CF00AC0EA2DFB2D3196AE2EBF2E63
:10014A00A814B90414F0AA24BB24E5E0F0E0AE1622
:10015A00BF061CF08A149B040CF402C0C09A01C0AA
:10016A00C09820FE02C0E89420F8B19B0BC0E8ECCE
:10017A00F0E0CE16DF062CF4EC2DFD2D3196CE2EB6
:10018A00DF2E08C00C2C0D2829F0EC2DFD2D3197FF
:10019A00CE2EDF2EE7ECF0E0CE16DF0614F06894E0
:1001AA0022F8E1E0F0E0EC15FD0514F0E89422F8FD
:1001BA0022FE02C023FE01C007C00A2C0B2821F42C
:1001CA00E1E0F0E0AE2EBF2E22FA23F89CCFFFCF5B
:1001DA00E6BDE0E008950024112490E1AA0FBB1FB8
:1001EA00001C111C0E1A1F0A18F40E0E1F1E01C045
:1001FA00A1609A9599F7EA2FFB2FA02DB12D0895AA
:00000001FF
