:100000000C943A000C9400000C9400000C94000036
:100010000C9400000C9400000C9400000C94000060
:100020000C9400000C9487050C9400000C940000C4
:100030000C9400000C9400000C9400000C94000040
:100040000C9400000C9400000C9400000C94000030
:100050000C940000BFDFEFF77F00C0F9A4B09992C5
:1000600082F88090FF0055555555550005006001F8
:1000700066000000F894EE27ECBBF1E0FBBFEBBF9D
:10008000E5BFF8E1F1BDE1BD8DE0A2E0BB27ED9356
:100090008A95E9F780E094E0A0E6ED930197E9F70F
:1000A000ECE6F0E085919591009761F0A591B5910E
:1000B00005901590BF01F00105900D920197E1F7B1
:1000C000FB01F0CFEFE5EDBFE4E0EEBFC0E6D1E02D
:1000D0000C94C2050E94E206A1E0B0E00E94BE06B8
:1000E0000E2FA2E0B0E00E94BE061E2FA3E0B0E0FB
:1000F0000E94BE062E2F101711F4201709F001C020
:100100001DC0101711F4201709F402C0202F16C0CB
:10011000101711F0201709F002C0102F0FC0101790
:1001200011F0211709F002C0012F08C0101711F0BB
:10013000201709F403C001E011E021E0E4E0E0173A
:1001400010F0013008F401E0A1E0B0E00E94BE062A
:10015000E01729F0E02FA1E0B0E00E94D206A2E073
:10016000B0E00E94BE06E01729F0A2E0B0E0E02F68
:100170000E94D206A3E0B0E00E94BE06E01729F07C
:10018000A3E0B0E0E02F0E94D206A02E0E94E70676
:10019000D0C20E94E1060E940A06EBBBE9B3E093DD
:1001A0006F01A0916E01EA1781F4A0917001AA304D
:1001B00058F4E0917001EF5FE0937001A09170013D
:1001C000AA3010F0E0906E0103C0E0E0E09370010F
:1001D000E0916F01E0936E010E94E6062496089577
:1001E000BB2091F4E0917401E03041F432FC06C090
:1001F000E0917301E03011F433FE03C0689431F8EC
:1002000002C0E89431F802C0E89431F80895E2FCA5
:1002100011C0A0917501AA3060F4E0917501EF5F03
:10022000E0937501A0917501AA3019F4E1E0E09323
:1002300074010CC0E0917501E03041F0E150E093B1
:100240007501E03019F4E0E0E0937401E3FC10C0C4
:10025000A0917601AA3058F4E0917601EF5FE09327
:100260007601A0917601AA3011F4689432F80BC09F
:10027000E0917601E03039F0E150E0937601E03032
:1002800011F4E89432F8E5FC10C0A0917801AA308E
:1002900058F4E0917801EF5FE0937801A091780144
:1002A000AA3011F4689433F80BC0E0917801E03083
:1002B00039F0E150E0937801E03011F4E89433F83C
:1002C000E4FC11C0A0917701AA3060F4E0917701BD
:1002D000EF5FE0937701A0917701AA3019F4E1E094
:1002E000E09373010CC0E0917701E03041F0E15000
:1002F000E0937701E03019F4E0E0E09373010895B2
:100300000A9300E0EFEFE7BBBB2009F47CC1E1E01A
:10031000EA1511F00C94F801EB1579F40064E09102
:100320007401E03009F46FC1A0E0B0E00E94BE06A5
:10033000EA3A61F0E2E0BE2E5AC0E2E0EB1549F481
:10034000006EE0917301E03009F45DC10E940E0679
:100350004EC0E1E1EB1539F4006F0E94170611F46D
:100360000E94220644C0E3E0EB1539F4016F0E94BD
:10037000170611F4E4E0BE2E3AC0E4E0EB1531F4C8
:10038000096F32FE40C10E942B0631C0E5E0EB153B
:1003900039F4016F0E94170611F4E6E0BE2E27C063
:1003A000E6E0EB1531F4056F33FE2DC10E943406F3
:1003B0001EC0E7E0EB1541F4016F0E94170619F427
:1003C000E8E00E943D0613C0E8E0EB1541F4006D43
:1003D0000E94170619F4E9E00E94450608C0E9E00A
:1003E000EB1529F400640E94170609F4BB240BC125
:1003F000E2E0EA1511F00C945602E1E0EB1579F415
:100400000064E0917401E03009F4FDC0A0E0B0E0C8
:100410000E94BE06EA3A61F0E2E0BE2E46C0E2E08B
:10042000EB1549F4006EE0917301E03009F4EBC084
:100430000E940E063AC0E1E1EB1539F4006F0E940C
:10044000170611F40E94220630C0E3E0EB1539F4E0
:10045000016F0E94170611F4E4E0BE2E26C0E4E00E
:10046000EB1531F4096F32FECEC00E942B061DC081
:10047000E5E0EB1541F4016F0E94170619F4E6E080
:100480000E943D0612C0E6E0EB1539F4006D0E94B3
:10049000170611F40E94340608C0E7E0EB1529F4B2
:1004A00000640E94170609F4BB24ADC0E3E0EA151E
:1004B00011F00C94B302E1E0EB1579F40064E091E3
:1004C0007401E03009F49FC0A0E0B0E00E94BE06D5
:1004D000EA3A61F0E2E0BE2E45C0E2E0EB1579F4C5
:1004E000006EE0917301E03009F48DC0E2E3F0E0CA
:1004F000E0937101F0937201E3E0BE2E33C0E3E0BC
:10050000EB1569F4006F0E94170641F4EAE5F0E08C
:10051000E0937101F0937201E4E0BE2E23C0E4E0A9
:10052000EB1569F40C6F0E94170641F4E2E8F0E065
:10053000E0937101F0937201E5E0BE2E13C0E5E097
:10054000EB1541F40C6C0E94170619F4E6E00E94CA
:10055000450608C0E6E0EB1529F400640E94170682
:1005600009F4BB2450C0E4E0EA1511F00C94030335
:10057000E1E0EB1579F40064E0917401E03009F4F6
:1005800042C0A0E0B0E00E94BE06EA3A59F0E2E0C4
:10059000BE2E39C0E2E0EB1541F4006EE09173012C
:1005A000E03089F10E9422062EC0E3E0EB1541F411
:1005B000006F0E94170619F4E4E00E944D0623C064
:1005C000E4E0EB1569F4006D0E94170641F4E5E0E4
:1005D000BE2EEEE1F0E0E0937101F093720113C0E2
:1005E000E5E0EB1541F400650E94170619F4E6E01A
:1005F0000E944D0608C0E6E0EB1529F400610E9458
:10060000170609F4BB24A0E0B0E00E94BE06EA3A57
:1006100009F40F7DE02FE095E8BB099108950A9356
:1006200003E0E0E0E017C8F4E02FF0E0EB59FE4F04
:10063000FF93EF93A981BA81EAE0F0E00E94B70648
:10064000AF91BF91EC93A981BA81EAE0F0E00E94FA
:10065000A406E983FA830150E4CF08816AC00A93B3
:10066000689423F800E0053010F00C948C0323FE0E
:1006700009C00E945506EB59FE4FE081E03011F4AD
:10068000043008F01FC0E4E0E01BAE2FE981EA1758
:1006900060F40E945506E05AFE4FFF93EF93E4E6A4
:1006A000F0E0E491AF91BF910BC00E945506E05A73
:1006B000FE4FFF93EF93EAE5F0E0E491AF91BF9135
:1006C000EC9318C00E945506E05AFE4FFF93EF933B
:1006D000EAE5F0E0FF93EF930E945506EB59FE4FD9
:1006E000E081AF91BF910E945906AF91BF91EC9309
:1006F000E89423F8E981E03069F0A981E3E0EA1B9E
:10070000F0E0E05AFE4FFF93EF93E081EF77AF9177
:10071000BF91EC930F5FA7CF088122960895E981DE
:10072000FA81FA93EA930E940F03E881EA930E9408
:100730002F03239608950E945E06FA93EA93E1E060
:10074000EA930E948F03EAE5F0E0FF93EF93ED2D2B
:10075000EF5FAF91BF910E945906E0936001089549
:10076000E4E6F0E0E491E0936401E4E6F1E0FF9375
:10077000EF93E081EF7DAF91BF91EC93BB2049F007
:10078000E4E6F1E0FF93EF93E081EF7BAF91BF915F
:1007900008C0E4E6F1E0FF93EF93E081E064AF91FD
:1007A000BF91EC93BB20A9F431FE09C0E4E6F1E06F
:1007B000FF93EF93E081EE7FAF91BF9108C0E4E635
:1007C000F1E0FF93EF93E081E160AF91BF91EC9393
:1007D00009C0E4E6F1E0FF93EF93E081E160AF91BF
:1007E000BF91EC93A0E0B0E00E94BE06E53549F46D
:1007F000E4E6F1E0FF93EF93E081EF77AF91BF91F3
:1008000008C0E4E6F1E0FF93EF93E081E068AF9188
:10081000BF91EC93E1E0EA1551F4E4E6F1E0FF93D7
:10082000EF93E081EF7EAF91BF91EC9326C0E2E0C1
:10083000EA1551F4E4E6F1E0FF93EF93E081EB7FFA
:10084000AF91BF91EC9319C0E3E0EA1551F4E4E6EF
:10085000F1E0FF93EF93E081E77FAF91BF91EC93DD
:100860000CC0E4E0EA1549F4E4E6F1E0FF93EF930D
:10087000E081ED7FAF91BF91EC93E1E0EC1559F48D
:1008800030FE09C0E4E6F1E0FF93EF93E081EE6112
:10089000AF91BF91EC930895E1B3E7700E947106A8
:1008A0000E9476060000000000000000E3B3EA6644
:1008B000E0936901A0916901AF3F11F01ED209F1E7
:1008C000E89426F8A0916B01A53020F4A0916C016A
:1008D000A03011F024FE01C004C0689425F8909067
:1008E0006A0111D218F0689425F813D2E89424F81C
:1008F000E4E1E0936D01E0E0E0936B01E0936C01D3
:100900002BC0FBD149F5E0916B01EF5FE0936B01E8
:10091000A0916B01A53000F1E0E0E0936B01E09164
:100920006C01EF5FE0936C01EED1B0F0F2D1E0E04A
:10093000E0936C01689425F8689424F826FE0CC0B6
:10094000E0916D01E695E0936D01A0916D01E2E00B
:10095000EA1710F0E0936D01E0916901E0936A01FC
:10096000C5D10895E0FC24C0E0E0EB1511F431FEA0
:1009700001C01EC0E1E0BE2EEA1539F4E2E3F0E06A
:10098000E0937101F093720113C0E2E0EA1539F4CB
:10099000E2E3F0E0E0937101F093720109C0E3E05B
:1009A000EA1531F4E2E3F0E0E0937101F0937201B3
:1009B000E1FC01C0BB2425FE83C0EDEEE91569F41E
:1009C000A0E0B0E00E94BE06E53511F4EAEA01C0FD
:1009D000E5E5A0E0B0E00E94D206CC2091F5E9EF79
:1009E000E91511F4E1E0CE2EEEE7E91571F4E3E04C
:1009F000EA1519F0E4E0EA1539F4DD2019F4E1E034
:100A0000DE2E01C0DD2401C0DD24EFE7E91519F079
:100A1000EDE7E91541F4689426F850D131960E942B
:100A2000CA0631970DC0EEEFE91519F0ECEFE915A4
:100A300039F4689426F842D131970E94CA0631965B
:100A40003FC0E1E0EC15E1F5E9EFE91509F4CC244C
:100A5000EBEFE91579F462D114F4E1E0AE2E62D146
:100A6000A2E0B0E0EA2D0E94D206A3E0B0E0EA2DB9
:100A70000E94D206EFE7E91579F450D114F4E1E0D1
:100A8000AE2E50D1A2E0B0E0EA2D0E94D206A3E043
:100A9000B0E0EA2D0E94D206EEEFE91589F4AA949F
:100AA000E4E0EA1514F4E1E0AE2E3CD1A2E0B0E0BF
:100AB000EA2D0E94D206A3E0B0E0EA2D0E94D20601
:100AC000E89425F808958394E6E08E1608F08824CB
:100AD000E5E08E16C8F4EFEFE4BBE5BBE1B3E86FE9
:100AE00000D1E2B3EF93A4E5B0E0E82DF0E0EA0F27
:100AF000FB1FE491AF91EA23E2BBE82DF0E0E05A5E
:100B0000FE4FE081E5BB02C00E944C0408950A92AA
:100B10001A92FA926A937A938A939A93AA93BA93BF
:100B2000EA93FA93EFB7EA9303D1689420F8CBDF06
:100B30004394E6E04E1618F04424689421F8539448
:100B4000ECE35E1688F05524689422F86394E2E0A2
:100B50006E1618F06624E1E03E267394E5E07E16FA
:100B600018F07724E0E82E26E991EFBFF991E9919A
:100B7000B991A9919991899179916991F990199077
:100B800009901895EFEFEBBB45D0DAD0E0E0E5BB7C
:100B9000E4BBE2BBE1BBCCD0E0E0EFBDEEBDEDBD20
:100BA000ECBDE7BDE6BDEBBDEABDE9BDE8BDE2BD1C
:100BB000E5BDE4BDE3BDE5BFE4BFE1E0E9BFE0E8DA
:100BC000E8B9E0E0E0BF7894EFEFBAD0CC240E941F
:100BD0006A000E949B030E94B00320FE02C0E894BA
:100BE00020F821FE09C0E89421F8BCDE0E94C9006B
:100BF0000E9407010E94800122FE0AC0E89422F8A8
:100C00000E946A000E94F0000E949B030E94B003B1
:100C1000E4CFFFCFE0E0EABBEFEF0895E1E1BE2EC5
:100C2000E8E2F0E0E0937101F09372010895E09141
:100C30007101F09172013197E0937101F0937201AB
:100C400030970895E3E0BE2EE2E3F0E0E093710117
:100C5000F09372010895E5E0BE2EE4E1F0E0E09348
:100C60007101F09372010895E7E0BE2EE4E1F0E037
:100C7000E0937101F09372010895BE2EE2E8F0E076
:100C8000E0937101F09372010895BE2EE4E1F0E06B
:100C9000E0937101F09372010895BE2EE8E7F0E051
:100CA000E0937101F09372010895E02FE150F0E0BC
:100CB0000895F0E0EA0FFB1FE4910895EA2DA3E008
:100CC000B0E0F0E0EE0FFF1FEE0FFF1FAE0FBF1FF3
:100CD000ED2DF0E0EE0FFF1FAE0FBF1F0E94BA0612
:100CE0000895E1BBE2B3E86FE2BB0895E5B3E569BF
:100CF000E5BBE4B3EA76E4BB0895E0916A01A09114
:100D00006901EA170895E0916D01A0916C01AE1799
:100D10000895E0916A01ED7F9E2E0895A394E4E08A
:100D2000EA150895EA2DA1E0B0E00E94D2060895E8
:100D3000E2E0E3BFE0E3FFEFE2BFE0E0ECBF0895F5
:100D4000E8BBEFEFE7BB08950024112490E1AA0F60
:100D5000BB1F001C111C0E1A1F0A18F40E0E1F1EBA
:100D600001C0A1609A9599F7FD01D0010895ECDFCB
:100D7000FD010895119602D0FE2F1197E199FECF43
:100D8000FF93FFB7F894AEBBBFBBE09AEDB3FFBFD4
:100D9000FF91089507D01196EF93EF2F03D0EF91B5
:100DA00011970895E199FECF9FB7F894AEBBBFBBF2
:100DB000E09A8DB3E81719F0EDBBE29AE19A9FBF74
:100DC00008953A932A931A930A9308953B812A81AE
:060DD0001981088108955D
:00000001FF
