:100000000C943C000C9400000C9400000C94000034
:100010000C9400000C9400000C9400000C949B04C1
:100020000C9400000C9400000C9400000C947204DA
:100030000C9400000C946C000C9400000C94B5001F
:100040000C9400000C9400000C9400000C94000030
:100050000C9400001027E80364000A00010000105F
:1000600000011000010000000000555555555500D5
:100070000300020066000000F894EE27ECBBF1E0FC
:10008000FBBFEBBFE5BFF8E1F1BDE1BD8DE0A2E054
:10009000BB27ED938A95E9F780E098E0A0E6ED9321
:1000A0000197E9F7E0E7F0E085919591009761F01D
:1000B000A591B59105901590BF01F00105900D92A5
:1000C0000197E1F7FB01F0CFEFE5EDBFE8E0EEBF10
:1000D000C0E6D2E00C949C041A930A93AF93BF93AA
:1000E000EF93FF93AFB7AF931BB10CB1E12FEC715E
:1000F00099F5E02FE87F19F4E0E0E093B902E09190
:10010000B902F0E0E957FD4F0083A091B902AF5F5B
:10011000A093B902A530C8F0A89B02C0A89801C05E
:10012000A89AE0918802A0918702EA270E2EA0915A
:100130008902E0918A02AE27E0918B02EA27A02D86
:10014000AE27AF7711F40E949203A091B902A233B7
:1001500018F0E0E0E093B902AF91AFBFFF91EF91EB
:10016000BF91AF91099119911895AF93BF93EF93F8
:10017000FF93AFB7AF93E0912203E030A1F0E150DD
:10018000E0932203E0912103F0E0E454FD4FE0818D
:10019000ECB9A0912103AF5FA0932103A43619F419
:1001A000E0E0E0932103AF91AFBFFF91EF91BF91EA
:1001B000AF911895AA93A0912203A436E1F3F89485
:1001C000E0912203E03011F45D9917C0E091200323
:1001D000F0E0E454FD4FA881A083A0912003AF5F1D
:1001E000A0932003A43619F4E0E0E0932003E0910B
:1001F0002203EF5FE093220302C0E881ECB9789418
:1002000021960895EFEFE7BBE0917902A091780283
:10021000EA2BE0937702E095E8BB0895AA932C9728
:100220001A930A9300E0EE89EA83ED89EB83EC8967
:10023000EC83EB89ED83EA89EE83E989EF83E88932
:10024000E887EF85E987EE85EA8710E0EF891E17DA
:1002500050F4E12FF0E0DE011296AE0FBF1FAC911B
:10026000A9DF1F5FF3CF19810881689608950E9466
:100270004605EAB3E373EABBEBB3EC6CEBBBE9B363
:10028000E363E0936702A0916602EA1791F4A091FC
:100290006802AA3068F4E0916802EF5FE0936802B8
:1002A000A0916802AA3020F0E0916602E093650216
:1002B00003C0E0E0E0936802E0916702E093660229
:1002C0000E944B0524960895E0916502E87081F440
:1002D000A0916902AA3058F4E0916902EF5FE093BF
:1002E0006902A0916902AA3011F4689436F80BC033
:1002F000E0916902E03039F0E150E0936902E030CA
:1003000011F4E89436F8E0916502E07881F4A09168
:100310006A02AA3058F4E0916A02EF5FE0936A0241
:10032000A0916A02AA3011F4689437F80BC0E091EA
:100330006A02E03039F0E150E0936A02E03011F4F3
:10034000E89437F8E0916502E47081F4A0916B02C3
:10035000AA3058F4E0916B02EF5FE0936B02A0913A
:100360006B02AA3011F4689434F80BC0E0916B0270
:10037000E03039F0E150E0936B02E03011F4E894A2
:1003800034F8E0916502E07481F4A0916C02AA3027
:1003900058F4E0916C02EF5FE0936C02A0916C0264
:1003A000AA3011F4689435F80BC0E0916C02E0308B
:1003B00039F0E150E0936C02E03011F4E89435F844
:1003C0000895E0E0E0937802A0917302A13011F467
:1003D000E0937102E0917102E03009F481C0A091D4
:1003E0007102A13029F4E4E1E0937502E2E076C005
:1003F000A0917102A23051F40E94090531F4E4E1A8
:10040000E0937502E3E0E09371026AC0A09171028B
:10041000A33051F4E0917802E0640E94100519F4D1
:10042000E4E0E09371025CC0A0917102A43071F429
:10043000E0917802E06CE093780234FE06C0E5E0DB
:10044000E0937102E2E3E09375024AC0A091710269
:10045000A53069F4E0917802E06E0E94100531F455
:10046000E0E5E0937502E6E0E093710239C0A09107
:100470007102A63069F4E0917802E06F0E941005E5
:1004800031F4ECE3E0937502E7E0E093710228C0F9
:10049000A0917102A73069F4E0917802E0650E94B2
:1004A000100531F4E4E1E0937502E8E0E0937102B5
:1004B00017C0A0917102A83051F4E0917802E06178
:1004C0000E94100519F4E9E0E093710209C0A091BF
:1004D0007102A93029F436FE03C0E0E0E093710216
:1004E000A0917302A23011F5E0E0E0937802A091B0
:1004F0008602A13011F4E06417C0A0918602A230F8
:1005000021F4E0917802E0680FC0A0918602A33048
:1005100021F4E0917802E06207C0A0918602A43045
:1005200029F4E0917802E061E09378020895E0E038
:10053000E0937902A0917402A13011F4E093720269
:10054000E0917202E03009F481C0A0917202A13002
:1005500029F4E4E1E0937602E2E076C0A091720231
:10056000A23051F40E94130531F4E4E1E0937602E5
:10057000E3E0E09372026AC0A0917202A33051F4EA
:10058000E0917902E8600E941A0519F4E4E0E09332
:1005900072025CC0A0917202A43071F4E091790201
:1005A000EC60E093790235FE06C0E5E0E09372026C
:1005B000E2E3E09376024AC0A0917202A53069F4AA
:1005C000E0917902EE600E941A0531F4E0E5E093D3
:1005D0007602E6E0E093720239C0A0917202A63082
:1005E00069F4E0917902EF600E941A0531F4ECE3BE
:1005F000E0937602E7E0E093720228C0A0917202D5
:10060000A73069F4E0917902E9600E941A0531F49B
:10061000E4E1E0937602E8E0E093720217C0A09173
:100620007202A83051F4E0917902E1600E941A054B
:1006300019F4E9E0E093720209C0A0917202A930B6
:1006400029F437FE03C0E0E0E0937202A091740247
:10065000A23011F5E0E0E0937902A0918602A1308A
:1006600011F4E86017C0A0918602A23021F4E09155
:100670007902E4600FC0A0918602A33021F4E091DA
:100680007902E26007C0A0918602A43029F4E091CB
:100690007902E160E09379020895A0917C02A5358A
:1006A00079F4E0917302E03019F4E1E0E093710233
:1006B000E0917402E03019F4E1E0E093720212C0BC
:1006C000A0917C02A33371F4E0917302E03019F43D
:1006D000E0E0E0937102E0917402E03019F4E0E0B0
:1006E000E09372020895E0918002E47011F0E0E07E
:1006F00007C0E0918402E47011F4E2E001C0E1E09F
:10070000E0937302E0918002E87011F0E0E007C02E
:10071000E0918402E87011F4E2E001C0E1E0E093CE
:1007200074020895A0918702A23009F045C0249771
:10073000E2E0EB83E883E0E8EA8334FE03C0EA8189
:10074000E160EA8336FE03C0EA81E260EA83E09179
:100750007102E03019F0EA81E460EA8335FE03C0FB
:10076000EA81E860EA8337FE03C0EA81E061EA8358
:10077000E0917202E03019F0EA81E062EA83EA81F6
:10078000A881EA27E883E0E8E983A881EA27E883EB
:10079000E068E883E4E0EA93EC81EA93EC81EA9391
:1007A000EC81EA93EC81EA93E0E0EA93EA93EA933E
:1007B000EA93A0E033DD2496E0918802E0937A0288
:1007C000E0917B02A0917A02EA17E1F4A0917D0208
:1007D000A430B8F4E0917D02EF5FE0937D02A09138
:1007E0007D02A43070F0E0917A02EF77AE2FE091B5
:1007F0007C02EA1731F0E0917A02EF77E0937C0215
:100800004CDF03C0E0E0E0937D02E0917A02E093E8
:100810007B02E0918902E0937E02E0917F02A09149
:100820007E02EA17E1F4A0918102A430B8F4E091CD
:100830008102EF5FE0938102A0918102A43070F009
:10084000E0917E02EF77AE2FE0918002EA1731F05F
:10085000E0917E02EF77E093800245DF03C0E0E0A5
:10086000E0938102E0917E02E0937F02E0918A02B0
:10087000E0938202E0918302A0918202EA17E1F400
:10088000A0918502A430B8F4E0918502EF5FE09377
:100890008502A0918502A43070F0E0918202EF778A
:1008A000AE2FE0918402EA1731F0E0918202EF77F7
:1008B000E093840218DF03C0E0E0E0938502E0915A
:1008C0008202E09383020895A6E0B0E00E9425052D
:1008D000AFE1B0E00E941D05E0936D02F0936E025F
:1008E00008950895EA93EFB7EA93E5E0E3BFE2EBFA
:1008F000E2BFE0E0ECBF689421F89394EAE09E1632
:10090000B0F0992422F88394E2E08E1610F0882447
:100910003E26B394E5E0BE1618F0BB24E1E03E2687
:10092000A394EAE0AE1618F0AA24E8E02E26E99196
:10093000EFBFE99118951895EFEFEBBBE0E0EABB4C
:10094000E8BBEFEFE7BBE0E0E5BBE4BBE2BBE1BB4C
:10095000E2E0E3BFEDE9E2BFE0E0ECBFEFBDEEBDFA
:10096000EDBDECBDE7BDE6BDEBBDEABDE9BDE8BD53
:10097000E2BDE5BDE4BDE3BDEBB9E8EDEAB9E6E80B
:10098000E0BDE0E0E0BDE9E1E9B9E0E0E5BFE4BFFA
:10099000E1E0E9BFE0E8E8B9E0E0E0BF7894A1DF9A
:1009A000A0E0B0E0EAEA0E94350520FE02C0E8942B
:1009B00020F821FE09C0E89421F80E94370184DC68
:1009C00000DDB5DD0E94020122FE0EC0E89422F88F
:1009D00088DF7ADF8A9AE0917202E03011F0929813
:1009E00001C0929AEFEFE4BB23FE11C0E89423F814
:1009F000A0918602AF5FA0938602A53018F0E0E0D8
:100A0000E0938602A99B02C0A99801C0A99ACDCF04
:100A1000FFCFE0917502E150E0937502E030089558
:100A2000E0937802F6CFE0917602E150E09376020F
:100A3000E0300895E0937902F6CFFA9FF02DEB9F16
:100A4000F00DEA9FE02DF10D0895119602D0FE2FD2
:100A50001197E199FECFFF93FFB7F894AEBBBFBBF0
:100A6000E09AEDB3FFBFFF910895E19B02C0A89506
:100A7000FCCF9FB7F894AEBBBFBBE09A8DB3E8172D
:100A800019F0EDBBE29AE19A9FBF08953A932A9339
:100A90001A930A9308953B812A8119810881089548
:00000001FF
