:10000000830100308A005F28FC0003088301E300BD
:100010000408E4008B130B1D1E287D220B112114F4
:10002000A50A25080A3A031D1E28A501A114A60A3F
:1000300026080A3A031D1E28A60121158312031360
:100040008C1E392883162308A43E8400831358226B
:10005000800020170C308316A30A23020318A30183
:100060000C30A10A2102031C3828A301A201A1011E
:1000700083120C1E552883160C1E55288312300837
:10008000310603195328B030D2003008D207520885
:100090008400831300087522B00A30080C3A031D4F
:1000A0005528B001552883160C128B1703138312A1
:1000B0006408840063088300FC0E7C0E0900203075
:1000C000840022307920223084005430792083014A
:1000D0000730E200F330E1005430840061307D20CD
:1000E000A0308400BC3079208301FD2B0406800100
:1000F000840A0406031900347628F0008820800062
:10010000840A04087006031900347E288312E10073
:10011000E21B9328621B9B2862088A006108E10A9F
:100120000319E20A82008313621883176108E10A47
:0601300084000008080035
:1004B000831203138C1E5A2A1A080800831203138E
:1004C000981C0034181218160134831203138C1E62
:1004D000672A0030181901300800831203138C1E9C
:1004E0006F2A003018180130080083120313D3005C
:1004F0000C1E782A5308990008000730831603134E
:1005000081008B160B17D830831281000800F4008D
:10051000F40AF403031900340310F00DF10DF20D89
:10052000F30D892A83120313C40003178D00831669
:100530008C130C1483120C0803130800831203138A
:10054000BE000430BF005A30C000C00BA52ABF0B4C
:10055000A32ABE0BA12A080083120313DF08031D80
:10056000BA2AA01C2019B62AA01FB82A20140800F5
:10057000201008002010080083120313C70046084B
:10058000C7074708803A743E031CC82AF430C707DF
:10059000C71FCC2A0C30C707470808008312031373
:1005A0003D1D3D1CD72ABD1CD72AE00108003D1C7B
:1005B0003D1DDF2ABD1CDF2AE001E00A08000330F0
:1005C000E0000800F401F5010310F30CF20C031C29
:1005D000F02A7008F40771080318710AF507031070
:1005E000F00DF10D7208730403190034E42A831628
:1005F00003131815193099001812831298178316CF
:10060000071787178312181683160C128C161813E7
:1006100083121813831698168B170B178312080072
:1006200083120313BE01F030831687008312BE11BC
:10063000DF0803191D2B3E111E2B3E15DF08031981
:10064000201C242BBE10252BBE1407080F383E0596
:100650008700080083120313201E412BDF080319B3
:100660002018412BDF01DF0AE00803193E2B600B45
:100670003A2B3E2B6008023A031D412B3230BA0060
:10068000BB01A01ADF012012A0120800831203137D
:100690003C18552B033027020318562BA70A0330AA
:1006A0002702031C562B2016562BA7013C19622B40
:1006B0000330280203180800A80A03302802031890
:1006C000A0160800A801080083120313D000D1016E
:1006D0007B2B51085007840083130008F000310879
:1006E000B03E84008313700880000C30B10A3102E0
:1006F0000318B101D10A4F085102031C692B83165C
:100700000C168312080083120313C4008316031708
:100710008C18882B83120313440803178D000313CE
:10072000430803178C0083168C1303108B1B0314D0
:100730008B130C1555308D00AA308D008C140C11C4
:1007400003188B1783010800F03083160313850507
:1007500005168312BE010508BF00F030BF053E0834
:10076000BF073F0885000310C00DC10D4630C20011
:10077000C20BB82B051EBE2B4014BF2B4010BE0A67
:1007800010303E02031CAB2B4008BC004108BD00EA
:10079000080083120313C500C401C201A43E8400F3
:1007A000831300080A3A031D0034FE30C6004508D2
:1007B000BC22A43E840083130008C200C301C4010C
:1007C00044084202031CF12B4208FE3C4407C600C9
:1007D0004508BC22A43E840083130008C306C40A53
:1007E000E02BFF30C6004508BC22A43E84008313E2
:1007F000000843060319013400347D228B170B17C0
:100800008B138B1783168601831286018714F722B8
:10081000201F0C2C2013BF24211C142C2110A423D6
:10082000A226722446232A23A11C332CA1101023B4
:10083000AC22CE22E008031D242C1630BE000E3060
:100840009222BF0012302C2CE008031D332C1630EE
:10085000BE009222BF001A309222C000C101C20124
:10086000C30103303724211D082C2111082C8312C9
:100870000313C600C5013E08C7003F08C800400872
:10088000C9004108CA004208CB004308CC00C4019B
:10089000502C4408473E840083130008C506C40A50
:1008A00046084402031C492C4608473E8400831333
:1008B000460880004608473E840083130008C506AA
:1008C000460A473E84008313450880004608023EDE
:1008D000473E840083130A3080004608033ECF0061
:1008E0004730642B83120313BD1B812C0A3029026D
:1008F0000318872CA90A29080A3A031D872CA0147B
:10090000872CA9080319872CA90B872CA0103D1B45
:10091000942C0A302A0203189A2CAA0A2A080A3AA6
:10092000031D9A2C20159A2CAA0803199A2CAA0B9D
:100930009A2C20113D1AA72C0A302B020318AD2C3B
:10094000AB0A2B080A3A031DAD2CA015AD2CAB0841
:100950000319AD2CAB0BAD2CA011BD1AB92C0A306C
:100960002C0203180800AC0A2C080A3A0319A01735
:100970000800AC08031DAC0B0800A01308008B1383
:100980008316031321088312BE00831623088312E3
:10099000C1008B17BE0803190800FF30C6004108CC
:1009A000BC22A43E8400831300080A3A031D0800F9
:1009B000FD30C6004108BC22A43E84008313000819
:1009C000BF000A303F0203180800FF30C60041088C
:1009D000BC22C9230038031908003F08FD3CC600AB
:1009E0004108BC228316A2008312C0013F084002C6
:1009F00003180C2D4008C60083162208BC22A43E12
:100A0000840083130008F0004008543E84008313E0
:100A100070088000C00AF62C41088316A2008312D9
:100A20003E088316A102012E83120313BE01831612
:100A300086018312E008031D422DDF08031D222DCD
:100A4000BE01422D5F0B252D412D5F08023A031D8B
:100A50002B2D1C303C2D5F08033A031D312D1E3019
:100A60003C2D5F08043A031D372D1F303C2D5F08D5
:100A7000053A031D3E2D1530BE04422D5F08063A8F
:100A800003193E16600B6A2DDF08031D492DBE01B8
:100A90006A2D5F0B4D2D3E166A2D5F08023A031D2D
:100AA000532D1C30642D5F08033A031D592D1E3051
:100AB000642D5F08043A031D5F2D1630642D5F0816
:100AC000053A031D662D1230BE046A2D5F08063AF2
:100AD0000319BE143E0886000800831203133E0863
:100AE000F0003F08F1004008F2004108F300043034
:100AF00087227008C0007108C1007208C200730824
:100B0000C3004008F4004108F5004208F60043081D
:100B1000F700F0010930F1003D30F2000030F30140
:100B20006927FF307007BE00FF30031800307107DF
:100B3000BF00803AF00081307002003003193E029D
:100B40000318A42DBF1FDE2D3E08F0003F08F10062
:100B50004008F2004108F300063087227008C00008
:100B60007108C1007208C2007308C3004008F40095
:100B70004108F5004208F6004308F700F00109308B
:100B8000F1003D30F2000030F3016927FF307007BB
:100B9000BE00FF30031800307107BF00803AF0003C
:100BA00081307002003003193E020318D92DBF1F97
:100BB000DB2D0130FF2D83161811E02D831618153B
:100BC00083123E088316990018128312981718167C
:100BD000981283160C128C128312C2088316031902
:100BE000F32D1817F42D181383120313C2080319D9
:100BF000FB2D1817FC2D181383169816003083123E
:100C0000080083120313E008031D502E5408163AFF
:100C1000031D172E5508053A031D172E5608063AD0
:100C2000031D172E0E309222C200C20A272E54082E
:100C3000163A031D2B2E5508073A031D2B2E560876
:100C4000083A031D2B2E0E309222C200C203420826
:100C5000C3000E304F2E5408163A031D3C2E550883
:100C6000093A031D3C2E56080A3A031D3C2E123049
:100C70009222C200C20A4C2E5408163A031D502E6E
:100C800055080B3A031D502E56080C3A031D502EE2
:100C900012309222C200C2034208C30012308323E2
:100CA000600B08005408163A031D662E5508053AD5
:100CB000031D662E5608063A031D662E1630922234
:100CC000C200C20A4208C3001630832B5408163AE9
:100CD000031D7A2E5508073A031D7A2E5608083A46
:100CE000031D7A2E16309222C200C2034208C300AE
:100CF0001630832B5408163A031D8E2E5508093AD8
:100D0000031D8E2E56080A3A031D8E2E1A3092228B
:100D1000C200C20A4208C3001A30832B5408163A94
:100D2000031D080055080B3A031D080056080C3A2D
:100D3000031D08001A309222C200C2034208C300F9
:100D40001A30832B83120313BE018316860183128C
:100D5000DF080319652FE008031D152F5F0BB52E63
:100D60003E16A01C652F0230F92E5F08023A031DC3
:100D7000C22E1C30BE04A01F652F3230BA00BB014A
:100D80000330F92E5F08033A031DDE2E1E30BE0429
:100D9000BA080319BB03BA033B083A04031D652FC5
:100DA0000A30F200F3010E309222F000F101E2224B
:100DB0007408BA007508BB000430F92E5F08043AC5
:100DC000031DFB2E1F30BE04BA080319BB03BA0370
:100DD0003B083A04031D652F0A30F200F30112307C
:100DE0009222F000F101E2227408BA007508BB00FB
:100DF0000530DF00652F5F08053A031D0F2F1930FE
:100E0000BE04BA080319BB03BA033B083A04031D26
:100E1000652F0630DF001430BA00BB01652F5F0874
:100E2000063A031D652F3E165D2F600B652F5F0B85
:100E30001A2FB02E5F08023A031D292F1C30BE0462
:100E4000A01F652F0330DF000A30F200F3011630D7
:100E50004F2F5F08033A031D3B2F1A30BE04BA0818
:100E60000319BB03BA033B083A04031D652F043082
:100E7000DF001E300C2F5F08043A031D582F12307C
:100E8000BE04BA080319BB03BA033B083A04031DA6
:100E9000652F0530DF000A30F200F3011A3092228C
:100EA000F000F101E2227408BA007508BB00652F5A
:100EB0005F08053A031D652FBE14BA080319BB036A
:100EC000BA033B083A040319DF0100003E0886001C
:100ED000080084018312E501F801F901FA01FB0120
:100EE00074087504760477040319792FC030E5057A
:100EF000842FF001F101F201F301E42F0310F40D4E
:100F0000F50DF60DF70DE50AF71F7E2FE50A031024
:100F1000F80DF90DFA0DFB0D77087302031D9A2FDA
:100F200076087202031D9A2F75087102031D9A2F0D
:100F300074087002031CAC2F78147408F002750852
:100F4000031C750FF1027608031C760FF202770876
:100F5000031C770FF3020310F70CF60CF50CF40CDE
:100F6000E50365083F39031D872F651FC42F031054
:100F7000FF30F007F009031CF107F109031CF20729
:100F8000F209031CF307F3097008F4007108F50077
:100F90007208F6007308F7007808F0007908F1008D
:100FA0007A08F2007B08F300E51FE42F0310FF30FE
:100FB000F007F009031CF107F109031CF207F2091D
:100FC000031CF307F309E42F8408031900347308A2
:100FD0008000840372088000840371088000840309
:100FE00070088000003400340034003400340034D1
:100FF00000340034003400340034803400340034D1
:02400E007A3DF9
:00000001FF
