:020000040000FA
:10000000830100308A006028FC0003088301E100BE
:100010000408E2008B130B1D1E28EF210B11211485
:10002000A50A25080A3A031D1E28A501A114A60A3F
:1000300026080A3A031D1E28A60121158312031360
:100040008C1E392883162308A43E84008313CD21F7
:100050008313800020170C308316A30A2302031891
:10006000A3010C30A10A2102031C3928A301A2011B
:10007000A10183120C1E562883160C1E56288312CB
:100080003008310603195428B030D2003008D207A6
:100090005208840083130008E621B00A30080C3AA5
:1000A000031D5628B001562883160C128B17031314
:1000B00083126208840061088300FC0E7C0E090034
:1000C0002230840054307A20A0308400BC307A2062
:1000D0002030840022307A2083010730E400F3309E
:1000E000E3005430840061307E208301BB2B040682
:1000F0008001840A0406031D77280034F0008A205A
:100100008000840A04087006031900347F288312D3
:100110000313E300E41B9528641B9D2864088A00F0
:100120006308E30A0319E40A82008313641883173F
:0A0130006308E30A840000080800D9
:10039A0083018C1ECD291A0808008301981C003499
:1003AA0018121816013483018C1ED8290030181926
:1003BA000130080083018C1EDF2900301818013033
:1003CA0008008301D300831203130C1EE829530883
:1003DA009900080007308316031381008B160B1748
:1003EA00D8308312810008008301C40003178D00EE
:0603FA0083168C130C14A5
:1004000083120C0803130800F400F40AF403031920
:1004100000340310F00DF10DF20DF30D062A8301E7
:10042000BE000430BF005A30C000C00B152ABF0BFD
:10043000132ABE0B112A08008301DF08031D292A95
:10044000A01C2019252AA01F272A201408002010EC
:100450000800201008008301C7004608C7074708A6
:10046000803A743E031C362AF430C707C71F3A2A65
:100470000C30C7074708080083013D1D3D1C442A76
:10048000BD1C442AE00108003D1C3D1D4C2ABD1C3A
:100490004C2AE001E00A08000330E0000800F40103
:1004A000F5010310F30CF20C031C5D2A7008F4072D
:1004B00071080318710AF5070310F00DF10D7208A9
:1004C000730403190034512A8301BE01F0308316EE
:1004D00087008312BE11DF080319702A3E11712AAA
:1004E0003E15DF080319201C772ABE10782ABE1497
:1004F00007080F383E0587000800831603131815F8
:100500001930990018128312981783160717871746
:100510008312181683160C128C16181383121813D4
:10052000831698168B170B17831208008301201E61
:10053000AC2ADF0803192018AC2ADF01DF0AE00823
:100540000319A92A600BA52AA92A6008023A031DEB
:10055000AC2A3230BA00BB01A01ADF012012A0126F
:1005600008008301D000D101C62A51085007840039
:1005700083130008F0003108B03E8400700880004A
:100580000C30B10A31020318B101D10A4F085102EF
:10059000031CB52A83160C168312080083013C182D
:1005A000DC2A033027020318DD2AA70A03302702BA
:1005B000031CDD2A2016DD2AA7013C19E92A033095
:1005C000280203180800A80A033028020318A016FE
:1005D0000800A80108008301C500831603178C18C2
:1005E000ED2A83120313450803178D0003134408F3
:1005F00003178C0083168C1303108B1B03148B13AF
:100600000C1555308D00AA308D008C140C11031878
:100610008B17830108008301BE0084008313000848
:10062000803AF0003E08803A700203181B2B3E0807
:1006300084003E0880003F08803AF0003E088400B5
:1006400083130008803A7002031808003E088400F3
:1006500083133F0880000800F030831603138505DC
:1006600005168312BE010508BF00F030BF053E0825
:10067000BF073F0885000310C00DC10D4630C20002
:10068000C20B402B051E462B4014472B4010BE0AC0
:1006900010303E02031C332B4008BC004108BD0053
:1006A00008008301C500C401C201A43E8400831375
:1006B00000080A3A031D0034FE30C60045082B220C
:1006C000A43E840083130008C200C301C40144088F
:1006D0004202031C782B4208FE3C4407C600450832
:1006E0002B22A43E840083130008C306C40A672B90
:1006F000FF30C60045082B22A43E84008313000867
:1007000043060319013400348301C600C5013E08C5
:10071000C7003F08C8004008C9004108CA00420895
:10072000CB004308CC00C4019C2B4408473E840006
:1007300083130008C506C40A46084402031C952B0F
:100740004608473E84008313460880004608473E1B
:1007500084000008C506460A473E8400450880001C
:100760004608023E473E84000A3080004608033EA9
:10077000CF004730B12AEF218B170B178B138B1744
:10078000831686018312860187147D22201FCA2BBF
:1007900020137F24211CD22B21102C2390263324BC
:1007A000CE229622A11CF02BA11064221C223C22F6
:1007B000E008031DE22B1630BE000E30F921BF0009
:1007C0001230E92B600BF02B1630BE00F921BF0070
:1007D0001A30F921C000C101C201C30103308423D2
:1007E000211DC62B2111C62B8301C8008400831351
:1007F0000008F000840A0008F100803AF200450881
:10080000803A7202031D062C4408700283120313FF
:100810004808840083130318162C44088000840AB7
:100820004508800083120313480884000008F00084
:10083000840A0008F1004708803AF2007108803A03
:100840007202031D252C700846020318312C8312F6
:10085000031348088400831346088000840A47086D
:100860008000830108008301BD1B412C0A3029024E
:100870000318472CA90A29080A3A031D472CA0147B
:10088000472CA9080319472CA90B472CA0103D1B86
:10089000542C0A302A0203185A2CAA0A2A080A3AA7
:1008A000031D5A2C20155A2CAA0803195A2CAA0BDE
:1008B0005A2C20113D1A672C0A302B0203186D2C7C
:1008C000AB0A2B080A3A031D6D2CA0156D2CAB0842
:1008D00003196D2CAB0B6D2CA011BD1A792C0A30AD
:1008E0002C0203180800AC0A2C080A3A0319A017B6
:1008F0000800AC08031DAC0B0800A01308008B1304
:100900008316031321088312BE0083162308831263
:10091000C1008B17BE0803190800FF30C60041084C
:100920002B22A43E8400831300080A3A031D08000A
:10093000FD30C60041082B22A43E8400831300082A
:10094000BF000A303F0203180800FF30C60041080C
:100950002B2251230038031908003F08FD3CC60034
:1009600041082B228316A2008312C0013F084002D7
:100970000318CB2C4008C600831622082B22A43E65
:10098000840083130008F0004008543E840070087F
:100990008000C00AB62C41088316A20083123E08CC
:1009A0008316A102BE2D8301BE0183168601831228
:1009B000E008031D002DDF08031DE02CBE01002D03
:1009C0005F0BE32CFF2C5F08023A031DE92C1C305F
:1009D000FA2C5F08033A031DEF2C1E30FA2C5F0837
:1009E000043A031DF52C1F30FA2C5F08053A031D4D
:1009F000FC2C1530BE04002D5F08063A03193E1684
:100A0000600B282DDF08031D072DBE01282D5F0B6D
:100A10000B2D3E16282D5F08023A031D112D1C30A8
:100A2000222D5F08033A031D172D1E30222D5F086B
:100A3000043A031D1D2D1630222D5F08053A031DB3
:100A4000242D1230BE04282D5F08063A0319BE1467
:100A50003E088600080083013E08F0003F08F100D0
:100A60004008F2004108F300043004227008C0007E
:100A70007108C1007208C2007308C3004008F40086
:100A80004108F5004208F6004308F700F00109307C
:100A9000F1003D30F2000030F3016827FF307007AD
:100AA000BE00FF30031800307107BF00803AF0002D
:100AB00081307002003003193E020318612DBF1F00
:100AC0009B2D3E08F0003F08F1004008F20041086D
:100AD000F300063004227008C0007108C1007208DB
:100AE000C2007308C3004008F4004108F500420842
:100AF000F6004308F700F0010930F1003D30F20044
:100B00000030F3016827FF307007BE00FF30031884
:100B100000307107BF00803AF00081307002003071
:100B200003193E020318962DBF1F982D0130BC2DCE
:100B3000831618119D2D8316181583123E088316EF
:100B400099001812831298171816981283160C120F
:100B50008C128312C20883160319B02D1817B12DF9
:100B6000181383120313C2080319B82D1817B92DCF
:100B70001813831698160030831208008301E008CA
:100B8000031D282E5408163A031DD62D5508053A84
:100B9000031DD62D5608063A031DD62D0E30F92119
:100BA000C200C301C20A0319C30AEA2D5408163A47
:100BB000031DF52D5508073A031DF52D5608083A73
:100BC000031DF52D0E30F921C200C301C20803191F
:100BD000C303C203C401C501C830C600C701423007
:100BE000F4234208C4000E30272E5408163A031D81
:100BF000092E5508093A031D092E56080A3A031D05
:100C0000092E1230F921C200C301C20A0319C30A16
:100C10001D2E5408163A031D282E55080B3A031DA5
:100C2000282E56080C3A031D282E1230F921C20036
:100C3000C301C2080319C303C203C401C501C830FC
:100C4000C600C7014230F4234208C4001230EB2230
:100C5000600B08005408163A031D3E2E5508053A4D
:100C6000031D3E2E5608063A031D3E2E1630F9216E
:100C7000C200C301C20A0319C30A522E5408163A0D
:100C8000031D5D2E5508073A031D5D2E5608083AD0
:100C9000031D5D2E1630F921C200C301C2080319DD
:100CA000C303C203C401C501C830C600C701423036
:100CB000F4234208C4001630EB2A5408163A031DE8
:100CC000712E5508093A031D712E56080A3A031D64
:100CD000712E1A30F921C200C301C20A0319C30AD6
:100CE000852E5408163A031D080055080B3A031DBB
:100CF000080056080C3A031D08001A30F921C200FA
:100D0000C301C2080319C303C203C401C501C8302B
:100D1000C600C7014230F4234208C4001A30EB2A4F
:100D20008301BE01831686018312DF080319642F35
:100D3000E008031DFB2E5F0B9E2EFF2E5F08023A7C
:100D4000031DAB2E1C30BE04A01F642F3230BA002E
:100D5000BB010330032F5F08033A031DC72E1E306B
:100D6000BE04BA080319BB03BA033B083A04031DC7
:100D7000642F0A30F200F3010E30F921F000F10186
:100D80004F227408BA007508BB000430032F5F08B7
:100D9000043A031DE32E1F30BE04BA080319BB0337
:100DA000BA033B083A04031D642F0A30F200F30132
:100DB0001230F921F000F1014F227408BA007508D1
:100DC000BB000530032F5F08053A031DF52E1930CF
:100DD000BE04BA080319BB03BA033B083A04031D57
:100DE000642F0630DF001430372F5F08063A031DEA
:100DF000642F3E165C2F600B642F5F0B052F3E1691
:100E0000A01C642F0230DF00642F5F08023A031D2C
:100E1000112F1C30BE04A01F642F0330DF003230BE
:100E2000372F5F08033A031D262F1E30BE04BA0871
:100E30000319BB03BA033B083A04031D642F0430B3
:100E4000DF000A30F200F30116304E2F5F08043A3B
:100E5000031D3A2F1A30BE04BA080319BB03BA03A4
:100E60003B083A04031D642F0530DF001E30BA0032
:100E7000BB01642F5F08053A031D572F1230BE04D3
:100E8000BA080319BB03BA033B083A04031D642FD5
:100E90000630DF000A30F200F3011A30F921F000C9
:100EA000F1014F227408BA007508BB00642F5F0877
:100EB000063A031D642FBE14BA080319BB03BA0314
:100EC0003B083A040319DF0100003E0886000800D1
:100ED000840183120313E501F801F901FA01FB0112
:100EE00074087504760477040319792FC030E5057A
:100EF000842FF001F101F201F301E42F0310F40D4E
:100F0000F50DF60DF70DE50AF71F7E2FE50A031024
:100F1000F80DF90DFA0DFB0D77087302031D9A2FDA
:100F200076087202031D9A2F75087102031D9A2F0D
:100F300074087002031CAC2F78147408F002750852
:100F4000031C750FF1027608031C760FF202770876
:100F5000031C770FF3020310F70CF60CF50CF40CDE
:100F6000E50365083F39031D872F651FC42F031054
:100F7000FF30F007F009031CF107F109031CF20729
:100F8000F209031CF307F3097008F4007108F50077
:100F90007208F6007308F7007808F0007908F1008D
:100FA0007A08F2007B08F300E51FE42F0310FF30FE
:100FB000F007F009031CF107F109031CF207F2091D
:100FC000031CF307F309E42F8408031900347308A2
:100FD0008000840372088000840371088000840309
:100FE00070088000003400340034003400340034D1
:100FF00000340034003400340034803400340034D1
:02400E007A3DF9
:00000001FF
