:1000000014C0FECFFDCFFCCFFBCFFACF7FC244C0E0
:10001000F7CF60C0F5CFFBF7EFDFBFFF487B2C29A0
:100020001B89886B0809FF000000F894EE27ECBBE1
:10003000E5BFF8E1F1BDE1BD8DE0A2E0ED938A9569
:10004000E9F780E8A0E6ED938A95E9F7E8E2F0E0C9
:10005000C8953196802DC8953196902D0097B9F0AE
:10006000C8953196A02DC8953196B02DC89531967A
:10007000102CC89531966E2F7F2FF02DE12DC8954D
:1000800031960D920197D9F7E62FF72FE1CFEFEDDB
:10009000EDBFC2E9D0E09DC2C3D250D30BB11CB1B9
:1000A000E02FE87191F4E52DE456AE2F1C9368948F
:1000B00020F85394E8E0E51509F455247394E8E03A
:1000C000E71519F47724689421F83FD3AED2189538
:1000D000F8947894A5D2AA2051F0AA94A4EAA90D84
:1000E000EC91ECB99394E8E0E91509F499249DD2D8
:1000F0001895E8E0EA15E9F3F894AA2011F45D995F
:100100000CC0E82DEC55AE2FE881EC938394E8E029
:10011000E81509F48824A39402C0E881ECB9789426
:1001200021960895E3E0E3BFE2ECE2BF0895EBE13E
:10013000E8BBEFE1E7BBEBE7E2BBEFE6E1BB08952D
:10014000E881A981EA0FE983A981A83014F0E85079
:10015000E983A981A0301CF4E981E85FE983E981A2
:1001600022960895EAD200E010E0EB8163D2EA30F3
:10017000C1F463D266D2E456108120E000E010178B
:1001800040F05BD2E11BE00F5CD254D22E270F5F10
:10019000F6CFEB81EA9357D24DD2E21711F4E1E0AA
:1001A00001C0E0E0CED2249608952497C6D2A09153
:1001B0009200A63171F4E0919300F0E0E093BE006C
:1001C000F093BF00E0919400F0E0E093C000F09362
:1001D000C100B7D227960895B0D2F89421FE05C089
:1001E000552466247724E89421F8772021F02DD235
:1001F00021D2EA3009F020C02AD223D2E45600816D
:100200000A30D0F422D2EA93ADDFE030A9F01FD259
:10021000E01B17D26E2E10E0101758F4E12FEE56A7
:10022000EF936A921A938CDF05D2AF91EC931F5F24
:10023000F3CF652C7724B9DF789483D2A6C02A97B0
:100240007DD210E0E989EA83E889EB83EF85EC83CE
:10025000EE85ED83ED85EE83EC85EF83E0E0E887C6
:10026000E987EA87EB8700E0EA890E1720F4F2D1EC
:100270001E270F5FF9CFF3D1AE0FEA89EC93EFD1D0
:10028000AE0FEC911E27EA89EF5FAC2FAE5FAE0F89
:100290001C93EA89EE5FAC2FAE5FAE0FEAE0EC9301
:1002A00000E0EA89ED5F0E1728F4D4D1EA9321DF4C
:1002B0000F5FF7CF47D2639608950A9303E0E0E01B
:1002C000E01768F4E02FED54EF93CDD132D2AF9127
:1002D000EC93C9D119D2E983FA830150F0CF088198
:1002E00054C00A93689427F800E0053008F042C033
:1002F00027FE06C0BDD1BFD1E03011F4043008F0B4
:1003000019C0E4E0E01BAE2FE981EA1748F4B0D150
:10031000E255EF93E6E2F0E0C895E02DAF9108C01A
:10032000A7D1E255EF93ECE1F0E0C895E02DAF9155
:10033000EC9312C09DD1E255EF93ECE1F0E0FF9316
:10034000EF9396D198D1AF91BF9198D1C895E02DF8
:10035000AF91EC93E89427F8E981E03049F0A98166
:10036000E3E0EA1BE255EF93E081E77FAF91EC9386
:100370000F5FBBCF088122960895E981FA81FA9335
:10038000EA939BDFE881EA93ACDF239608957AD164
:1003900061F4E091BE00F091BF0078D1EDE1F0E0B2
:1003A000C895E02DE093B1000DC075D159F4E091EE
:1003B000C000F091C1006AD1EEE1F0E0C895E02DF7
:1003C000E093B1000895E7B3EC7FE7BBE8B3E360E7
:1003D000E8BB0000B09902C0B19901C015C05FD15F
:1003E00090F4E091C200EF5FE093C200A091C200E0
:1003F000A43111F4689436F852D129F4689437F88E
:10040000E6E9E093C20003C0E0E0E093C200B09BE5
:1004100002C0B19B01C015C046D190F4E091C30069
:10042000EF5FE093C300A091C300A43111F468947E
:1004300040F839D129F4689441F8E6E9E093C30023
:1004400003C0E0E0E093C300B09902C0B19B01C0DB
:1004500015C02DD190F4E091C400EF5FE093C4008B
:10046000A091C400A43111F4689442F820D129F479
:10047000689443F8E6E9E093C40003C0E0E0E09349
:10048000C4000895FFD001F536FE04C0E89436F8A4
:1004900012D116D140FE04C0E89440F80CD119D115
:1004A00037FE04C0E89437F806D10AD141FE04C0F3
:1004B000E89441F800D10DD143FE05C0E89443F81B
:1004C000E1E0E093C50021C0E6D0F9F436FE04C0B7
:1004D000E89436F8F0D006D140FE04C0E89440F825
:1004E000EAD009D137FE04C0E89437F8E4D0FAD056
:1004F00041FE04C0E89441F8DED0FDD043FE05C0C3
:10050000E89443F8E0E0E093C50008950A921A9257
:10051000FA926A937A938A939A93AA93BA93EA93F4
:10052000FA93EFB7EA93FEDDA091AD00AF5FA09321
:10053000AD00E5E0EA1718F4E0E0E093AD00EFEF7E
:10054000E7BBE8BBE1B3EC6FE1BBE2B3EC6FEF9369
:10055000A6E1B0E0E091AD0091D0C895E02DAF915B
:10056000EA23E2BBA091AD00A53031F0E091AD00EF
:10057000E255E081E8BB01C026DFB394E4E1BE169A
:10058000D0F0BB24689422F8C394EAE0CE1618F0A9
:10059000CC24689423F8D394E4E1DE1628F0DD241B
:1005A000689424F8E0E42E26E394E4E6EE1618F0CE
:1005B000EE24689425F8E991EFBFF991E991B9919A
:1005C000A9919991899179916991F99019900990DE
:1005D0001895A8DDACDDE2E0E9BF7894E8EDEAB972
:1005E000E3E3E9B920FE03C0E89420F8F5DD22FE3C
:1005F00002C0E89422F823FE03C0E89423F842DF07
:1006000024FE07C0E89424F8C2DEE091BC00F0911B
:10061000BD0025FE02C0E89425F8A895E3CFFFCFE2
:10062000AA93EA93EFB7EA930895E991EFBFE991AE
:10063000A9910895E456E0810895EB81EA93EEEFE5
:100640000895EA937DCDEFEFFCCF5A92FCCF5A92FA
:10065000EDEF0895AC2FAE5FA00FEC910895EA89FD
:10066000AC2FAE5F0895A981BA81EAE0F0E0089569
:10067000E02FE1500895ED54E0810895F0E0EA0F95
:10068000FB1F0895E091C500E0300895FA93EA93C6
:10069000E1E0EA9372CEA091C500A1300895A09147
:1006A000C200A83C0895A091C300A83C0895A09161
:1006B000C400A83C0895E3E0EA93E6E1EA930895D4
:1006C000E5E0EA93E6E0EA93E0E0EA93EA93EA936E
:1006D000B6CDE7E0EA93E8E0EA93E0E0EA93EA9354
:1006E000EA93ADCDE9E0EA93EAE0EA93E0E0EA9349
:1006F000EA93EA93A4CDEBE0EA93ECE0EA93E0E03E
:10070000EA93EA93EA939BCD0024112490E1AA0F87
:10071000BB1F001C111C0E1A1F0A18F40E0E1F1E00
:1007200001C0A1609A9599F7EA2FFB2FA02DB12D5A
:100730000895EADFEA2FFB2F08952A931A930A936C
:1007400008952A81198108810895099119910895C0
:00000001FF
