:020000040000FA
:10000000830100308A002428F10003088301C20024
:100010008B130B1D1C28BF260B112017A50A2508C2
:100020000A3A031D1C28A501A017A60A26080A3AA9
:10003000031D1C28A60121148B17031383124208E9
:100040008300F10E710E0900223084003E303A2008
:100050002030840022303A2083010730C100FE3076
:10006000C0003E30840040303E208301202F040633
:100070008001840A0406031D37280034F0004A205A
:100080008000840A04087006031900343F28831294
:100090000313C000C11B5528411B5D2841088A007D
:1000A0004008C00A0319C10A82008313411883174C
:0A00B0004008C00A840000080800A0
:100D7E0007308316031381008B160B17D83083129E
:100D8E00810008008301B9000430BA005A30BB005C
:100D9E00BB0BCF2EBA0BCD2EB90BCB2E0800830179
:100DAE003819DB2EBF010800381CE02EBF01BF0A28
:100DBE0008000330BF0008008301BE08031DF02E9B
:100DCE00A01C2019EC2EA01EEE2E201408002010C0
:100DDE000800201008008301A01D022FBE08031971
:100DEE002018022FBE01BE0ABF080319002F3F0BA9
:100DFE00022F1E30A900201ABE01A01120120800D9
:100E0E008301B901F030831687008312B911BE0831
:100E1E000319132F3911142F3915BE080319201C6D
:100E2E001A2FB9101B2FB91407080F383905870070
:100E3E000800BF268B170B178B138B178316860193
:100E4E00831286018714201F322F20135927B727AC
:100E5E007E273C27F226A01F382FA0130727E32654
:100E6E00D626211C2A2F21102A2F830137184A2F0C
:100E7E000330270203184B2FA70A03302702031C47
:100E8E004B2FA0154B2FA7013719572F03302802D0
:100E9E0003180800A80A03302802031820160800B9
:100EAE00A8010800F030831603138505051683127A
:100EBE00B9010508BA00F030BA053908BA073A0880
:100ECE0085000310BB0DBC0D4630BD00BD0B6D2F54
:100EDE00051E732F3B14742F3B10B90A10303902C4
:100EEE00031C602F3B08B7003C08B80008008301C4
:100EFE00B81B8C2F0A302A020318922FAA0A2A082E
:100F0E000A3A031D922FA014922FAA080319922FAA
:100F1E00AA0B922FA010381B9F2F0A302B020318FA
:100F2E00A52FAB0A2B080A3A031DA52F2015A52FB6
:100F3E00AB080319A52FAB0BA52F2011B81AB12F93
:100F4E000A302C0203180800AC0A2C080A3A0319BE
:100F5E00A0160800AC08031DAC0B0800A012080078
:100F6E008301B901831686018312BE080319B901E4
:100F7E00BF08031DE82F3E0BC92F3916A90BE82F0A
:100F8E000230DD2F3E08023A031DD52F1830B9046A
:100F9E00A01CFB2F0A30A9000330DD2F3E08033AB8
:100FAE00031DDF2F3916A90BE82F0430BE00E82FE2
:100FBE003E08043A031DE82F1430B904201DFB2F00
:100FCE00BE013F0BFB2F3E0BF22F3916A90BFB2F49
:100FDE000230BE00FB2F3E08023A031DFB2F1830D5
:100FEE00B904A01CFB2FBE0139088600080000348E
:020FFE000034BD
:02400E007A3DF9
:00000001FF
