:1000000027C0FECFFDCFFCCFFBCFFACFF9CFF8CF83
:10001000F7CFF6CFF5CFF4CFF3CFF2CFF1CFF0CFCC
:1000200024C2EECFEDCFECCFEBCF67C2E9CFE8CF64
:10003000E7CFE6CF000A0F14191E230019000506AA
:10004000070002003E023C00030040023E000000A8
:10005000F894EE27EFBBE5BFF8E1A4B7E4BFF09357
:100060006000E0936000A4BF8DE0A2E0BB27ED93A9
:100070008A95E9F780E092E0A0E0B1E0ED93019786
:10008000E9F7E2E4F0E085919591009761F0A591A0
:10009000B59105901590BF01F00105900D92019763
:1000A000E1F7FB01F0CFE0E0EEBBE0E0EABDE0E02D
:1000B000EBBDEFEFEDBFE2E0EEBFC0E8D1E0E2C3A1
:1000C000E0E0E4BDE3E0E5BDE2EBE6BDE0E0E7BD96
:1000D000E8BD08953CD431F4E3E0F0E0E09385011D
:1000E000F0938601089533D411F0BB2009F009C0C4
:1000F000E0918501F09186013197E0938501F093BD
:1001000086010895772029F4E0E0E0932A0288240C
:100110000CC0A0912A02A53040F4AF5FA0932A0240
:10012000A53018F0E1E08E2ED5DF0895A0912202CF
:10013000B091230212D460F0A0912402B091250264
:100140000CD430F0A0912602B091270206D408F416
:1001500003C0E1E07E2E01C077240895EAB1E76094
:10016000EAB900D401F5BB2039F0E894F699689417
:10017000EBB1E0F9EBB901C05898E9D311F4BB2019
:1001800011F05A9801C05A9A882039F0E894F699EB
:100190006894EBB1E1F9EBB905C0992011F05998D9
:1001A00001C0599A12C0E2D381F4F69B03C0EBB1AF
:1001B000E7600AC0EBB1EF93A0E0B0E0EED4AFEFA0
:1001C000EA27E86FAF91EA23EBB90895EAB1E86155
:1001D000EAB9BDD331F4AA2021F4BB2011F4882060
:1001E00009F005C05C9AE0912902E26004C05C98C5
:1001F000E0912902ED7FE0932902AA2021F4BB209F
:1002000011F4882009F005C05B9AE0912902E860AA
:1002100004C05B98E0912902E77FE09329020895EA
:100220002497D4D4E0912402F0912502A3D330F096
:10023000E0912602F09127029DD308F402C000E06D
:1002400012C0E0912402F0912502FF93EF93E09118
:100250002602F0912702AF91BF91AE17BF0710F0B1
:1002600001E001C002E0E0912402F091250289D36F
:1002700030F0E0912602F091270283D308F402C007
:1002800010E012C0E0912402F0912502FF93EF9359
:10029000E0912602F0912702AF91BF91EA17FB0788
:1002A00010F011E001C012E073D3FF93EF93E4E389
:1002B000F0E0FF93EF93A0E0B0E06FD4AF91BF9177
:1002C000F0E0EA0FFB1FE491FF2766277727AF9145
:1002D000BF918827992704D4DF01CB01E4E6F0E041
:1002E00060E070E03BD4EA83FB836C837D8350D372
:1002F000FF93EF93E12FA2E2B2E054D357D3AF9133
:10030000BF91AE1BBF0BEA81FB81AE17BF0734F074
:10031000E1E09E2EE0912902E16004C09924E09181
:100320002902EE7FE093290254D42696089542D301
:1003300031F0A7E8B1E042D33DD309F443D3E091D3
:100340008801E03069F0A8E8B1E038D3E091880195
:10035000E03031F4E0E0F0E0E0932402F093250295
:10036000E0918901E03069F0A9E8B1E027D3E0919C
:100370008901E03031F4E0E0F0E0E0932602F09310
:1003800027020895992051F4E0E0E0932802AA247E
:10039000E0912902EB7FE093290211C0A09128028D
:1003A000A53068F4AF5FA0932802A53040F0E1E0EB
:1003B000AE2EE0912902E460E09329028BDE0895DD
:1003C0003C983D98449A459A34990BC0A09183017A
:1003D000AA3030F4AF5FA0938301AA3008F0F79AF7
:1003E00004C0E0E0E0938301F79835990CC0A09138
:1003F0008201A83C38F4AF5FA0938201A83C10F0C2
:10040000E1E06E2E04C0E0E0E093820166240895EE
:10041000A9D279F4662019F0E1E0E0938401F79B1A
:1004200007C095D229F0E0E0E0938501E0938601D2
:1004300019C09CD2B9F4F79B10C0A0E0B0E0ADD3D6
:10044000E63038F4A0E0B0E0A8D3EF5FB1D3E150DC
:1004500004C0E1E0A0E0B0E0ABD3662019F0E0E03A
:10046000E0938401F798662408950A921A92FA920A
:100470006A937A938A939A93AA93BA93EA93FA9394
:10048000EFB7EA931DDEE894F09B6894EEB3E0F9D1
:10049000EEBBF09B24C0F19AC394EAE0CE1640F084
:1004A000CC24F29AE894F69B6894EEB3E6F9EEBB9E
:1004B000D394E4E1DE1610F0DD24F39AE394E2E352
:1004C000EE1610F0EE24F49AA0918001AF5FA09395
:1004D0008001A43620F0E0E0E0938001F59AE991F4
:1004E000EFBFF991E991B991A99199918991799188
:1004F0006991F9901990099018950A921A929A9315
:10050000AA93BA93EA93FA93EFB7EA93E09178004B
:10051000F0917900E0932C02F0932D02A091430218
:10052000AF5FA0934302E2E0EA1718F4E0E0E09343
:100530004302E0914302E05CE0937C00E0917A00AA
:10054000E064E0937A00A0914302A13009F06FC00B
:1005500040D210F443D209F004C0E1E0E0932E024F
:1005600041D246D210F43AD209F403C0E0E0E0935D
:100570002E0246D2A8F4E0912C02F0912D02A09117
:100580003502B0913602EA0FFB1FE0933502F0937B
:100590003602E1E0E0933102EAE0E093870147C0F0
:1005A0002FD220F0E0913102E03009F440C0E0E0C9
:1005B000E0933102E0913B022CD2EA0FFB1FFF9344
:1005C000EF93A0913502B091360226D2AF91BF9140
:1005D000E1D2E0E0E0933502E0933602A0913B02E5
:1005E000AF5FA0933B02A93110F11AD2E0933B0216
:1005F000E9D119D21BD298F4A2E2B2E0BF93AF9333
:10060000C5D2FF93EF93E88104D2D0D1AF91BF91CF
:10061000EA0FFB1FAF91BF91BDD20BD2EBCFA2E28D
:10062000B2E0BF93AF9309D2AF91BF910CD2A0912A
:100630004302A23009F09DC0CCD110F407D209F0DA
:100640002AC0E1E0E0932F02CDD1E0913402E093A3
:100650004002A0913402A23081F4FCD16CF4E0910C
:100660003E02F0913F023196E0933E02F0933F024A
:10067000F1D114F0E1E0BE2E0EC0F4D161F0E091B2
:100680003E02F0913F023197E0933E02F0933F0229
:10069000E9D109F4BB24ACD110F4D8D109F403C0DA
:1006A000E0E0E0932F02ACD1A8F4E0912C02F091AD
:1006B0002D02A0913702B0913802EA0FFB1FE093A0
:1006C0003702F0933802EAE0E0938801E1E0E0933A
:1006D00032024FC0CDD120F0E0913202E03009F477
:1006E00048C0E0E0E0933202ACEBB1E0E0913C02C4
:1006F00059D1EA0FFB1FFF93EF93A0913702B091FE
:1007000038028AD1AF91BF9145D2E0E0E093370241
:10071000E0933802A0913C02AF5FA0933C02A93164
:1007200040F17ED1E0933C02E0E0F0E0E09324026F
:10073000F093250278D17AD1A0F4A4E2B2E0BF937D
:10074000AF9324D2FF93EF93ACEBB1E09AD12ED1CB
:10075000AF91BF91EA0FFB1FAF91BF911BD269D13F
:10076000EACFA4E2B2E0BF93AF9367D1AF91BF915C
:100770006AD1E0914302E03009F079C02AD110F447
:1007800082D109F006C0E1E0E0933002E0E0E093BE
:1007900034022ED110F477D109F403C0E0E0E093E5
:1007A000300266D1A8F4E0912C02F0912D02A091C4
:1007B0003902B0913A02EA0FFB1FE0933902F0933D
:1007C0003A02EAE0E0938901E1E0E09333024FC0AE
:1007D0004FD120F0E0913302E03009F448C0E0E06E
:1007E000E0933302AEEEB1E0E0913D02DBD0EA0FE0
:1007F000FB1FFF93EF93A0913902B0913A020CD105
:10080000AF91BF91C7D1E0E0E0933902E0933A02A3
:10081000A0913D02AF5FA0933D02A93140F100D10C
:10082000E0933D02E0E0F0E0E0932602F09327023F
:10083000FAD0FCD0A0F4A6E2B2E0BF93AF93A6D169
:10084000FF93EF93AEEEB1E01CD1B0D0AF91BF916A
:10085000EA0FFB1FAF91BF919DD1EBD0EACFA6E28B
:10086000B2E0BF93AF93E9D0AF91BF91ECD0789451
:10087000E991EFBFF991E991B991A99199911990F5
:1008800009901895E0E8E0936100E3E0E0936100EF
:10089000E0E0E5B9E4B9E8B9E7B9EBB9EAB910DCE9
:1008A000E0E0E0938000E0938100E0938500E09336
:1008B0008400E0938700E0938600E0938900E09352
:1008C0008800E0938B00E0938A00E093B600E09309
:1008D000B000E093B100E093B200E093B300E09386
:1008E000B400E0936900EDBBE0936800E1E0E093C1
:1008F0006E00E0E0E0936F00E0937000ECECE093BA
:100900007A00E0E0E0937B00E5DB7894F19B04C0A3
:10091000F19856DD7DDD0BDDF29B03C0F2981EDC05
:1009200055DCF39B08C0F3987BDC00DCA0E0B0E072
:1009300034D1E0932B02F49B01C0F498F59B04C0E2
:10094000F598D1DB1FDDDEDBA895E0CFFFCFE0918E
:100950008501F091860130970895E4E6F0E0EA170A
:10096000FB070895E0918401E0300895A09184018F
:10097000A1300895A0912202B0912302AE17BF07C3
:100980000895A0912202B0912302EA17FB0708956F
:10099000E02FA2E2B2E0F0E0EE0FFF1FAE0FBF1FAC
:1009A000F5D00895F0E0EE0FFF1F0895AE0FBF1FC2
:1009B000EDD00895E0918701E0300895EC91E15089
:1009C000EC930895E0E0F0E0E0932202F09323023C
:1009D0000895A0912C02B0912D02BFCFE0912E027C
:1009E000E0300895E0913402EF5FE093340208951F
:1009F000A0912C02B0912D02A436E0E0BE0708952C
:100A0000A0912C02B0912D02EAE0F0E0EA17FB077A
:100A10000895AAE8B1E0C6CFEAE0F0E066D0089514
:100A20002197E0E00895E0E0E8830895A881A931E6
:100A30000895E881EF5FE8830895A8D0DF01E9E138
:100A4000F0E053D00895A6D021960895E0912F02AA
:100A5000E0300895A0913E02B0913F02A233E0E061
:100A6000BE070895E0913E02F0913F02309708954D
:100A7000A0912C02B0912D02EEE1F0E0EA17FB0705
:100A80000895E8818FCFE0913002E0300895E0953D
:100A9000F09560957095EF5FFF4F6F4F7F4F089512
:100AA0007A9F702D6B9F700DF89F700DE99F700DF0
:100AB0006A9F602D710DFB9F600D711DE89F600D99
:100AC000711D8827FA9FF02D610D781FEB9FF00DA7
:100AD000611D781FEA9FE02DF10D681F781F0895B2
:100AE00042D0DEDF0EF4D3DF08950024112490E11C
:100AF000AA0FBB1F001C111C0E1A1F0A18F40E0EA1
:100B00001F1E01C0A1609A9599F7FD01D0010895BB
:100B10003F934F935F93002411243327442750E2DF
:100B2000AA0FBB1F881F991F001C111C331F441FD5
:100B30000E1A1F0A360B470B28F40E0E1F1E361F07
:100B4000471F01C0A1605A9559F7FD01BC01D001B2
:100B5000832F942F5F914F913F91089504D0D8DF58
:100B60000EF495DF0895E89477FF02C090DF689453
:100B700097FF0BC00024A095B09580959095119695
:100B8000801D901D00F8039400FA0895ED91FC91EA
:100B900011970895ED93FC930895F999FECFFF9373
:100BA000FFB7F894A1BDF89AE0B5FFBFFF91089593
:100BB000F999FECF9FB7F894A1BDF89A80B5E817D0
:100BC00019F0E0BDFA9AF99A9FBF08951A930A9313
:080BD0000895198108810895C0
:00000001FF
