:060000000C943A000C9480
:1000060000000C9400000C9400000C9400000C946A
:1000160000000C9400000C9400000C9400000C945A
:1000260028070C9400000C9400000C9400000C941B
:1000360000000C9400000C9400000C9400000C943A
:1000460000000C9400000C9400000C940000BFDF2C
:10005600EFF77F00C0F9A4B0999282F88090FF0074
:100066005555555555000500600166000000F89489
:10007600EE27ECBBF1E0FBBFEBBFE5BFF8E1F1BD5E
:10008600E1BD8DE0A2E0BB27ED938A95E9F780E01C
:1000960094E0A0E6ED930197E9F7ECE6F0E08591B0
:1000A6009591009761F0A591B59105901590BF01C6
:1000B600F00105900D920197E1F7FB01F0CFEFE516
:1000C600EDBFE4E0EEBFC0E6D1E00C9463070E940A
:1000D600B208101711F4201709F001C019C0101743
:1000E60011F4201709F402C0202F12C0101711F0C6
:1000F600201709F002C0102F0BC0101711F021179E
:1001060009F002C0012F04C0101711F0201701F4E6
:10011600C02E0E94B708D7C3DD2059F4E2E0EC15E3
:1001260039F432FE03C0689431F802C0E89431F81D
:1001360002C0E89431F808950E94B307EBBBE9B317
:10014600E0936F01E87081F4A0917501AA3058F42C
:10015600E0917501EF5FE0937501A0917501AA30FA
:1001660011F4689432F80BC0E0917501E03039F073
:10017600E150E0937501E03011F4E89432F8E09133
:100186006F01E07281F4A0917601AA3058F4E091F3
:100196007601EF5FE0937601A0917601AA3011F423
:1001A600689433F80BC0E0917601E03039F0E15005
:1001B600E0937601E03011F4E89433F8E0916F01B2
:1001C600E07881F4A0917701AA3058F4E0917701A4
:1001D600EF5FE0937701A0917701AA3011F468945C
:1001E60034F80BC0E0917701E03039F0E150E0934C
:1001F6007701E03011F4E89434F8E0916F01E07192
:1002060081F4A0917801AA3058F4E0917801EF5F6B
:10021600E0937801A0917801AA3011F4689435F83A
:100226000BC0E0917801E03039F0E150E0937801BD
:10023600E03011F4E89435F8E0916F01E27081F452
:10024600A0917901AA3058F4E0917901EF5FE0932B
:100256007901A0917901AA3011F4689436F80BC09F
:10026600E0917901E03039F0E150E0937901E03036
:1002760011F4E89436F8E0916F01E170A9F4A091C9
:100286007A01AA3080F4E0917A01EF5FE0937A0177
:10029600A0917A01AA3039F4689437F8A0918301C5
:1002A600E1E00E9454080BC0E0917A01E03039F099
:1002B600E150E0937A01E03011F4E89437F8E091E8
:1002C6006F01E47081F4A0917B01AA3058F4E091AB
:1002D6007B01EF5FE0937B01A0917B01AA3011F4D3
:1002E600689440F80BC0E0917B01E03039F0E150B2
:1002F600E0937B01E03011F4E89440F80895A09172
:100306008301A13039F4E1E0E0938001E0E0E0937D
:10031600830104C0A0918301A23001F40895A09145
:100326008001A13079F4E1E0E0937C01A1E0B0E046
:100336000E948A080E94B707E89451F8E0E0E0932B
:10034600800109C0A0918001A23029F4E0E0E09389
:100356007C01E0938001E0917C01E03029F4E8948F
:1003660046F8E89447F83AC0A0917C01A13089F498
:10037600689446F8E89447F80E94C00749F4E2E01A
:10038600E0937C01E4E1F0E0E0938401F0938501E1
:1003960025C0A0917C01A23089F4E89446F8E8943F
:1003A60047F80E94C00749F4E3E0E0937C01A3E02C
:1003B600B0E00E948A080E94B70710C0A0917C0195
:1003C600A33061F4E89446F8689447F80E94C007A1
:1003D60029F4E0E0E0937C01689451F80895A09137
:1003E6008101A13071F4E1E0E0937D01E0E0E0936A
:1003F6008601E0938701E89452F8E0E0E0938101FA
:1004060009C0A0918101A23029F4E0E0E0937D01CA
:10041600E0938101E0917D01E03029F4E89444F80D
:10042600E89445F839C0A0917D01A13081F4E894A3
:1004360044F8E89445F835FE09C0E2E0E0937D0112
:10044600E4E1F0E0E0938601F093870125C0A091F6
:100456007D01A23081F4689444F8E89445F80E943E
:10046600CB07E0918601F0918701309719F4E3E01C
:10047600E0937D0111C0A0917D01A33069F46894D9
:1004860044F8689445F80E94CB0733FE05C0E0E0C7
:10049600E0937D01689452F80895A0918201A130FD
:1004A60071F4E1E0E0937E01E0E0E0938801E093FF
:1004B6008901E89453F8E0E0E093820109C0A09135
:1004C6008201A23029F4E0E0E0937E01E09382010C
:1004D600E0917E01E03019F4E89443F819C0A09148
:1004E6007E01A13041F4689443F836FC03C0E2E093
:1004F600E0937E010DC0A0917E01A23049F468947C
:1005060043F836FE05C0E0E0E0937E01689453F8B8
:1005160008950A9300E0EFEFE7BB41FE01C00064D7
:1005260042FE01C0006843FE01C0006244FE01C0F5
:10053600006145FE01C0086046FE01C0046047FE3A
:1005460001C002600E94D50730C10A9300E0EFEFB8
:10055600E7BBDD2009F427C1E1E0EC1511F00C94AE
:100566000D03ED1521F4006432FE1DC152C0E2E018
:10057600ED1521F4006E0E94D9074BC0E3E1ED159D
:1005860039F4006F0E94E20711F40E94ED0741C0A2
:10059600E3E0ED1539F4006F0E94E20711F4E4E0A0
:1005A600DE2E37C0E4E0ED1531F4086F33FEFBC0F4
:1005B6000E94F6072EC0E5E0ED1539F4006F0E94A3
:1005C600E20711F4E6E0DE2E24C0E6E0ED1521F4A4
:1005D600026F0E94FF071DC0E7E0ED1539F4006FBA
:1005E6000E94E20711F4E8E0DE2E13C0E8E0ED1504
:1005F60041F4006D0E94E20719F4E9E00E94080840
:1006060008C0E9E0ED1529F400640E94E20709F448
:10061600DD24C9C0E2E0EC1511F00C945A03E1E0C8
:10062600ED1521F4006432FEBEC040C0E2E0ED15D7
:1006360021F4006E0E94D90739C0E3E1ED1539F4C3
:10064600006F0E94E20711F40E94ED072FC0E3E05D
:10065600ED1539F4006F0E94E20711F4E4E0DE2E96
:1006660025C0E4E0ED1531F4086F33FE9CC00E940E
:10067600F6071CC0E5E0ED1539F4006F0E94E207AD
:1006860011F4E6E0DE2E12C0E6E0ED1539F4006D59
:100696000E94E20711F40E94FF0708C0E7E0ED158B
:1006A60029F400640E94E20709F4DD247CC0E3E03B
:1006B600EC15E1F5E1E0ED1521F4006432FE73C0BE
:1006C60034C0E2E0ED1551F4006EE2E3F0E0E093B1
:1006D6007301F0937401E3E0DE2E27C0E3E0ED152D
:1006E60039F4006F0E94E20711F4E4E0DE2E1DC02B
:1006F600E4E0ED1539F40A6F0E94E20711F4E5E033
:10070600DE2E13C0E5E0ED1541F40A6C0E94E20707
:1007160019F4E6E00E94080808C0E6E0ED1529F4A1
:1007260000640E94E20709F4DD243DC0E4E0EC1514
:10073600D1F5E1E0ED1521F4006432FE34C033C09A
:10074600E2E0ED1521F4006E0E94ED072CC0E3E017
:10075600ED1539F4006F0E94E20711F4E4E0DE2E95
:1007660022C0E4E0ED1569F4006D0E94E20741F451
:10077600E5E0DE2EEEE1F0E0E0937301F093740124
:1007860012C0E5E0ED1539F400650E94E20711F4A8
:10079600E6E0DE2E08C0E6E0ED1529F400610E94D1
:1007A600E20709F4DD240E94D507099108950A930A
:1007B60003E0E0E0E017C8F4E02FF0E0EB59FE4F6D
:1007C600FF93EF93A981BA81EAE0F0E00E947908ED
:1007D600AF91BF91EC93A981BA81EAE0F0E00E9463
:1007E6006608E983FA830150E4CF08816CC00A9356
:1007F600689423F800E0053010F00C94590423FEA9
:1008060009C00E941008EB59FE4FE081E03011F458
:10081600043008F01FC0E4E0E01BAE2FE981EA17C0
:1008260060F40E941008E05AFE4FFF93EF93E4E64F
:10083600F0E0E491AF91BF910BC00E941008E05A1E
:10084600FE4FFF93EF93EAE5F0E0E491AF91BF919D
:10085600EC931AC00E941008E05AFE4FFF93EF93E4
:10086600EAE5F0E0FF93EF930E941008EB59FE4F84
:10087600E081AF91BF91F0E0EA0FFB1FE491AF91E9
:10088600BF91EC93E89423F8E981E03069F0A981FF
:10089600E3E0EA1BF0E0E05AFE4FFF93EF93E081BE
:1008A600EF77AF91BF91EC930F5FA5CF08812296AA
:1008B6000895E981FA81FA93EA930E94DA03E881BE
:1008C600EA930E94FA0323960895EE20D1F5A5E057
:1008D600B0E00E948A08309799F1A5E0B0E00E9446
:1008E6008A08E130A0E0FA0729F4E0917E010E942F
:1008F600140826C0A5E0B0E00E948A08E230A0E015
:10090600FA0729F4E0917D010E94140819C0A5E0B8
:10091600B0E00E948A08E330A0E0FA0729F4E091EB
:100926007C010E9414080CC0A5E0B0E00E948A0871
:10093600E430A0E0FA0721F4E0917F010E94140858
:100946003BC0E2E0EE15C1F5E0916E01E03059F4EE
:10095600A5E0B0E00E948A08FA93EA93E0E0EA9301
:100966000E945C0415C0A0916E01A13039F4A1E08B
:10097600B0E00E948A080E941B080AC0A0916E017E
:10098600A23031F4A3E0B0E00E948A080E941B085E
:1009960030FE0DC0EAE5F0E0FF93EF93E0916E01C3
:1009A600EF5FAF91BF91F0E0EA0FFB1F02C0E4E6F4
:1009B600F0E0E491E09360010895E4E6F0E0E4916C
:1009C600E0936401E4E6F1E0FF93EF93E081EF7DCD
:1009D600AF91BF91EC93DD2049F0E4E6F1E0FF939F
:1009E600EF93E081EF7BAF91BF9108C0E4E6F1E0C1
:1009F600FF93EF93E081E064AF91BF91EC93DD202C
:100A0600A9F431FE09C0E4E6F1E0FF93EF93E0813B
:100A1600EE7FAF91BF9108C0E4E6F1E0FF93EF935C
:100A2600E081E160AF91BF91EC9309C0E4E6F1E0AB
:100A3600FF93EF93E081E160AF91BF91EC93A0E06B
:100A4600B0E00E948E08E53549F4E4E6F1E0FF9354
:100A5600EF93E081EF77AF91BF9108C0E4E6F1E054
:100A6600FF93EF93E081E068AF91BF91EC93E09143
:100A76007E01E03049F0E4E6F1E0FF93EF93E08198
:100A8600EF7EAF91BF91EC93E0917D01E03049F0AC
:100A9600E4E6F1E0FF93EF93E081EB7FAF91BF9146
:100AA600EC93E0917C01E03049F0E4E6F1E0FF935D
:100AB600EF93E081E77FAF91BF91EC930895E1B3A7
:100AC600E7700E9421080E9426080000000000002E
:100AD6000000E3B3EA66E0936901A0916901AF3FC4
:100AE60011F0B8D209F1E89426F8A0916B01A5306F
:100AF60020F4A0916C01A03011F024FE01C004C0C6
:100B0600689425F8B0906A01ABD218F0689425F87D
:100B1600ADD2E89424F8E4E1E0936D01E0E0E093DF
:100B26006B01E0936C012BC095D249F5E0916B0106
:100B3600EF5FE0936B01A0916B01A53000F1E0E05F
:100B4600E0936B01E0916C01EF5FE0936C0188D25A
:100B5600B0F08CD2E0E0E0936C01689425F86894DC
:100B660024F826FE0CC0E0916D01E695E0936D0138
:100B7600A0916D01E2E0EA1710F0E0936D01E091BB
:100B86006901E0936A015FD2089537FE35C0A5E09A
:100B9600B0E00E948A08309779F1A5E0B0E00E94A3
:100BA6008A08E130A0E0FA0721F4E1E0E09382014F
:100BB60023C0A5E0B0E00E948A08E230A0E0FA0770
:100BC60021F4E1E0E093810117C0A5E0B0E00E94C6
:100BD6008A08E330A0E0FA0721F4E1E0E09380011F
:100BE6000BC0A5E0B0E00E948A08E430A0E0FA0756
:100BF60019F4E1E0E0938201E89437F840FE09C079
:100C0600E2E0E0938201E0938101E0938001E093CA
:100C16008301E89440F825FEF1C0EDEEEB1569F48A
:100C2600A0E0B0E00E948E08E53511F0E5E501C0D0
:100C3600EAEAA0E0B0E00E94A208EE2049F4E9EF5B
:100C4600EB1529F4E2E0EE2EE0E0E0936E01D3C06E
:100C5600E2E0EE1511F00C94FE06E9EFEB1529F42F
:100C6600EE24E0E0E0936E01C6C0EBEFEB1569F40D
:100C7600E0916E01EF5FE0936E01A0916E01A530E9
:100C860019F4E0E0E0936E01B6C0E0916E01E03049
:100C9600A9F5EFE7EB1549F4A5E0B0E00E948A0854
:100CA60031960E949A0831970BC0EEEFEB1541F48E
:100CB600A5E0B0E00E948A0831970E949A08319612
:100CC600A5E0B0E00E948A08DF01E5E0F0E0EA175F
:100CD600FB0734F4E0E0F0E0A5E0B0E00E949A08FB
:100CE600A5E0B0E00E948A08DF01109734F4E5E041
:100CF600F0E0A5E0B0E00E949A087DC0A0916E01E8
:100D0600A130D9F5EFE7EB1519F0EDE7EB15B9F4DE
:100D1600689426F8A1E0B0E00E948A0831960E9405
:100D26009A083197A1E0B0E00E948A08A4D134F471
:100D3600E4E8F3E0A1E0B0E00E949A081DC0EEEFFF
:100D4600EB1519F0ECEFEB15B9F4689426F8A1E071
:100D5600B0E00E948A0831970E949A083196A1E075
:100D6600B0E00E948A08DF01109734F4E0E0F0E07A
:100D7600A1E0B0E00E949A083EC0A0916E01A230A8
:100D8600D1F5EFE7EB1519F0EDE7EB15B9F468943B
:100D960026F8A3E0B0E00E948A0831960E949A08DD
:100DA6003197A3E0B0E00E948A0865D134F4E4E804
:100DB600F3E0A3E0B0E00E949A081DC0EEEFEB1549
:100DC60019F0ECEFEB15B9F4689426F8A3E0B0E05F
:100DD6000E948A0831970E949A083196A3E0B0E0F3
:100DE6000E948A08DF01109734F4E0E0F0E0A1E009
:100DF600B0E00E949A08E9EEEB1501F4E89425F8B4
:100E06000895A394E6E0AE1608F0AA24E5E0AE162F
:100E1600C8F4EFEFE4BBE5BBE1B3E86F0FD1E2B393
:100E2600EF93A4E5B0E0EA2DF0E0EA0FFB1FE491B2
:100E3600AF91EA23E2BBEA2DF0E0E05AFE4FE081F3
:100E4600E5BB02C00E94620508950A921A92FA92C0
:100E56006A937A938A939A93AA93BA93EA93FA93A4
:100E6600EFB7EA930ED1689420F8CBDF6394E6E0FF
:100E76006E1618F06624689421F87394ECE37E16D7
:100E860088F07724689422F88394E2E08E1618F0AE
:100E96008824E1E03E269394E5E09E1618F0992416
:100EA600E0E82E26E991EFBFF991E991B991A99170
:100EB6009991899179916991F9901990099018956C
:100EC600EFEFEBBB4DD0E5D0E0E0E5BBE4BBE2BB2A
:100ED600E1BBD7D0E0E0EFBDEEBDEDBDECBDE7BDBB
:100EE600E6BDEBBDEABDE9BDE8BDE2BDE5BDE4BDDD
:100EF600E3BDE5BFE4BFE1E0E9BFE0E8E8B9E0E073
:100F0600E0BF7894EFEFC5D0EE240E946A000E94FD
:100F160068040E94E00420FE04C0E89420F80E94C1
:100F26009F0021FE11C0E89421F82FDE0E9468047C
:100F36000E94A8020E9482010E9492010E94F20170
:100F46000E9450020E948C0222FE08C0E89422F8F9
:100F56000E946A000E948F000E94E004DCCFFFCF4F
:100F6600E0E0EABBEFEF0895AAE0B0E00E94610876
:100F7600E0938401F09385010895E0918401F09156
:100F860085013197E0938401F093850130970895A8
:100F9600E0918601F09187013197E0938601F09305
:100FA60087010895E02FE095E8BB0895E3E1DE2E82
:100FB600E8E2F0E0E0937301F09374010895E091A4
:100FC6007301F09174013197E0937301F09374010A
:100FD60030970895E3E0DE2EE2E3F0E0E09373015C
:100FE600F09374010895E5E0DE2EE4E1F0E0E0938D
:100FF6007301F09374010895E7E0DE2EE4E1F0E07A
:10100600E0937301F09374010895DE2EE4E1F0E0BD
:10101600E0937301F09374010895E02FE150F0E03E
:101026000895F0E0FA93EA93E0E0EA930C945C0406
:10103600FA93EA93E1E0EA930C945C04E1BBE2B331
:10104600E86FE2BB0895E5B3E569E5BBE4B3EA768C
:10105600E4BB0895E0916A01A0916901EA17089539
:10106600E0916D01A0916C01AE170895E0916A01BF
:10107600ED7FBE2E0895DF01E4E8F3E0EA17FB07F3
:101086000895E2E0E3BFE0E3FFEFE2BFE0E0ECBF9C
:101096000895E8BBEFEFE7BB0895E095F09531962C
:1010A6000895EA17E1E009F0EE270895FA9FF02D7A
:1010B600EB9FF00DEA9FE02DF10D08951AD0F6DFB3
:1010C6000EF4EBDF08950024112490E1AA0FBB1F54
:1010D600001C111C0E1A1F0A18F40E0E1F1E01C04A
:1010E600A1609A9599F7FD01D0010895ECDFFD0105
:1010F6000895E894F7FF02C0D0DF6894B7FF06C0F2
:10110600A095B095119600F8039400FA08951196EB
:1011160002D0FE2F1197E199FECFFF93FFB7F89407
:10112600AEBBBFBBE09AEDB3FFBFFF91089507D0FA
:101136001196EF93EF2F03D0EF9111970895E19950
:10114600FECF9FB7F894AEBBBFBBE09A8DB3E8174E
:1011560019F0EDBBE29AE19A9FBF08953A932A935C
:101166001A930A9308953B812A811981088108956B
:00000001FF
