:0A0000000C943A000C9400000C94DC
:10000A0000000C9400000C9400000C9400000C9466
:10001A0000000C9400000C9400000C9457080C94F7
:10002A0000000C9400000C9400000C9400000C9446
:10003A0000000C9400000C9400000C9400000C9436
:10004A0000000C9400000C940000BFDFEFF77F0063
:10005A00C0F9A4B0999282F88090FF005555555581
:10006A0055000500600166000000F894EE27ECBB1D
:10007A00F1E0FBBFEBBFE5BFF8E1F1BDE1BD8DE00B
:10008A00A2E0BB27ED938A95E9F780E094E0A0E629
:10009A00ED930197E9F7ECE6F0E0859195910097E9
:1000AA0061F0A591B59105901590BF01F0010590F9
:1000BA000D920197E1F7FB01F0CFEFE5EDBFE4E028
:1000CA00EEBFC0E6D1E00C9492080E94F409101722
:1000DA0011F4201709F001C019C0101711F42017E4
:1000EA0009F402C0202F12C0101711F0201709F0CE
:1000FA0002C0102F0BC0101711F0211709F002C00F
:10010A00012F04C0101711F0201701F4C02E0E940D
:10011A00F90995C4DD2059F4E2E0EC1539F432FE10
:10012A0003C0689431F802C0E89431F802C0E89438
:10013A0031F808950E94E208EBBBE9B3E0936F013E
:10014A00E87081F4A0917501AA3058F4E091750124
:10015A00EF5FE0937501A0917501AA3011F46894DC
:10016A0032F80BC0E0917501E03039F0E150E093CC
:10017A007501E03011F4E89432F8E0916F01E07211
:10018A0081F4A0917601AA3058F4E0917601EF5FEC
:10019A00E0937601A0917601AA3011F4689433F8BD
:1001AA000BC0E0917601E03039F0E150E09376013E
:1001BA00E03011F4E89433F8E0916F01E07881F4CB
:1001CA00A0917701AA3058F4E0917701EF5FE093AC
:1001DA007701A0917701AA3011F4689434F80BC022
:1001EA00E0917701E03039F0E150E0937701E030B7
:1001FA0011F4E89434F8E0916F01E07181F4A09170
:10020A007801AA3058F4E0917801EF5FE093780121
:10021A00A0917801AA3011F4689435F80BC0E091E6
:10022A007801E03039F0E150E0937801E03011F4E0
:10023A00E89435F8E0916F01E27081F4A0917901B8
:10024A00A53058F4E0917901EF5FE0937901A0912C
:10025A007901A53011F4689436F80BC0E091790160
:10026A00E03039F0E150E0937901E03011F4E8949C
:10027A0036F8E0916F01E170A9F4A0917A01AA30F1
:10028A0080F4E0917A01EF5FE0937A01A0917A011C
:10029A00AA3039F4689437F8A0918301E1E00E940A
:1002AA0096090BC0E0917A01E03039F0E150E09311
:1002BA007A01E03011F4E89437F8E0916F01E470C4
:1002CA0081F4A0917B01AA3058F4E0917B01EF5FA1
:1002DA00E0937B01A0917B01AA3011F4689440F865
:1002EA000BC0E0917B01E03039F0E150E0937B01F3
:1002FA00E03011F4E89440F80895A0918301A13008
:10030A00D1F50E94E608E0938301A5E0B0E00E94DF
:10031A00CC09E130A0E0FA0721F4E1E0E0938201A0
:10032A0029C0A5E0B0E00E94CC09E230A0E0FA07BB
:10033A0021F4E1E0E09381011DC0A5E0B0E00E9454
:10034A00CC09E330A0E0FA0721F4E1E0E093800170
:10035A0011C0A5E0B0E00E94CC09E430A0E0FA07A1
:10036A0031F0A5E0B0E00E94CC09309719F4E1E041
:10037A000E94EF0808C0A0918301A23021F40E94D4
:10038A00E608E0937F01E0917F01E03029F4E894E8
:10039A0041F8E89442F86BC0A0917F01A13059F46A
:1003AA00689441F8E89442F80E94F80819F4E2E0E7
:1003BA00E0937F015CC0A0917F01A23051F4689460
:1003CA0041F8689442F832FE03C0E3E00E94EF0865
:1003DA004EC0A0917F01A33071F5E89441F868946A
:1003EA0042F80E94F80831F5A5E0B0E00E94CC0975
:1003FA00E430A0E0FA0771F4A0E0B0E00E94D0096E
:10040A00E53521F4E1E0E093830103C0E0E0E09305
:10041A007F0110C0A5E0B0E00E94CC09309751F4EA
:10042A00E1E0E0938201E0938101E0938001E4E05E
:10043A00E0937F011CC0A0917F01A430C1F4E8942D
:10044A0041F8E89442F853FE04C052FE02C051FC3F
:10045A0001C00DC0A0E0B0E00E94D009E53521F44A
:10046A00E1E0E093830103C0E0E0E0937F010895B7
:10047A00A0918001A13079F4E1E0E0937C01A3E04E
:10048A00B0E00E94CC090E940309E89451F8E0E028
:10049A00E093800109C0A0918001A23029F4E0E034
:1004AA00E0937C01E0938001E0917C01E03029F443
:1004BA00E89446F8E89447F83AC0A0917C01A13044
:1004CA0089F4689446F8E89447F80E940C0949F4BC
:1004DA00E2E0E0937C01A7E0B0E00E94CC090E9430
:1004EA00030925C0A0917C01A23089F4E89446F85A
:1004FA00E89447F80E940C0949F4E3E0E0937C0190
:10050A00A9E0B0E00E94CC090E94030910C0A091A2
:10051A007C01A33061F4E89446F8689447F80E9495
:10052A000C0929F4E0E0E0937C01689451F80895FD
:10053A00A0918101A13071F4E1E0E0937D01E0E056
:10054A00E0938601E0938701E89452F8E0E0E093B3
:10055A00810109C0A0918101A23029F4E0E0E09371
:10056A007D01E0938101E0917D01E03029F4E89476
:10057A0044F8E89445F840C0A0917D01A130B1F457
:10058A00E89444F8E89445F835FE0FC0E2E0E093B9
:10059A007D01A1E0B0E00E94CC09AAE0B0E00E948F
:1005AA00A309E0938601F093870126C0A0917D01FB
:1005BA00A23099F4689444F8E89445F8E0918601E9
:1005CA00F09187013197E0938601F0938701309784
:1005DA0019F4E3E0E0937D010FC0A0917D01A330FF
:1005EA0059F4689444F8689445F833FE05C0E0E08D
:1005FA00E0937D01689452F80895A0918201A13098
:10060A0071F4E1E0E0937E01E0E0E0938801E09399
:10061A008901E89453F8E0E0E093820109C0A091CF
:10062A008201A23029F4E0E0E0937E01E0938201A6
:10063A00E0917E01E03019F4E89443F825C0A091D6
:10064A007E01A13041F4E89443F834FE03C0E2E0AD
:10065A00E0937E0119C0A0917E01A23041F4689412
:10066A0043F836FC03C0E3E0E0937E010DC0A0919D
:10067A007E01A33049F4689443F836FE05C0E0E0F1
:10068A00E0937E01689453F808950A9300E0EFEF2F
:10069A00E7BB41FE01C0006442FE01C0006843FEA0
:1006AA0001C0006244FE01C0006145FE01C008604D
:1006BA0046FE01C0046047FE01C002600E9417099D
:1006CA0030C10A9300E0EFEFE7BBDD2009F427C150
:1006DA00E1E0EC1511F00C94CB03ED1521F4006464
:1006EA0032FE1DC152C0E2E0ED1521F4006E0E94F7
:1006FA001B094BC0E3E1ED1539F4006F0E94240990
:10070A0011F40E942F0941C0E3E0ED1539F4006F9E
:10071A000E94240911F4E4E0DE2E37C0E4E0ED156E
:10072A0031F4086F33FEFBC00E9438092EC0E5E0A1
:10073A00ED1539F4006F0E94240911F4E6E0DE2E6B
:10074A0024C0E6E0ED1521F4026F0E9441091DC0A4
:10075A00E7E0ED1539F4006F0E94240911F4E8E08E
:10076A00DE2E13C0E8E0ED1541F4006D0E94240965
:10077A0019F4E9E00E944A0908C0E9E0ED1529F4F4
:10078A0000640E94240909F4DD24C9C0E2E0EC15E2
:10079A0011F00C941804E1E0ED1521F4006432FE26
:1007AA00BEC040C0E2E0ED1521F4006E0E941B09B4
:1007BA0039C0E3E1ED1539F4006F0E94240911F400
:1007CA000E942F092FC0E3E0ED1539F4006F0E9453
:1007DA00240911F4E4E0DE2E25C0E4E0ED1531F43D
:1007EA00086F33FE9CC00E9438091CC0E5E0ED1575
:1007FA0039F4006F0E94240911F4E6E0DE2E12C0DB
:10080A00E6E0ED1539F4006D0E94240911F40E9406
:10081A00410908C0E7E0ED1529F400640E942409A3
:10082A0009F4DD247CC0E3E0EC15E1F5E1E0ED1527
:10083A0021F4006432FE73C034C0E2E0ED1551F4D5
:10084A00006EE2E3F0E0E0937301F0937401E3E0F9
:10085A00DE2E27C0E3E0ED1539F4006F0E9424096B
:10086A0011F4E4E0DE2E1DC0E4E0ED1539F40A6F60
:10087A000E94240911F4E5E0DE2E13C0E5E0ED152F
:10088A0041F40A6C0E94240919F4E6E00E944A091C
:10089A0008C0E6E0ED1529F400640E94240909F471
:1008AA00DD243DC0E4E0EC15D1F5E1E0ED1521F4DD
:1008BA00006432FE34C033C0E2E0ED1521F4006E6C
:1008CA000E942F092CC0E3E0ED1539F4006F0E9455
:1008DA00240911F4E4E0DE2E22C0E4E0ED1569F407
:1008EA00006D0E94240941F4E5E0DE2EEEE1F0E01D
:1008FA00E0937301F093740112C0E5E0ED1539F449
:10090A0000650E94240911F4E6E0DE2E08C0E6E044
:10091A00ED1529F400610E94240909F4DD240E94DE
:10092A001709099108950A9303E0E0E0E017C8F473
:10093A00E02FF0E0EB59FE4FFF93EF93A981BA81C4
:10094A00EAE0F0E00E94BB09AF91BF91EC93A98164
:10095A00BA81EAE0F0E00E94A809E983FA8301502B
:10096A00E4CF08816CC00A93689423F800E005304C
:10097A0010F00C94170523FE09C00E945209EB5986
:10098A00FE4FE081E03011F4043008F01FC0E4E0CB
:10099A00E01BAE2FE981EA1760F40E945209E05A7F
:1009AA00FE4FFF93EF93E4E6F0E0E491AF91BF913D
:1009BA000BC00E945209E05AFE4FFF93EF93EAE5FB
:1009CA00F0E0E491AF91BF91EC931AC00E945209F2
:1009DA00E05AFE4FFF93EF93EAE5F0E0FF93EF93BF
:1009EA000E945209EB59FE4FE081AF91BF91F0E0AE
:1009FA00EA0FFB1FE491AF91BF91EC93E89423F8BF
:100A0A00E981E03069F0A981E3E0EA1BF0E0E05A0D
:100A1A00FE4FFF93EF93E081EF77AF91BF91EC9395
:100A2A000F5FA5CF088122960895E981FA81FA938A
:100A3A00EA930E949804E881EA930E94B8042396F4
:100A4A000895EE20D1F5A5E0B0E00E94CC093097D8
:100A5A0099F1A5E0B0E00E94CC09E130A0E0FA07E4
:100A6A0029F4E0917E010E94560926C0A5E0B0E073
:100A7A000E94CC09E230A0E0FA0729F4E0917D0156
:100A8A000E94560919C0A5E0B0E00E94CC09E330E3
:100A9A00A0E0FA0729F4E0917C010E9456090CC0F3
:100AAA00A5E0B0E00E94CC09E430A0E0FA0721F406
:100ABA00E0917F010E94560953C0E2E0EE1511F061
:100ACA000C94B505E0916E01E03059F4A5E0B0E070
:100ADA000E94CC09FA93EA93E0E0EA930E941A058D
:100AEA002BC0A0916E01A13039F4A1E0B0E00E94C0
:100AFA00CC090E945D0920C0A0916E01A23039F490
:100B0A00A3E0B0E00E94CC090E945D0915C0A09143
:100B1A006E01A33039F4A7E0B0E00E94CC090E942C
:100B2A005D090AC0A0916E01A43031F4A9E0B0E0D9
:100B3A000E94CC090E945D0930FE0DC0EAE5F0E092
:100B4A00FF93EF93E0916E01EF5FAF91BF91F0E0F9
:100B5A00EA0FFB1F02C0E4E6F0E0E491E0936001D3
:100B6A000895E4E6F0E0E491E0936401E4E6F1E05C
:100B7A00FF93EF93E081EF7DAF91BF91EC93DD207E
:100B8A0049F0E4E6F1E0FF93EF93E081EF7BAF9168
:100B9A00BF9108C0E4E6F1E0FF93EF93E081E064DF
:100BAA00AF91BF91EC93DD20A9F431FE09C0E4E6D0
:100BBA00F1E0FF93EF93E081EE7FAF91BF9108C020
:100BCA00E4E6F1E0FF93EF93E081E160AF91BF913A
:100BDA00EC9309C0E4E6F1E0FF93EF93E081E16072
:100BEA00AF91BF91EC93A0E0B0E00E94D009E53547
:100BFA0049F4E4E6F1E0FF93EF93E081EF77AF91F8
:100C0A00BF9108C0E4E6F1E0FF93EF93E081E0686A
:100C1A00AF91BF91EC93E0917E01E03049F0E4E6B8
:100C2A00F1E0FF93EF93E081EF7EAF91BF91EC93F8
:100C3A00E0917D01E03049F0E4E6F1E0FF93EF93C3
:100C4A00E081EB7FAF91BF91EC93E0917C01E030C2
:100C5A0049F0E4E6F1E0FF93EF93E081E77FAF919B
:100C6A00BF91EC93E0917F01E03049F0E4E6F1E0D6
:100C7A00FF93EF93E081ED7FAF91BF91EC930895DD
:100C8A00E1B3E7700E9463090E946809000000004E
:100C9A0000000000E3B3EA66E0936901A0916901EC
:100CAA00AF3F11F017D309F1E89426F8A0916B0130
:100CBA00A53020F4A0916C01A03011F024FE01C0EF
:100CCA0004C0689425F8B0906A010AD318F06894B1
:100CDA0025F80CD3E89424F8E4E1E0936D01E0E010
:100CEA00E0936B01E0936C012BC0F4D249F5E091DB
:100CFA006B01EF5FE0936B01A0916B01A53000F1EE
:100D0A00E0E0E0936B01E0916C01EF5FE0936C012E
:100D1A00E7D2B0F0EBD2E0E0E0936C01689425F8FA
:100D2A00689424F826FE0CC0E0916D01E695E093E4
:100D3A006D01A0916D01E2E0EA1710F0E0936D01F8
:100D4A00E0916901E0936A01BED2089537FE03C0BB
:100D5A00E1E0E0938301E89437F840FE09C0E2E05D
:100D6A00E0938201E0938101E0938001E0938301A3
:100D7A00E89440F825FE6FC1EDEEEB1569F4A0E0AA
:100D8A00B0E00E94D009E53511F0E5E501C0EAEAD4
:100D9A00A0E0B0E00E94E409EE2049F4E9EFEB1587
:100DAA0029F4E2E0EE2EE0E0E0936E0151C1E2E0C8
:100DBA00EE1511F00C942D08E9EFEB1529F4EE2449
:100DCA00E0E0E0936E0144C1EBEFEB1569F4E091CA
:100DDA006E01EF5FE0936E01A0916E01A53019F4E8
:100DEA00E0E0E0936E0134C1E0916E01E030A9F5D4
:100DFA00EFE7EB1549F4A5E0B0E00E94CC09319683
:100E0A000E94DC0931970BC0EEEFEB1541F4A5E027
:100E1A00B0E00E94CC0931970E94DC093196A5E026
:100E2A00B0E00E94CC09DF01E5E0F0E0EA17FB0739
:100E3A0034F4E0E0F0E0A5E0B0E00E94DC09A5E0CF
:100E4A00B0E00E94CC09DF01109734F4E5E0F0E04D
:100E5A00A5E0B0E00E94DC09FBC0A0916E01A130C0
:100E6A00D9F5EFE7EB1519F0EDE7EB15B9F468944E
:100E7A0026F8A1E0B0E00E94CC0931960E94DC0974
:100E8A003197A1E0B0E00E94CC0935D234F4E4E80D
:100E9A00F3E0A1E0B0E00E94DC091DC0EEEFEB1523
:100EAA0019F0ECEFEB15B9F4689426F8A1E0B0E07C
:100EBA000E94CC0931970E94DC093196A1E0B0E08A
:100ECA000E94CC09DF01109734F4E0E0F0E0A1E0E1
:100EDA00B0E00E94DC09BCC0A0916E01A230D9F535
:100EEA00EFE7EB1519F0EDE7EB15B9F4689426F87E
:100EFA00A3E0B0E00E94CC0931960E94DC09319748
:100F0A00A3E0B0E00E94CC09F6D134F4E4E8F3E0BF
:100F1A00A3E0B0E00E94DC091DC0EEEFEB1519F06A
:100F2A00ECEFEB15B9F4689426F8A3E0B0E00E9460
:100F3A00CC0931970E94DC093196A3E0B0E00E9407
:100F4A00CC09DF01109734F4E0E0F0E0A3E0B0E070
:100F5A000E94DC097DC0A0916E01A330D9F5EFE7AC
:100F6A00EB1519F0EDE7EB15B9F4689426F8A7E04C
:100F7A00B0E00E94CC0931960E94DC093197A7E0C3
:100F8A00B0E00E94CC09B7D134F4E4E8F3E0A7E07A
:100F9A00B0E00E94DC091DC0EEEFEB1519F0ECEF92
:100FAA00EB15B9F4689426F8A7E0B0E00E94CC09E2
:100FBA0031970E94DC093196A7E0B0E00E94CC0983
:100FCA00DF01109734F4E0E0F0E0A7E0B0E00E941F
:100FDA00DC093EC0A0916E01A430D1F5EFE7EB1514
:100FEA0019F0EDE7EB15B9F4689426F8A9E0B0E03A
:100FFA000E94CC0931960E94DC093197A9E0B0E041
:10100A000E94CC0978D134F4E4E8F3E0A9E0B0E036
:10101A000E94DC091DC0EEEFEB1519F0ECEFEB15A1
:10102A00B9F4689426F8A9E0B0E00E94CC09319797
:10103A000E94DC093196A9E0B0E00E94CC09DF01E8
:10104A00109734F4E0E0F0E0A9E0B0E00E94DC0997
:10105A00E9EEEB1501F4E89425F80895A394E6E087
:10106A00AE1608F0AA24E5E0AE16C8F4EFEFE4BB2A
:10107A00E5BBE1B3E86F22D1E2B3EF93A4E5B0E0B8
:10108A00EA2DF0E0EA0FFB1FE491AF91EA23E2BBFD
:10109A00EA2DF0E0E05AFE4FE081E5BB02C00E9473
:1010AA00450608950A921A92FA926A937A938A9353
:1010BA009A93AA93BA93EA93FA93EFB7EA9321D150
:1010CA00689420F8CBDF6394E6E06E1618F0662485
:1010DA00689421F87394ECE37E1688F07724689478
:1010EA0022F88394E2E08E1618F08824E1E03E2686
:1010FA009394E5E09E1618F09924E0E82E26E991EB
:10110A00EFBFF991E991B991A99199918991799151
:10111A006991F990199009901895EFEFEBBB4DD0B2
:10112A00F8D0E0E0E5BBE4BBE2BBE1BBEAD0E0E03B
:10113A00EFBDEEBDEDBDECBDE7BDE6BDEBBDEABD65
:10114A00E9BDE8BDE2BDE5BDE4BDE3BDE5BFE4BF81
:10115A00E1E0E9BFE0E8E8B9E0E0E0BF7894EFEF6A
:10116A00D8D0EE240E946A000E9426050E94B60585
:10117A0020FE04C0E89420F80E949F0021FE11C0BE
:10118A00E89421F8E3DD0E9426050E9466030E9486
:10119A0082010E943D020E949D020E9402030E9457
:1011AA004A0322FE08C0E89422F80E946A000E94BC
:1011BA008F000E94B605DCCFFFCFE0E0EABBEFEF7D
:1011CA000895E2E0E0938201E0938101E0938001D7
:1011DA00E0E00895E0937F01E4E1F0E0E0938A0122
:1011EA00F0938B010895E0918A01F0918B01319778
:1011FA00E0938A01F0938B0130970895AAE0B0E05A
:10120A000E94A309E0938401F09385010895E09177
:10121A008401F09185013197E0938401F09385016F
:10122A0030970895E02FE095E8BB0895E3E1DE2EBC
:10123A00E8E2F0E0E0937301F09374010895E0911D
:10124A007301F09174013197E0937301F093740183
:10125A0030970895E3E0DE2EE2E3F0E0E0937301D5
:10126A00F09374010895E5E0DE2EE4E1F0E0E09306
:10127A007301F09374010895E7E0DE2EE4E1F0E0F3
:10128A00E0937301F09374010895DE2EE4E1F0E037
:10129A00E0937301F09374010895E02FE150F0E0B8
:1012AA000895F0E0FA93EA93E0E0EA930C941A05C1
:1012BA00FA93EA93E1E0EA930C941A05E1BBE2B3EC
:1012CA00E86FE2BB0895E5B3E569E5BBE4B3EA7606
:1012DA00E4BB0895E0916A01A0916901EA170895B3
:1012EA00E0916D01A0916C01AE170895E0916A0139
:1012FA00ED7FBE2E0895DF01E4E8F3E0EA17FB076D
:10130A000895E2E0E3BFE0E3FFEFE2BFE0E0ECBF15
:10131A000895E8BBEFEFE7BB0895E095F0953196A5
:10132A000895EA17E1E009F0EE270895FA9FF02DF3
:10133A00EB9FF00DEA9FE02DF10D08951AD0F6DF2C
:10134A000EF4EBDF08950024112490E1AA0FBB1FCD
:10135A00001C111C0E1A1F0A18F40E0E1F1E01C0C3
:10136A00A1609A9599F7FD01D0010895ECDFFD017E
:10137A000895E894F7FF02C0D0DF6894B7FF06C06B
:10138A00A095B095119600F8039400FA0895119665
:10139A0002D0FE2F1197E199FECFFF93FFB7F89481
:1013AA00AEBBBFBBE09AEDB3FFBFFF91089507D074
:1013BA001196EF93EF2F03D0EF9111970895E199CA
:1013CA00FECF9FB7F894AEBBBFBBE09A8DB3E817C8
:1013DA0019F0EDBBE29AE19A9FBF08953A932A93D6
:1013EA001A930A9308953B812A81198108810895E5
:00000001FF
