:100000000C943F000C9400000C9400000C94000031
:100010000C9400000C9400000C9400000C94000060
:100020000C9400000C9400000C9400000C94F90156
:100030000C9400000C9400000C9400000C94000040
:100040000C9400000C9400000C9400000C94000030
:100050000C940000C0F9A4B0999282F88090FF003F
:100060000000000055555555550002000200600083
:1000700001000A0062000500600264000000F894BC
:10008000EE27ECBBF1E0FBBFEBBFE5BFF8E1F1BD54
:10009000E1BD8DE0A2E0BB27ED938A95E9F780E012
:1000A00098E0A0E6ED930197E9F7EAE6F0E08591A4
:1000B0009591009761F0A591B59105901590BF01BC
:1000C000F00105900D920197E1F7FB01F0CFEFE50C
:1000D000EDBFE8E0EEBFC0E6D2E00C941E0208954A
:1000E0000E94B602E0E0EABBEFEFEBBBE9B3E093BE
:1000F0007002A0916F02EA1791F4A0917102AA30E8
:1001000068F4E0917102EF5FE0937102A0917102D7
:10011000AA3020F0E0916F02E0936E0203C0E0E0AD
:10012000E0937102E0917002E0936F020E94BB02C3
:1001300024960895E0916E02E07289F4A09176020F
:10014000AA3060F4E0917602EF5FE0937602A0912E
:100150007602AA3019F4E1E0E09375020CC0E09158
:100160007602E03041F0E150E0937602E03019F49D
:10017000E0E0E0937502E0916E02E17081F4A091FD
:100180007702AA3058F4E0917702EF5FE0937702AC
:10019000A0917702AA3011F4689432F80BC0E09174
:1001A0007702E03039F0E150E0937702E03011F46B
:1001B000E89432F8E0916E02E07489F4A09178023C
:1001C000AA3060F4E0917802EF5FE0937802A091AA
:1001D0007802AA3019F4E1E0E09374020CC0E091D7
:1001E0007802E03041F0E150E0937802E03019F419
:1001F000E0E0E0937402E0916E02E47081F4A0917B
:100200007902AA3058F4E0917902EF5FE093790225
:10021000A0917902AA3011F4689433F80BC0E091F0
:100220007902E03039F0E150E0937902E03011F4E6
:10023000E89433F80895EFEFE7BBE0917402E03003
:1002400009F06BC0E0E0E0937A02AA2089F4E09123
:100250007502E03011F432FE01C001C02FD1E091EF
:100260007502E03011F032FC01C001C030D14FC046
:10027000E1E0EA1529F434D111F4E2E0AE2E47C0F2
:10028000E2E0EA1549F4E0917502E03011F432FE43
:1002900001C001C013D13BC0E3E0EA1529F420D12D
:1002A00011F4E4E0AE2E33C0E4E0EA1571F4E0911D
:1002B0007A02E168E0937A02E0917502E03011F091
:1002C00032FC01C001C003D122C0E5E0EA1539F4D7
:1002D00019D109F422D128D109F4AA2418C0E7E0E1
:1002E000EA1539F40FD109F418D11ED109F4AA2462
:1002F0000EC0E8E0EA1559F4E0917A02E26821D1F3
:1003000009F40BD111D119F4E5E0AE2E06D1E0913C
:100310007A02E064E0937A0258C0E0E0E0937A0267
:10032000AA2031F433FE03C0E7E0AE2EF6D04DC074
:10033000E5E0EA1529F40DD111F4E6E0AE2E45C052
:10034000E6E0EA1531F433FE03C0E7E0AE2EE5D077
:100350003CC0E7E0EA1529F4FCD011F4E8E0AE2E49
:1003600034C0E8E0EA1559F4E0917A02E268E093DB
:100370007A0233FC03C0E5E0AE2ECFD026C0E1E028
:10038000EA1551F4E0917A02E160DBD009F4C5D0BE
:10039000CBD009F4AA2419C0E3E0EA1551F4E091A6
:1003A0007A02E160CED009F4B8D0BED009F4AA2414
:1003B0000CC0E4E0EA1549F4E0917A02E168C1D0AA
:1003C00009F4ABD0B1D009F482D0E0917A02E09583
:1003D000E8BB0895EFEFE4BBE0917502E03011F067
:1003E000AB9801C0AB9A32FE02C0AA9801C0AA9A8B
:1003F0000895EA93EFB7EA93B2D0689420F8539443
:10040000E6E05E1610F0552421F84394ECE34E1616
:1004100088F04424689422F87394E2E07E1618F081
:100420007724E1E03E266394E5E06E1618F066243A
:10043000E0E82E26E991EFBFE9911895EFEFEBBBCD
:10044000E0E0EABBEFEFE8BBE7BBE0E0E5BBE4BB25
:10045000E2BBE1BB84D0E0E0EFBDEEBDEDBDECBDA5
:10046000E7BDE6BDEBBDEABDE9BDE8BDE2BDE5BD6A
:10047000E4BDE3BDE5BFE4BFE1E0E9BFE0E8E8B922
:10048000E0E0E0BF7894EFEFE8BBE7BB899A919A90
:10049000DD2425DE9FDF20FE02C0E89420F821FE47
:1004A00004C0E89421F81CDE45DE22FE05C0E89475
:1004B00022F815DE8FDFBFDEEECFFFCFE3E0AE2EFA
:1004C000E4E1F0E0E0937202F09373020895E1E05A
:1004D000AE2EE4E1F0E0E0937202F093730208952F
:1004E000E0917A02E160E0937A02A2E7B2E0ED9156
:1004F000FD913197FE93EE93E0917202F0917302B9
:1005000030970895E0917A02E260E0937A02E091F8
:100510007202F091730230970895E4E1F0E0E09305
:100520007202F09373020895A2E7B2E0ED91FD919B
:100530003197FE93EE93E0917202F091730230973F
:100540000895E0937A02E0917202F091730230977D
:100550000895E0917A02E260E0937A02E5CFE2E06A
:10056000E3BFE0E3E2BFE0E0ECBF08953A932A93F3
:100570001A930A9308953B812A811981088108956D
:00000001FF
