:0C0000000C943A000C9400000C940000DA
:10000C000C9400000C9400000C9400000C94000064
:10001C000C9400000C9400000C9400000C94000054
:10002C000C945B060C9400000C9400000C940000E3
:10003C000C9400000C9400000C9400000C94000034
:10004C000C9400000C940000BFDFEFF77F00C0F9A8
:10005C00A4B0999282F88090FF00555555555500E3
:10006C000500600266000000F894EE27ECBBF1E09E
:10007C00FBBFEBBFE5BFF8E1F1BDE1BD8DE0A2E058
:10008C00BB27ED938A95E9F780E098E0A0E6ED9325
:10009C000197E9F7ECE6F0E085919591009761F016
:1000AC00A591B59105901590BF01F00105900D92A9
:1000BC000197E1F7FB01F0CFEFE5EDBFE8E0EEBF14
:1000CC00C0E6D2E00C9496060E94A507A1E0B0E031
:1000DC000E9481070E2FA2E0B0E00E9481071E2F24
:1000EC00A3E0B0E00E9481072E2F101711F4201707
:1000FC0009F001C01DC0101711F4201709F402C03B
:10010C00202F16C0101711F0201709F002C0102F65
:10011C000FC0101711F0211709F002C0012F08C0F1
:10012C00101711F0201709F403C001E011E021E0D1
:10013C00E4E0E01710F0013008F401E0A1E0B0E0D9
:10014C000E948107E01729F0E02FA1E0B0E00E94A7
:10015C009507A2E0B0E00E948107E01729F0A2E029
:10016C00B0E0E02F0E949507A3E0B0E00E94810769
:10017C00E01729F0A3E0B0E0E02F0E949507A02E35
:10018C000E94AA0779C30E94A4070E94E006EBBB59
:10019C00E9B3E0936F02A0916E02EA1781F4A0918B
:1001AC007002AA3058F4E0917002EF5FE093700295
:1001BC00A0917002AA3010F0E0906E0203C0E0E053
:1001CC00E0937002E0916F02E0936E020E94A90727
:1001DC0024960895BB20A1F4E0917402E03051F410
:1001EC0032FC08C0E0917302E03021F433FC02C011
:1001FC0034FE03C0689431F802C0E89431F802C0B0
:10020C00E89431F80895E2FC11C0A0917502AA306F
:10021C0060F4E0917502EF5FE0937502A0917502B6
:10022C00AA3019F4E1E0E09374020CC0E09175027D
:10023C00E03041F0E150E0937502E03019F4E0E079
:10024C00E0937402E3FC10C0A0917602AA3058F43B
:10025C00E0917602EF5FE0937602A0917602AA30ED
:10026C0011F4689432F80BC0E0917602E03039F06A
:10027C00E150E0937602E03011F4E89432F8E5FCBA
:10028C0010C0A0917802AA3058F4E0917802EF5F88
:10029C00E0937802A0917802AA3011F4689433F8B4
:1002AC000BC0E0917802E03039F0E150E093780235
:1002BC00E03011F4E89433F8E4FC11C0A09177021B
:1002CC00AA3060F4E0917702EF5FE0937702A0919F
:1002DC007702AA3019F4E1E0E09373020CC0E091CC
:1002EC007702E03041F0E150E0937702E03019F40E
:1002FC00E0E0E0937302E7FC10C0A0917902AA3011
:10030C0058F4E0917902EF5FE0937902A0917902C1
:10031C00AA3011F4689434F80BC0E0917902E03003
:10032C0039F0E150E0937902E03011F4E89434F8BC
:10033C0008951A930A9300E010E0EFEFE7BBBB209F
:10034C0009F4FCC1E1E0EA1511F00C945602EB152E
:10035C0079F40064E0917402E03009F4EFC1A0E09C
:10036C00B0E00E948107EA3A61F0E2E0BE2E97C04D
:10037C00E2E0EB1579F4026EE0917302E03009F4DF
:10038C00DDC1E3E0BE2EEAE0F0E0E0937102F09311
:10039C00720285C0E3E0EB1539F4006E0E94E406AE
:1003AC0011F4E4E0BE2E7BC0E4E0EB1539F4016CF3
:1003BC0034FCC4C1E5E00E94EF0671C0E5E0EB152A
:1003CC0041F4006D0E94E40619F4E6E00E94F70681
:1003DC0066C0E6E0EB1541F4006D11600E94E40686
:1003EC0011F4E7E0BE2E5BC0E7E0EB1541F4086DBD
:1003FC00116032FEA3C1E8E00E94FF0650C0E8E0A5
:10040C00EB1541F4086D11600E94E40611F40E9492
:10041C00070745C0E9E0EB1541F4006D11600E943F
:10042C00E40611F4EAE0BE2E3AC0EAE0EB1541F422
:10043C00046D116033FE82C1EBE00E94EF062FC009
:10044C00EBE0EB1549F4046D11600E94E40619F41D
:10045C00ECE00E94100723C0ECE0EB1569F4026C91
:10046C000E94E40641F4EDE0BE2EE2E8F0E0E093F9
:10047C007102F093720213C0EDE0EB1541F4006CC5
:10048C000E94E40619F4EEE00E94100708C0EEE0AA
:10049C00EB1529F400640E94E40609F4BB244EC158
:1004AC00E2E0EA1511F00C94EF02E1E0EB1579F4BF
:1004BC000064E0917402E03009F440C1A0E0B0E0C7
:1004CC000E948107EA3A61F0E2E0BE2E81C0E2E0D0
:1004DC00EB1551F4026EE0917302E03009F42EC179
:1004EC00E3E10E94EF0674C0E3E1EB1541F4026F07
:1004FC000E94E40619F4E3E00E94F70669C0E3E009
:10050C00EB1541F4026F11600E94E40611F4E4E073
:10051C00BE2E5EC0E4E0EB1541F40A6F116032FEB2
:10052C000DC1E1E10E94100753C0E1E1EB1549F464
:10053C000A6F11600E94E40619F4E5E00E941007AE
:10054C0047C0E5E0EB1541F4026F11600E94E40630
:10055C0011F4E6E0BE2E3CC0E6E0EB1541F4066F6C
:10056C00116033FEEBC0E2E10E94EF0631C0E2E124
:10057C00EB1549F4066F11600E94E40619F4E7E0EC
:10058C000E94100725C0E7E0EB1581F4026F1160A3
:10059C000E94E40651F4E8E0BE2EE8ECF0E060E0E6
:1005AC0070E0E0937102F093720212C0E8E0EB1578
:1005BC0039F4026D0E94E40611F40E94070708C08A
:1005CC00E9E0EB1529F402640E94E40609F4BB246B
:1005DC00B5C0E3E0EA1511F00C944E03E1E0EB1525
:1005EC0079F40064E0917402E03009F4A7C0A0E053
:1005FC00B0E00E948107EA3A61F0E2E0BE2E47C00B
:10060C00E2E0EB1579F4026EE0917302E03009F44C
:10061C0095C0E2E3F0E0E0937102F0937202E3E044
:10062C00BE2E35C0E3E0EB1569F4026F0E94E406C0
:10063C0041F4EAE5F0E0E0937102F0937202E4E039
:10064C00BE2E25C0E4E0EB1579F40E6F0E94E40693
:10065C0051F4E8ECF0E060E070E0E0937102F093AC
:10066C007202E5E0BE2E13C0E5E0EB1541F40E6C12
:10067C000E94E40619F4E6E00E94100708C0E6E0C8
:10068C00EB1529F402640E94E40609F4BB2456C05D
:10069C00E4E0EA1511F00C94A403E1E0EB1579F415
:1006AC000064E0917402E03009F448C0A0E0B0E0CE
:1006BC000E948107EA3A59F0E2E0BE2E3FC0E2E028
:1006CC00EB1549F4026EE0917302E030B9F1E3E00E
:1006DC000E94F70633C0E3E0EB1569F4026F0E9449
:1006EC00E40641F4E4E0BE2EE0EAF0E0E0937102AF
:1006FC00F093720223C0E4E0EB1541F4026D0E940A
:10070C00E40619F4E5E00E94FF0618C0E5E0EB15DD
:10071C0069F400650E94E40641F4E6E0BE2EE8ECC4
:10072C00F0E0E0937102F093720208C0E6E0EB1582
:10073C0029F400610E94E40609F4BB24A0E0B0E0B7
:10074C000E948107EA3A11F40F7D0D7FE02FE095AE
:10075C00E8BB899A10FF02C0919801C0919A099147
:10076C00199108950A9303E0E0E0E017C8F4E02F34
:10077C00F0E0EB59FD4FFF93EF93A981BA81EAE0CA
:10078C00F0E00E947A07AF91BF91EC93A981BA81F6
:10079C00EAE0F0E00E946707E983FA830150E4CFB6
:1007AC0008816AC00A93689423F800E0053010F0C1
:1007BC000C94350423FE09C00E941807EB59FD4F19
:1007CC00E081E03011F4043008F01FC0E4E0E01BDD
:1007DC00AE2FE981EA1760F40E941807E05AFD4F2A
:1007EC00FF93EF93E4E6F0E0E491AF91BF910BC07F
:1007FC000E941807E05AFD4FFF93EF93EAE5F0E0F3
:10080C00E491AF91BF91EC9318C00E941807E05A85
:10081C00FD4FFF93EF93EAE5F0E0FF93EF930E9417
:10082C001807EB59FD4FE081AF91BF910E941C0757
:10083C00AF91BF91EC93E89423F8E981E03069F033
:10084C00A981E3E0EA1BF0E0E05AFD4FFF93EF9340
:10085C00E081EF77AF91BF91EC930F5FA7CF088149
:10086C0022960895E981FA81FA93EA930E94B803DB
:10087C00E881EA930E94D803239608950E942107E9
:10088C00FA93EA93E1E0EA930E943804EAE5F0E097
:10089C00FF93EF93ED2DEF5FAF91BF910E941C077B
:1008AC00E09360020895E4E6F0E0E491E0936402E2
:1008BC00E4E6F2E0FF93EF93E081EF7DAF91BF911F
:1008CC00EC93BB2049F0E4E6F2E0FF93EF93E08178
:1008DC00EF7BAF91BF9108C0E4E6F2E0FF93EF939A
:1008EC00E081E064AF91BF91EC93BB20A9F431FEA1
:1008FC0009C0E4E6F2E0FF93EF93E081EE7FAF9165
:10090C00BF9108C0E4E6F2E0FF93EF93E081E16071
:10091C00AF91BF91EC9309C0E4E6F2E0FF93EF9343
:10092C00E081E160AF91BF91EC93A0E0B0E00E9458
:10093C008107E53549F4E4E6F2E0FF93EF93E081BB
:10094C00EF77AF91BF9108C0E4E6F2E0FF93EF932D
:10095C00E081E068AF91BF91EC93E1E0EA1551F4CE
:10096C00E4E6F2E0FF93EF93E081EF7EAF91BF916D
:10097C00EC9326C0E2E0EA1551F4E4E6F2E0FF93D2
:10098C00EF93E081EB7FAF91BF91EC9319C0E3E063
:10099C00EA1551F4E4E6F2E0FF93EF93E081E77F90
:1009AC00AF91BF91EC930CC0E4E0EA1549F4E4E696
:1009BC00F2E0FF93EF93E081ED7FAF91BF91EC9369
:1009CC00E1E0EC1559F430FE09C0E4E6F2E0FF93E7
:1009DC00EF93E081EE61AF91BF91EC93E2E0EC1507
:1009EC0059F430FE09C0E4E6F2E0FF93EF93E081A6
:1009FC00E062AF91BF91EC930895E1B3E7700E9470
:100A0C0034070E9439070000000000000000E3B327
:100A1C00EA66E0936902A0916902AF3F11F02AD215
:100A2C0009F1E89426F8A0916B02A53020F4A0916E
:100A3C006C02A03011F024FE01C004C0689425F8AB
:100A4C0090906A021DD218F0689425F81FD2E89491
:100A5C0024F8E4E1E0936D02E0E0E0936B02E093B4
:100A6C006C022BC007D249F5E0916B02EF5FE0936B
:100A7C006B02A0916B02A53000F1E0E0E0936B02F9
:100A8C00E0916C02EF5FE0936C02FAD1B0F0FED112
:100A9C00E0E0E0936C02689425F8689424F826FE54
:100AAC000CC0E0916D02E695E0936D02A0916D0291
:100ABC00E2E0EA1710F0E0936D02E0916902E09336
:100ACC006A02D1D10895E0FC24C0E0E0EB1511F4EA
:100ADC0031FE01C01EC0E1E0BE2EEA1539F4E2E39E
:100AEC00F0E0E0937102F093720213C0E2E0EA15B9
:100AFC0039F4E2E3F0E0E0937102F093720209C082
:100B0C00E3E0EA1531F4E2E3F0E0E0937102F093F4
:100B1C007202E1FC01C0BB2425FEA0C0EDEEE9157C
:100B2C0069F4A0E0B0E00E948107E53511F4EAEA2F
:100B3C0001C0E5E5A0E0B0E00E949507E9EEE915FB
:100B4C0031F4E2E0EC1511F0CE2E01C0CC24CC2017
:100B5C0091F5E9EFE91511F4E1E0CE2EEEE7E91598
:100B6C0071F4E3E0EA1519F0E4E0EA1539F4DD205C
:100B7C0019F4E1E0DE2E01C0DD2401C0DD24EFE735
:100B8C00E91519F0EDE7E91541F4689426F853D10D
:100B9C0031960E948D0731970DC0EEEFE91519F0D3
:100BAC00ECEFE91539F4689426F845D131970E9499
:100BBC008D07319653C0E1E0EC15E9F5E9EFE91545
:100BCC0009F4CC24EBEFE91579F465D114F4E1E0E8
:100BDC00AE2E65D1A2E0B0E0EA2D0E949507A3E00D
:100BEC00B0E0EA2D0E949507EFE7E91579F453D1AF
:100BFC0014F4E1E0AE2E53D1A2E0B0E0EA2D0E9455
:100C0C009507A3E0B0E0EA2D0E949507EEEFE915F9
:100C1C0089F4AA94E4E0EA1514F4E1E0AE2E3FD195
:100C2C00A2E0B0E0EA2D0E949507A3E0B0E0EA2D27
:100C3C000E94950713C0E2E0EC1581F4E9EFE91589
:100C4C0069F4A3E1B0E00E948107E03011F0E0E02C
:100C5C0001C0E1E0A3E1B0E00E949507E89425F81B
:100C6C0008958394E6E08E1608F08824E5E08E164D
:100C7C00C8F4EFEFE4BBE5BBE1B3E86FEFD0E2B350
:100C8C00EF93A4E5B0E0E82DF0E0EA0FFB1FE49150
:100C9C00AF91EA23E2BBE82DF0E0E05AFD4FE08192
:100CAC00E5BB02C00E94030508950A921A92FA92BB
:100CBC006A937A938A939A93AA93BA93EA93FA9340
:100CCC00EFB7EA93F2D0689420F8CBDF4394E6E0D8
:100CDC004E1618F04424689421F85394ECE35E16F5
:100CEC0088F05524689422F86394E2E06E1618F0AC
:100CFC006624E1E03E267394E5E07E1618F0772436
:100D0C00E0E82E26E991EFBFF991E991B991A9910B
:100D1C009991899179916991F99019900990189507
:100D2C00EFEFEBBB47D0C9D0E0E0E5BBE4BBE2BBE7
:100D3C00E1BBBBD0E0E0EFBDEEBDEDBDECBDE7BD72
:100D4C00E6BDEBBDEABDE9BDE8BDE2BDE5BDE4BD78
:100D5C00E3BDE5BFE4BFE1E0E9BFE0E8E8B9E0E00E
:100D6C00E0BF7894EFEFA9D0899A919ACC240E9495
:100D7C006A000E9444040E94590420FE02C0E894B8
:100D8C0020F821FE09C0E89421F89DDE0E94C900DC
:100D9C000E9409010E949F0122FE0AC0E89422F8D9
:100DAC000E946A000E94F0000E9444040E945904B0
:100DBC00E4CFFFCFE0E0EABBEFEF0895E0917102E2
:100DCC00F09172023197E0937102F09372023097B6
:100DDC000895BE2EE8E2F0E0E0937102F093720207
:100DEC000895BE2EE2E3F0E0E0937102F0937202FC
:100DFC000895BE2EEEE1F0E0E0937102F0937202E2
:100E0C000895E9E0BE2EE4E1F0E0E0937102F09386
:100E1C0072020895BE2EE4E1F0E0E0937102F093CB
:100E2C0072020895E02FE150F0E00895F0E0EA0F2F
:100E3C00FB1FE4910895EA2DA3E0B0E0F0E0EE0F83
:100E4C00FF1FEE0FFF1FAE0FBF1FED2DF0E0EE0FDB
:100E5C00FF1FAE0FBF1F0E947D070895E1BBE2B3D9
:100E6C00E86FE2BB0895E5B3E569E5BBE4B3EA7668
:100E7C00E4BB0895E0916A02A0916902EA17089513
:100E8C00E0916D02A0916C02AE170895E0916A0298
:100E9C00ED7F9E2E0895A394E4E0EA150895EA2DC3
:100EAC00A1E0B0E00E9495070895E2E0E3BFE0E323
:100EBC00FFEFE2BFE0E0ECBF0895E8BBEFEFE7BB6C
:100ECC0008950024112490E1AA0FBB1F001C111CD3
:100EDC000E1A1F0A18F40E0E1F1E01C0A1609A955F
:100EEC0099F7FD01D0010895ECDFFD0108951196ED
:100EFC0002D0FE2F1197E199FECFFF93FFB7F89424
:100F0C00AEBBBFBBE09AEDB3FFBFFF91089507D016
:100F1C001196EF93EF2F03D0EF9111970895E1996C
:100F2C00FECF9FB7F894AEBBBFBBE09A8DB3E8176A
:100F3C0019F0EDBBE29AE19A9FBF08953A932A9378
:100F4C001A930A9308953B812A8119810881089587
:00000001FF
