:100000000C943A000C9400000C9400000C94000036
:100010000C9400000C9400000C9400000C94000060
:100020000C9400000C94E0050C9400000C9400006B
:100030000C9400000C9400000C9400000C94000040
:100040000C9400000C9400000C9400000C94000030
:100050000C940000BFDFEFF77F00C0F9A4B09992C5
:1000600082F88090FF0055555555550005006001F8
:1000700066000000F894EE27ECBBF1E0FBBFEBBF9D
:10008000E5BFF8E1F1BDE1BD8DE0A2E0BB27ED9356
:100090008A95E9F780E094E0A0E6ED930197E9F70F
:1000A000ECE6F0E085919591009761F0A591B5910E
:1000B00005901590BF01F00105900D920197E1F7B1
:1000C000FB01F0CFEFE5EDBFE4E0EEBFC0E6D1E02D
:1000D0000C941B060E942907A1E0B0E00E940507CE
:1000E0000E2FA2E0B0E00E9405071E2FA3E0B0E0B3
:1000F0000E9405072E2F101711F4201709F001C0D8
:100100001DC0101711F4201709F402C0202F16C0CB
:10011000101711F0201709F002C0102F0FC0101790
:1001200011F0211709F002C0012F08C0101711F0BB
:10013000201709F403C001E011E021E0E4E0E0173A
:1001400010F0013008F401E0A1E0B0E00E940507E2
:10015000E01729F0E02FA1E0B0E00E941907A2E02B
:10016000B0E00E940507E01729F0A2E0B0E0E02F20
:100170000E941907A3E0B0E00E940507E01729F0EC
:10018000A3E0B0E0E02F0E941907A02E0E942E07E6
:10019000FEC20E9428070E946306EBBBE9B3E0930E
:1001A0006F01A0916E01EA1781F4A0917001AA304D
:1001B00058F4E0917001EF5FE0937001A09170013D
:1001C000AA3010F0E0906E0103C0E0E0E09370010F
:1001D000E0916F01E0936E010E942D07249608952F
:1001E000BB2091F4E0917401E03041F432FC06C090
:1001F000E0917301E03011F433FE03C0689431F8EC
:1002000002C0E89431F802C0E89431F80895E2FCA5
:1002100011C0A0917501AA3060F4E0917501EF5F03
:10022000E0937501A0917501AA3019F4E1E0E09323
:1002300074010CC0E0917501E03041F0E150E093B1
:100240007501E03019F4E0E0E0937401E3FC10C0C4
:10025000A0917601AA3058F4E0917601EF5FE09327
:100260007601A0917601AA3011F4689432F80BC09F
:10027000E0917601E03039F0E150E0937601E03032
:1002800011F4E89432F8E5FC10C0A0917801AA308E
:1002900058F4E0917801EF5FE0937801A091780144
:1002A000AA3011F4689433F80BC0E0917801E03083
:1002B00039F0E150E0937801E03011F4E89433F83C
:1002C000E4FC06C0A3E1B0E00E940507E03049F479
:1002D000E4FE06C0A3E1B0E00E940507E03009F0AB
:1002E00011C0A0917701AA3060F4E0917701EF5F2F
:1002F000E0937701A0917701AA3019F4E1E0E0934F
:1003000073010CC0E0917701E03041F0E150E093DF
:100310007701E03019F4E0E0E093730108950A9367
:1003200000E0EFEFE7BBBB2009F49BC1E1E0EA1579
:1003300011F00C942402EB1579F40064E09174013F
:10034000E03009F48EC1A0E0B0E00E940507EA3A6F
:1003500061F0E2E0BE2E77C0E2E0EB1549F4006EFA
:10036000E0917301E03009F47CC10E9467066BC024
:10037000E3E1EB1539F4006F0E94700611F40E945E
:100380007B0661C0E3E0EB1539F4016F0E94700653
:1003900011F4E4E0BE2E57C0E4E0EB1539F4096F28
:1003A00032FE5FC1E1E10E9484064DC0E1E1EB1540
:1003B00041F4096F0E94700619F4E5E00E9484067A
:1003C00042C0E5E0EB1539F4016F0E94700611F4AC
:1003D000E6E0BE2E38C0E6E0EB1561F4056F33FEB3
:1003E00040C1E2E1BE2EE8E2F0E0E0937101F0935B
:1003F000720129C0E2E1EB1541F4056F0E9470061D
:1004000019F4E7E00E9484061EC0E7E0EB1541F412
:10041000016F0E94700619F4E8E00E948C0613C078
:10042000E8E0EB1541F4006D0E94700619F4E9E074
:100430000E94840608C0E9E0EB1529F400640E94DC
:10044000700609F4BB240DC1E2E0EA1511F00C942A
:100450008402E1E0EB1579F40064E0917401E0308E
:1004600009F4FFC0A0E0B0E00E940507EA3A61F09D
:10047000E2E0BE2E48C0E2E0EB1549F4006EE091E8
:100480007301E03009F4EDC00E9467063CC0E3E16F
:10049000EB1539F4006F0E94700611F40E947B0680
:1004A00032C0E3E0EB1539F4016F0E94700611F4DD
:1004B000E4E0BE2E28C0E4E0EB1539F4096F32FE0B
:1004C000D0C0E5E00E9484061EC0E5E0EB1541F4D3
:1004D000016F0E94700619F4E6E00E948C0613C0BA
:1004E000E6E0EB1541F4006D0E94700619F4E7E0B8
:1004F0000E94840608C0E7E0EB1529F400640E941E
:10050000700609F4BB24ADC0E3E0EA1511F00C94C9
:10051000E102E1E0EB1579F40064E0917401E03070
:1005200009F49FC0A0E0B0E00E940507EA3A61F03C
:10053000E2E0BE2E45C0E2E0EB1579F4006EE091FA
:100540007301E03009F48DC0E2E3F0E0E093710163
:10055000F0937201E3E0BE2E33C0E3E0EB1569F4E3
:10056000006F0E94700641F4EAE5F0E0E09371014B
:10057000F0937201E4E0BE2E23C0E4E0EB1569F4D1
:100580000C6F0E94700641F4E2E8F0E0E093710124
:10059000F0937201E5E0BE2E13C0E5E0EB1541F4E7
:1005A0000C6C0E94700619F4E6E00E94840608C0F4
:1005B000E6E0EB1529F400640E94700609F4BB2400
:1005C00050C0E4E0EA1511F00C943103E1E0EB15C2
:1005D00079F40064E0917401E03009F442C0A0E0D5
:1005E000B0E00E940507EA3A59F0E2E0BE2E39C0B9
:1005F000E2E0EB1541F4006EE0917301E03089F127
:100600000E947B062EC0E3E0EB1541F4006F0E94D0
:10061000700619F4E4E00E94940623C0E4E0EB15B0
:1006200069F4006D0E94700641F4E5E0BE2EEEE133
:10063000F0E0E0937101F093720113C0E5E0EB1577
:1006400041F400650E94700619F4E6E00E949406E9
:1006500008C0E6E0EB1529F400610E94700609F479
:10066000BB24A0E0B0E00E940507EA3A09F40F7D40
:10067000E02FE095E8BB099108950A9303E0E0E0DC
:10068000E017C8F4E02FF0E0EB59FE4FFF93EF9333
:10069000A981BA81EAE0F0E00E94FE06AF91BF9125
:1006A000EC93A981BA81EAE0F0E00E94EB06E983CD
:1006B000FA830150E4CF08816AC00A93689423F852
:1006C00000E0053010F00C94BA0323FE09C00E942C
:1006D0009C06EB59FE4FE081E03011F4043008F045
:1006E0001FC0E4E0E01BAE2FE981EA1760F40E942E
:1006F0009C06E05AFE4FFF93EF93E4E6F0E0E491AE
:10070000AF91BF910BC00E949C06E05AFE4FFF9331
:10071000EF93EAE5F0E0E491AF91BF91EC9318C05C
:100720000E949C06E05AFE4FFF93EF93EAE5F0E04B
:10073000FF93EF930E949C06EB59FE4FE081AF912F
:10074000BF910E94A006AF91BF91EC93E89423F86B
:10075000E981E03069F0A981E3E0EA1BF0E0E05ACA
:10076000FE4FFF93EF93E081EF77AF91BF91EC9352
:100770000F5FA7CF088122960895E981FA81FA9345
:10078000EA930E943D03E881EA930E945D03239669
:1007900008950E94A506FA93EA93E1E0EA930E9485
:1007A000BD03EAE5F0E0FF93EF93ED2DEF5FAF912E
:1007B000BF910E94A006E09360010895E4E6F0E096
:1007C000E491E0936401E4E6F1E0FF93EF93E081CC
:1007D000EF7DAF91BF91EC93BB2049F0E4E6F1E0EF
:1007E000FF93EF93E081EF7BAF91BF9108C0E4E608
:1007F000F1E0FF93EF93E081E064AF91BF91EC9360
:10080000BB20A9F431FE09C0E4E6F1E0FF93EF93C9
:10081000E081EE7FAF91BF9108C0E4E6F1E0FF9385
:10082000EF93E081E160AF91BF91EC9309C0E4E602
:10083000F1E0FF93EF93E081E160AF91BF91EC9322
:10084000A0E0B0E00E940507E53549F4E4E6F1E0F8
:10085000FF93EF93E081EF77AF91BF9108C0E4E69B
:10086000F1E0FF93EF93E081E068AF91BF91EC93EB
:10087000E1E0EA1551F4E4E6F1E0FF93EF93E08163
:10088000EF7EAF91BF91EC9326C0E2E0EA1551F400
:10089000E4E6F1E0FF93EF93E081EB7FAF91BF914E
:1008A000EC9319C0E3E0EA1551F4E4E6F1E0FF93BC
:1008B000EF93E081E77FAF91BF91EC930CC0E4E050
:1008C000EA1549F4E4E6F1E0FF93EF93E081ED7F70
:1008D000AF91BF91EC93E1E0EC1559F430FE09C003
:1008E000E4E6F1E0FF93EF93E081EE61AF91BF9119
:1008F000EC93E2E0EC1559F430FE09C0E4E6F1E0D7
:10090000FF93EF93E081E062AF91BF91EC93089584
:10091000E1B3E7700E94B8060E94BD060000000027
:1009200000000000E3B3EA66E0936901A091690169
:10093000AF3F11F029D209F1E89426F8A0916B019C
:10094000A53020F4A0916C01A03011F024FE01C06C
:1009500004C0689425F890906A011CD218F068943D
:1009600025F81ED2E89424F8E4E1E0936D01E0E07C
:10097000E0936B01E0936C012BC006D249F5E09146
:100980006B01EF5FE0936B01A0916B01A53000F16B
:10099000E0E0E0936B01E0916C01EF5FE0936C01AC
:1009A000F9D1B0F0FDD1E0E0E0936C01689425F856
:1009B000689424F826FE0CC0E0916D01E695E09362
:1009C0006D01A0916D01E2E0EA1710F0E0936D0176
:1009D000E0916901E0936A01D0D10895E0FC24C060
:1009E000E0E0EB1511F431FE01C01EC0E1E0BE2EC7
:1009F000EA1539F4E2E3F0E0E0937101F09372015B
:100A000013C0E2E0EA1539F4E2E3F0E0E0937101AB
:100A1000F093720109C0E3E0EA1531F4E2E3F0E09B
:100A2000E0937101F0937201E1FC01C0BB2425FE4B
:100A3000A0C0EDEEE91569F4A0E0B0E00E94050762
:100A4000E53511F4EAEA01C0E5E5A0E0B0E00E9476
:100A50001907E9EEE91531F4E2E0EC1511F0CE2EBC
:100A600001C0CC24CC2091F5E9EFE91511F4E1E0C7
:100A7000CE2EEEE7E91571F4E3E0EA1519F0E4E0B3
:100A8000EA1539F4DD2019F4E1E0DE2E01C0DD24A1
:100A900001C0DD24EFE7E91519F0EDE7E91541F4B0
:100AA000689426F852D131960E94110731970DC0F3
:100AB000EEEFE91519F0ECEFE91539F4689426F832
:100AC00044D131970E941107319653C0E1E0EC15F3
:100AD000E9F5E9EFE91509F4CC24EBEFE91579F430
:100AE00064D114F4E1E0AE2E64D1A2E0B0E0EA2DCE
:100AF0000E941907A3E0B0E0EA2D0E941907EFE772
:100B0000E91579F452D114F4E1E0AE2E52D1A2E00D
:100B1000B0E0EA2D0E941907A3E0B0E0EA2D0E94A0
:100B20001907EEEFE91589F4AA94E4E0EA1514F444
:100B3000E1E0AE2E3ED1A2E0B0E0EA2D0E9419071E
:100B4000A3E0B0E0EA2D0E94190713C0E2E0EC1523
:100B500081F4E9EFE91569F4A3E1B0E00E9405072B
:100B6000E03011F0E0E001C0E1E0A3E1B0E00E947C
:100B70001907E89425F808958394E6E08E1608F0A6
:100B80008824E5E08E16C8F4EFEFE4BBE5BBE1B3E3
:100B9000E86FEED0E2B3EF93A4E5B0E0E82DF0E02B
:100BA000EA0FFB1FE491AF91EA23E2BBE82DF0E0EE
:100BB000E05AFE4FE081E5BB02C00E948804089520
:100BC0000A921A92FA926A937A938A939A93AA93C0
:100BD000BA93EA93FA93EFB7EA93F1D0689420F8C6
:100BE000CBDF4394E6E04E1618F04424689421F8D5
:100BF0005394ECE35E1688F05524689422F86394CD
:100C0000E2E06E1618F06624E1E03E267394E5E01B
:100C10007E1618F07724E0E82E26E991EFBFF991CF
:100C2000E991B991A9919991899179916991F990F5
:100C3000199009901895EFEFEBBB45D0C8D0E0E0D4
:100C4000E5BBE4BBE2BBE1BBBAD0E0E0EFBDEEBD8B
:100C5000EDBDECBDE7BDE6BDEBBDEABDE9BDE8BD60
:100C6000E2BDE5BDE4BDE3BDE5BFE4BFE1E0E9BF52
:100C7000E0E8E8B9E0E0E0BF7894EFEFA8D0CC245A
:100C80000E946A000E94C9030E94DE0320FE02C087
:100C9000E89420F821FE09C0E89421F89FDE0E9424
:100CA000C9000E9407010E948F0122FE0AC0E89439
:100CB00022F80E946A000E94F0000E94C9030E946C
:100CC000DE03E4CFFFCFE0E0EABBEFEF0895E3E11E
:100CD000BE2EE8E2F0E0E0937101F0937201089516
:100CE000E0917101F09172013197E0937101F093FD
:100CF000720130970895E3E0BE2EE2E3F0E0E09366
:100D00007101F09372010895BE2EE4E1F0E0E093EA
:100D10007101F09372010895BE2EE2E8F0E0E093D5
:100D20007101F09372010895BE2EE8E7F0E0E093C0
:100D30007101F09372010895E02FE150F0E0089501
:100D4000F0E0EA0FFB1FE4910895EA2DA3E0B0E084
:100D5000F0E0EE0FFF1FEE0FFF1FAE0FBF1FED2DD8
:100D6000F0E0EE0FFF1FAE0FBF1F0E9401070895B6
:100D7000E1BBE2B3E86FE2BB0895E5B3E569E5BB2B
:100D8000E4B3EA76E4BB0895E0916A01A0916901B9
:100D9000EA170895E0916D01A0916C01AE170895D6
:100DA000E0916A01ED7F9E2E0895A394E4E0EA1598
:100DB0000895EA2DA1E0B0E00E9419070895E2E04D
:100DC000E3BFE0E3FFEFE2BFE0E0ECBF0895E8BB84
:100DD000EFEFE7BB08950024112490E1AA0FBB1F99
:100DE000001C111C0E1A1F0A18F40E0E1F1E01C043
:100DF000A1609A9599F7FD01D0010895ECDFFD01FE
:100E00000895119602D0FE2F1197E199FECFFF931E
:100E1000FFB7F894AEBBBFBBE09AEDB3FFBFFF9145
:100E2000089507D01196EF93EF2F03D0EF9111970C
:100E30000895E199FECF9FB7F894AEBBBFBBE09A8F
:100E40008DB3E81719F0EDBBE29AE19A9FBF0895C0
:100E50003A932A931A930A9308953B812A81198120
:040E60000881089568
:00000001FF
