:0400000024C0FECF4B
:10000400FDCFFCCFFBCFFACFF9CFF8CFF7CF37C472
:10001400F5CFF4CFF3CFF2CFF1CFF0CFEFCFEECFD8
:10002400EDCFECCFEBCFBFDFEFF77F00C0F9A4B08B
:10003400999282F88090FF0055555555550005005A
:10004400E0003C000000F894EE27ECBBF1E0FBBFBD
:10005400EBBFE5BFF8E1F1BDE1BD8DE0A2E0BB2758
:10006400ED938A95E9F780E092E0A0E6ED9301979D
:10007400E9F7E2E4F0E085919591009761F0A591AC
:10008400B59105901590BF01F00105900D9201976F
:10009400E1F7FB01F0CFEFE5EDBFE2E0EEBFC0EE2C
:1000A400D0E028C4C4D562D40E2FA2E0B0E09BD522
:1000B4001E2FA3E0B0E097D52E2F101711F42017B0
:1000C40009F001C01DC0101711F4201709F402C073
:1000D400202F16C0101711F0201709F002C0102F9E
:1000E4000FC0101711F0211709F002C0012F08C02A
:1000F400101711F0201709F403C001E011E021E00A
:10010400E3E0E01710F0013008F401E02FD4E01729
:1001140011F0E02F2FD4A2E0B0E030D419F0A2E027
:10012400B0E02FD4A3E0B0E029D419F0A3E0B0E00C
:1001340028D4A02E81D505C279D526D4EBBBE9B34A
:10014400E093EF00A091EE00EA1761F421D448F4A3
:10015400E091F000EF5FE093F0001AD410F0E0902B
:10016400EE0003C0E0E0E093F000E091EF00E093E4
:10017400EE0061D524960895BB2071F40DD431F4BA
:1001840032FC04C00DD411F433FE03C0689431F87A
:1001940002C0E89431F802C0E89431F80895E2FC12
:1001A4000DC002D450F4E091F500EF5FE093F50048
:1001B400FBD319F4E1E0E093F4000CC0F9D351F05F
:1001C400E091F500E150E093F500F2D319F4E0E09A
:1001D400E093F400E3FC0CC0EFD348F4E091F600A4
:1001E400EF5FE093F600E8D311F4689432F80BC0A3
:1001F400E7D349F0E091F600E150E093F600E0D354
:1002040011F4E89432F8E5FC0CC0DED348F4E09134
:10021400F800EF5FE093F800D7D311F4689433F853
:100224000BC0D6D349F0E091F800E150E093F80018
:10023400CFD311F4E89433F8E4FC0DC0CDD350F4DB
:10024400E091F700EF5FE093F700C6D319F4E1E023
:10025400E093F3000CC0C4D351F0E091F700E150F7
:10026400E093F700BDD319F4E0E0E093F3000895C0
:100274000A9300E0B9D3BB2011F400E065C0B7D302
:1002840009F062C0B7D339F4006CB7D319F4C0D302
:1002940041F0C3D359C0C4D339F4006E81D309F4F7
:1002A400D9C0C1D3C7D350C0C8D329F40466A5D3D9
:1002B40009F4C6D349C0C7D339F404676DD309F42C
:1002C400C9C0C4D3CAD340C0CBD329F4046795D3DF
:1002D40009F4C9D339C0CAD341F40C6632FEBAC09A
:1002E400B5D3E2E1BE2EB2D32FC0E2E1EB1559F44F
:1002F4000C6683D339F4BDD3E4E1F0E0E093F1007C
:10030400F093F20021C0B8D329F40C6676D309F433
:10031400B6D31AC0B7D339F400666FD319F4E9E041
:10032400BE2EB3D311C0E9E0EB1539F4006C65D3EC
:1003340019F4EAE0BE2E77D307C0EAE0EB1521F406
:1003440000685BD309F4BB24A7D309F03FC052D3A0
:1003540039F4006C52D319F45BD341F05ED336C048
:100364005FD339F4006E1CD309F474C05CD362D338
:100374002DC063D329F4046640D309F461D326C0A5
:1003840062D339F4046708D309F464C04CD365D349
:100394001DC066D331F4046730D311F464D343D35E
:1003A40015C064D331F4006628D311F462D36DD33D
:1003B4000DC062D329F4006C20D309F460D306C0C5
:1003C40061D321F4006819D309F4BB2468D309F07C
:1003D40041C010D339F4006C10D319F419D339F097
:1003E4001CD338C01DD359F4006EDAD299F1E0E57C
:1003F400F0E0E093F100F093F2001CD32BC01DD386
:1004040059F40066FAD239F41BD3E8E7F0E0E0933C
:10041400F100F093F2001EC016D331F40867EDD258
:1004240011F41BD332D316C01BD331F4086DE5D2BB
:1004340011F419D3F8D20EC019D331F40869DDD2FE
:1004440011F417D3F0D206C017D321F40068D5D223
:1004540009F4BB24DDD209F40F7DE02FE095E8BB5D
:10046400099108950A9303E0E0E0E01778F4E02F9F
:1004740019D3FF93EF931AD3AFD3AF91BF91EC93FA
:1004840015D397D3E983FA830150EECF088159C07D
:100494000A93689423F800E0053008F047C023FE6F
:1004A40007C009D3FFD2E081E03011F4043008F032
:1004B4001BC0E4E0E01BAE2FE981EA1750F4FBD245
:1004C400FDD2FF93EF93EAE3F0E0E491AF91BF91A3
:1004D40009C0F1D2F3D2FF93EF93E0E3F0E0E491AB
:1004E400AF91BF91EC9313C0E6D2E8D2FF93EF93A0
:1004F400E0E3F0E0FF93EF93DED2D4D2E081AF915A
:10050400BF91E0D2AF91BF91EC93E89423F8E981D5
:10051400E03051F0A981E3E0EA1BD0D2FF93EF93DE
:10052400D6D2AF91BF91EC930F5FB6CF08812296DC
:100534000895E981FA81FA93EA9394DFE881EA93D2
:10054400A7DF23960895C6D2FA93EA93E1E0EA93EB
:10055400F0DFE0E3F0E0FF93EF93ED2DEF5FAF9179
:10056400BF91B0D2E093E0000895EAE3F0E0E491B3
:10057400E093E400E4EEF0E0FF93EF93E081EF7D9D
:10058400AF91BF91EC93BB2049F0E4EEF0E0FF9310
:10059400EF93E081EF7BAF91BF9108C0E4EEF0E010
:1005A400FF93EF93E081E064AF91BF91EC93BB20A4
:1005B400A1F431FE09C0E4EEF0E0FF93EF93E08193
:1005C400EE7FAF91BF9107C0E4EEF0E0FF93EF93AD
:1005D40093D2AF91BF91EC9308C0E4EEF0E0FF93A7
:1005E400EF938AD2AF91BF91EC9389D241F4E4EEB8
:1005F400F0E0FF93EF936BD2AF91BF9108C0E4EEAC
:10060400F0E0FF93EF93E081E068AF91BF91EC934A
:10061400EED151F4E4EEF0E0FF93EF93E081EF7E4E
:10062400AF91BF91EC9323C037D251F4E4EEF0E0E4
:10063400FF93EF93E081EB7FAF91BF91EC9317C0F1
:100644002ED251F4E4EEF0E0FF93EF93E081E77FE4
:10065400AF91BF91EC930BC057D249F4E4EEF0E0B4
:10066400FF93EF93E081ED7FAF91BF91EC934FD275
:1006740059F430FE09C0E4EEF0E0FF93EF93E0811B
:10068400EE61AF91BF91EC930895E1B3E77042D26C
:1006940046D20000000000000000E3B3EA66E093E5
:1006A400E900A091E900AF3F11F040D2E1F0E894F5
:1006B40026F842D220F4A091EC00A03011F024FEE0
:1006C40001C004C0689425F89090EA0039D218F06B
:1006D400689425F83BD2E89424F8E4E1E093ED0033
:1006E4003AD23DD225C022D219F5E091EB00EF5F5A
:1006F400E093EB0021D2E0F02ED2E091EC00EF5F2A
:10070400E093EC001DD2A0F021D229D2689425F800
:10071400689424F826FE0CC0E091ED00E695E09381
:10072400ED00A091ED00E2E0EA1710F0E093ED0097
:10073400E091E900E093EA00F2D10895E0FC13C0EF
:10074400E0E0EB1511F431FE01C00DC0E1E0BE2E76
:100754004ED111F408D207C09FD111F404D203C0C2
:100764009ED109F400D2E1FC01C0BB2425FE63C084
:10077400EDEEE91541F4C3D111F4EAEA01C0E5E56F
:10078400A0E0B0E044D2CC2059F5F4D111F4E1E07A
:10079400CE2EEEE7E91561F482D111F0B5D139F42A
:1007A400DD2019F4E1E0DE2E01C0DD2401C0DD24EA
:1007B400E4D119F0EDE7E91539F4689426F88AD103
:1007C40031961DD231970BC0DBD119F0ECEFE9154E
:1007D40031F4689426F87ED1319711D231962BC02A
:1007E40096D149F5C7D109F4CC24EBEFE91551F4BE
:1007F400CAD10CF4CAD1CCD1A2E0B0E0CBD1A3E0F1
:10080400B0E0C8D1BAD151F4BED10CF4BED1C0D13C
:10081400A2E0B0E0BFD1A3E0B0E0BCD1B1D159F4C3
:10082400AA943DD10CF4B1D1B3D1A2E0B0E0B2D1DD
:10083400A3E0B0E0AFD1E89425F808958394E6E00E
:100844008E1608F08824E5E08E16B8F4EFEFE4BBCA
:10085400E5BBE1B3E86F5ED1E2B3EF93AAE2B0E0A7
:10086400E82DF0E0EA0FFB1FE491AF91EA23E2BB2D
:10087400E82D24D1E081E5BB01C007DF08950A9289
:100884001A92FA926A937A938A939A93AA93BA934E
:10089400EA93FA93EFB7EA9380D1689420F8CEDF15
:1008A4004394E6E04E1618F04424689421F85394D7
:1008B400ECE35E1688F05524689422F86394E2E031
:1008C4006E1618F06624E1E03E267394E5E07E1689
:1008D40018F07724E0E82E26E991EFBFF991E99129
:1008E400B991A9919991899179916991F990199006
:1008F40009901895EFEFEBBB47D057D1E0E0E5BB8B
:10090400E4BBE2BBE1BB49D1E0E0EFBDEEBDEDBD30
:10091400ECBDE7BDE6BDEBBDEABDE9BDE8BDE2BDAA
:10092400E5BDE4BDE3BDE5BFE4BFE1E0E9BFE0E868
:10093400E8B9E0E0E0BF7894EFEF37D1CC24B2DB44
:1009440036D120FE02C0E89420F821FE06C0E894C7
:1009540021F8F4DEF1DB23DC8BDC22FE05C0E89415
:1009640022F8A0DB09DC23D1ECCFFFCFA1E0B0E07B
:100974003AD10895A1E0B0E04AD1089534D1E01706
:100984000895E02F44D10895E0E0EABBEFEF089525
:10099400A091F000AA300895E091F400E0300895A9
:1009A400E091F300E0300895A091F500AA30089595
:1009B400E091F500E0300895A091F600AA30089582
:1009C400E091F600E0300895A091F800AA3008956F
:1009D400E091F800E0300895A091F700AA3008955E
:1009E400E091F700E0300895EFEFE7BB0895E1E010
:1009F400EA150895E1E0EB150895E091F100F09116
:100A0400F2003197E093F100F093F20030970895EB
:100A1400A0E0B0E0E8D0EA3A0895E2E0BE2E0895FE
:100A2400E2E0EB150895EEE1F0E0E093F100F093DD
:100A3400F2000895E3E0BE2E0895E3E0EB15089577
:100A4400E4E0BE2E0895E4E0EB150895E8E2F0E05A
:100A5400E093F100F093F2000895E5E0BE2E0895CE
:100A6400E5E0EB150895E6E0BE2E0895E6E0EB150B
:100A74000895E7E0BE2E0895E7E0EB150895E8E059
:100A8400BE2ED1CFE8E0EB150895E6E9F0E0E0935F
:100A9400F100F093F2000895E2E0EA150895E3E02E
:100AA400EA150895F0E0EB51FF4F0895A981BA814A
:100AB400EAE0F0E00895E02FE1500895F0E0E0521C
:100AC400FF4F0895F0E0EA0FFB1FE4910895E081E1
:100AD400EF770895EA2DA3E0B0E0F0E0EE0FFF1FFA
:100AE400EE0FFF1FAE0FBF1FED2DF0E0EE0FFF1F47
:100AF400AE0FBF1F74D00895E081E1600895A0E0B7
:100B0400B0E071D0E5350895E4E0EA150895E1E038
:100B1400EC150895E1BBE2B3E86FE2BB0895E5B3D9
:100B2400E569E5BBE4B3EA76E4BB0895E091EA0045
:100B3400A091E900EA170895A091EB00A53008956B
:100B4400E091ED00A091EC00AE170895E091EA0069
:100B5400ED7F9E2E0895E0E0E093EB000895E0E041
:100B6400E093EC000895E2E3F0E0E093F100F09309
:100B7400F2000895E9EFE9150895EFE7E9150895FE
:100B8400EEEFE9150895A3948ACFE1E0AE2E08951F
:100B9400EA2DF0CEEA2D3BD00895E2E0E3BFE0E396
:100BA400FFEFE2BFE0E0ECBF0895E8BB1DCFCBDC74
:100BB400DCCC0024112490E1AA0FBB1F001C111CE3
:100BC4000E1A1F0A18F40E0E1F1E01C0A1609A957A
:100BD40099F7FD01D0010895ECDFFD010895119608
:100BE40002D0FE2F1197E199FECFFF93FFB7F8943F
:100BF400AEBBBFBBE09AEDB3FFBFFF91089507D032
:100C04001196EF93EF2F03D0EF9111970895E19987
:100C1400FECF9FB7F894AEBBBFBBE09A8DB3E81785
:100C240019F0EDBBE29AE19A9FBF08953A932A9393
:100C34001A930A9308953B812A81198108810895A2
:00000001FF
