:100000000C943A000C9400000C9400000C94000036
:100010000C9400000C9400000C9400000C94000060
:100020000C9400000C945C050C9400000C940000EF
:100030000C9400000C9400000C9400000C94000040
:100040000C9400000C9400000C9400000C94000030
:100050000C940000BFDFEFF77F00C0F9A4B09992C5
:1000600082F88090FF0055555555550005006001F8
:1000700066000000F894EE27ECBBF1E0FBBFEBBF9D
:10008000E5BFF8E1F1BDE1BD8DE0A2E0BB27ED9356
:100090008A95E9F780E094E0A0E6ED930197E9F70F
:1000A000ECE6F0E085919591009761F0A591B5910E
:1000B00005901590BF01F00105900D920197E1F7B1
:1000C000FB01F0CFEFE5EDBFE4E0EEBFC0E6D1E02D
:1000D0000C9497050E94A406A1E0B0E00E9480065F
:1000E0000E2FA2E0B0E00E9480061E2FA3E0B0E039
:1000F0000E9480062E2F101711F4201709F001C05E
:100100001DC0101711F4201709F402C0202F16C0CB
:10011000101711F0201709F002C0102F0FC0101790
:1001200011F0211709F002C0012F08C0101711F0BB
:10013000201709F403C001E011E021E0E3E0E0173B
:1001400010F0013008F401E0A1E0B0E00E94800668
:10015000E01729F0E02FA1E0B0E00E949406A2E0B1
:10016000B0E00E948006E01729F0A2E0B0E0E02FA6
:100170000E949406A3E0B0E00E948006E01729F0F8
:10018000A3E0B0E0E02F0E949406A02E0E94A906F2
:10019000A5C20E94A3060E94DF05EBBBE9B3E09372
:1001A0006F01A0916E01EA1781F4A0917001AA304D
:1001B00058F4E0917001EF5FE0937001A09170013D
:1001C000AA3010F0E0906E0103C0E0E0E09370010F
:1001D000E0916F01E0936E010E94A80624960895B5
:1001E000BB2091F4E0917401E03041F432FC06C090
:1001F000E0917301E03011F433FE03C0689431F8EC
:1002000002C0E89431F802C0E89431F80895E2FCA5
:1002100011C0A0917501AA3060F4E0917501EF5F03
:10022000E0937501A0917501AA3019F4E1E0E09323
:1002300074010CC0E0917501E03041F0E150E093B1
:100240007501E03019F4E0E0E0937401E3FC10C0C4
:10025000A0917601AA3058F4E0917601EF5FE09327
:100260007601A0917601AA3011F4689432F80BC09F
:10027000E0917601E03039F0E150E0937601E03032
:1002800011F4E89432F8E5FC10C0A0917801AA308E
:1002900058F4E0917801EF5FE0937801A091780144
:1002A000AA3011F4689433F80BC0E0917801E03083
:1002B00039F0E150E0937801E03011F4E89433F83C
:1002C000E4FC11C0A0917701AA3060F4E0917701BD
:1002D000EF5FE0937701A0917701AA3019F4E1E094
:1002E000E09373010CC0E0917701E03041F0E15000
:1002F000E0937701E03019F4E0E0E09373010895B2
:100300000A9300E0EFEFE7BBBB2011F400E08FC0E1
:10031000E1E0EA1511F00C941702EB1569F4006C9A
:100320000E94E30541F4A0E0B0E00E948006EA3AB2
:1003300061F0E2E0BE2E7BC0E2E0EB1549F4006E16
:10034000E0917301E03009F433C10E94EE056FC003
:10035000E3E0EB1539F404660E94E30511F4E4E0F0
:10036000BE2E65C0E4E0EB1559F40467E09174011A
:10037000E03009F41DC1E8E2F0E00E94F70557C043
:10038000E5E0EB1539F404670E94E30511F4E6E0BB
:10039000BE2E4DC0E6E0EB1591F40C6632FE08C1AE
:1003A000E8E2F0E0E0937101F0937201E2E1BE2E29
:1003B000E8E2F0E0E0937101F093720138C0E2E10D
:1003C000EB1569F40C660E94E30541F4E7E0BE2EEC
:1003D000E4E1F0E0E0937101F093720128C0E7E0FE
:1003E000EB1539F40C660E94E30511F40E94FE053A
:1003F0001EC0E8E0EB1541F400660E94E30519F425
:10040000E9E00E94070613C0E9E0EB1541F4006C37
:100410000E94E30519F4EAE00E940F0608C0EAE032
:10042000EB1529F400680E94E30509F4BB24E2E01F
:10043000EA1511F00C947802E1E0EB1569F4006C18
:100440000E94E30541F4A0E0B0E00E948006EA3A91
:1004500061F0E2E0BE2E4CC0E2E0EB1549F4006E24
:10046000E0917301E03009F4A3C00E94EE0540C0A2
:10047000E3E0EB1539F404660E94E30511F4E4E0CF
:10048000BE2E36C0E4E0EB1559F40467E091740128
:10049000E03009F48DC0EEE1F0E00E94F70528C0DD
:1004A000E5E0EB1541F404670E94E30519F4E6E08A
:1004B0000E940F061DC0E6E0EB1541F400660E94A5
:1004C000E30519F4E7E00E94070612C0E7E0EB1528
:1004D00039F4006C0E94E30511F40E94FE0508C087
:1004E000E8E0EB1529F400680E94E30509F4BB2459
:1004F000E3E0EA1511F00C94D802E1E0EB1569F4A1
:10050000006C0E94E30541F4A0E0B0E00E94800688
:10051000EA3A61F0E2E0BE2E4BC0E2E0EB1579F47E
:10052000006EE0917301E03009F442C0E0E5F0E0D4
:10053000E0937101F0937201E3E0BE2E39C0E3E075
:10054000EB1569F400660E94E30541F4E4E0BE2E79
:10055000E8E7F0E0E0937101F093720129C0E4E074
:10056000EB1541F408670E94E30519F4E5E00E94E9
:1005700007061EC0E5E0EB1541F4086D0E94E30597
:1005800019F4E6E00E940F0613C0E6E0EB1541F413
:1005900008690E94E30519F4E7E00E940F0608C00D
:1005A000E7E0EB1529F400680E94E30509F4BB2499
:1005B000A0E0B0E00E948006EA3A09F40F7DE02F47
:1005C000E095E8BB099108950A9303E0E0E0E017A5
:1005D000C8F4E02FF0E0EB59FE4FFF93EF93A981B1
:1005E000BA81EAE0F0E00E947906AF91BF91EC9306
:1005F000A981BA81EAE0F0E00E946606E983FA8305
:100600000150E4CF08816AC00A93689423F800E09F
:10061000053010F00C94610323FE09C00E941706F8
:10062000EB59FE4FE081E03011F4043008F01FC0B8
:10063000E4E0E01BAE2FE981EA1760F40E941706A0
:10064000E05AFE4FFF93EF93E4E6F0E0E491AF91C0
:10065000BF910BC00E941706E05AFE4FFF93EF9325
:10066000EAE5F0E0E491AF91BF91EC9318C00E94ED
:100670001706E05AFE4FFF93EF93EAE5F0E0FF9391
:10068000EF930E941706EB59FE4FE081AF91BF91A7
:100690000E941B06AF91BF91EC93E89423F8E98187
:1006A000E03069F0A981E3E0EA1BF0E0E05AFE4F98
:1006B000FF93EF93E081EF77AF91BF91EC930F5FE2
:1006C000A7CF088122960895E981FA81FA93EA93E7
:1006D0000E94E402E881EA930E94040323960895AD
:1006E0000E942006FA93EA93E1E0EA930E946403F1
:1006F000EAE5F0E0FF93EF93ED2DEF5FAF91BF914F
:100700000E941B06E09360010895E4E6F0E0E491A6
:10071000E0936401E4E6F1E0FF93EF93E081EF7D85
:10072000AF91BF91EC93BB2049F0E4E6F1E0FF9379
:10073000EF93E081EF7BAF91BF9108C0E4E6F1E079
:10074000FF93EF93E081E064AF91BF91EC93BB2006
:10075000A9F431FE09C0E4E6F1E0FF93EF93E081F4
:10076000EE7FAF91BF9108C0E4E6F1E0FF93EF9315
:10077000E081E160AF91BF91EC9309C0E4E6F1E064
:10078000FF93EF93E081E160AF91BF91EC93A0E024
:10079000B0E00E948006E53549F4E4E6F1E0FF931D
:1007A000EF93E081EF77AF91BF9108C0E4E6F1E00D
:1007B000FF93EF93E081E068AF91BF91EC93E1E0AC
:1007C000EA1551F4E4E6F1E0FF93EF93E081EF7E68
:1007D000AF91BF91EC9326C0E2E0EA1551F4E4E654
:1007E000F1E0FF93EF93E081EB7FAF91BF91EC934A
:1007F00019C0E3E0EA1551F4E4E6F1E0FF93EF936A
:10080000E081E77FAF91BF91EC930CC0E4E0EA1583
:1008100049F4E4E6F1E0FF93EF93E081ED7FAF91DF
:10082000BF91EC93E1E0EC1559F430FE09C0E4E629
:10083000F1E0FF93EF93E081EE61AF91BF91EC9314
:100840000895E1B3E7700E9433060E943806000065
:10085000000000000000E3B3EA66E0936901A091A4
:100860006901AF3F11F00BD209F1E89426F8A0918D
:100870006B01A53020F4A0916C01A03011F024FE92
:1008800001C004C0689425F890906A01FED118F068
:10089000689425F800D2E89424F8E4E1E0936D012F
:1008A000E0E0E0936B01E0936C012BC0E8D149F5E7
:1008B000E0916B01EF5FE0936B01A0916B01A530BC
:1008C00000F1E0E0E0936B01E0916C01EF5FE093F9
:1008D0006C01DBD1B0F0DFD1E0E0E0936C01689413
:1008E00025F8689424F826FE0CC0E0916D01E69589
:1008F000E0936D01A0916D01E2E0EA1710F0E09342
:100900006D01E0916901E0936A01B2D10895E0FCC4
:1009100024C0E0E0EB1511F431FE01C01EC0E1E09F
:10092000BE2EEA1539F4E2E3F0E0E0937101F093B2
:10093000720113C0E2E0EA1539F4E2E3F0E0E0937B
:100940007101F093720109C0E3E0EA1531F4E2E3CA
:10095000F0E0E0937101F0937201E1FC01C0BB246F
:1009600025FE83C0EDEEE91569F4A0E0B0E00E9439
:100970008006E53511F4EAEA01C0E5E5A0E0B0E063
:100980000E949406CC2091F5E9EFE91511F4E1E01D
:10099000CE2EEEE7E91571F4E3E0EA1519F0E4E094
:1009A000EA1539F4DD2019F4E1E0DE2E01C0DD2482
:1009B00001C0DD24EFE7E91519F0EDE7E91541F491
:1009C000689426F83DD131960E948C0631970DC06F
:1009D000EEEFE91519F0ECEFE91539F4689426F813
:1009E0002FD131970E948C0631963FC0E1E0EC1583
:1009F000E1F5E9EFE91509F4CC24EBEFE91579F419
:100A00004FD114F4E1E0AE2E4FD1A2E0B0E0EA2DD8
:100A10000E949406A3E0B0E0EA2D0E949406EFE75E
:100A2000E91579F43DD114F4E1E0AE2E3DD1A2E018
:100A3000B0E0EA2D0E949406A3E0B0E0EA2D0E9407
:100A40009406EEEFE91589F4AA94E3E0EA1514F4AC
:100A5000E1E0AE2E29D1A2E0B0E0EA2D0E9494069A
:100A6000A3E0B0E0EA2D0E949406E89425F80895EA
:100A70008394E6E08E1608F08824E5E08E16C8F42C
:100A8000EFEFE4BBE5BBE1B3E86FEDD0E2B3EF938A
:100A9000A4E5B0E0E82DF0E0EA0FFB1FE491AF9190
:100AA000EA23E2BBE82DF0E0E05AFE4FE081E5BB2F
:100AB00002C00E94210408950A921A92FA926A933F
:100AC0007A938A939A93AA93BA93EA93FA93EFB795
:100AD000EA93F0D0689420F8CBDF4394E6E04E161A
:100AE00018F04424689421F85394ECE35E1688F0DF
:100AF0005524689422F86394E2E06E1618F0662498
:100B0000E1E03E267394E5E07E1618F07724E0E8F5
:100B10002E26E991EFBFF991E991B991A9919991A7
:100B2000899179916991F990199009901895EFEF51
:100B3000EBBB45D0C7D0E0E0E5BBE4BBE2BBE1BB2B
:100B4000B9D0E0E0EFBDEEBDEDBDECBDE7BDE6BD6B
:100B5000EBBDEABDE9BDE8BDE2BDE5BDE4BDE3BD79
:100B6000E5BFE4BFE1E0E9BFE0E8E8B9E0E0E0BF0D
:100B70007894EFEFA7D0CC240E946A000E94700303
:100B80000E94850320FE02C0E89420F821FE09C0DF
:100B9000E89421F8BCDE0E94C9000E9407010E946F
:100BA000800122FE0AC0E89422F80E946A000E9496
:100BB000F0000E9470030E948503E4CFFFCFE0E0C5
:100BC000EABBEFEF0895E0917101F0917201319766
:100BD000E0937101F093720130970895EEE1F0E037
:100BE000E0937101F0937201E3E0BE2E0895E0936B
:100BF0007101F0937201E5E0BE2E0895E8E0BE2E8B
:100C0000EEE1F0E0E0937101F09372010895BE2EE1
:100C1000E6E9F0E0E0937101F09372010895BE2ED1
:100C2000EEE1F0E0E0937101F09372010895E02F9E
:100C3000E150F0E00895F0E0EA0FFB1FE491089521
:100C4000EA2DA3E0B0E0F0E0EE0FFF1FEE0FFF1F74
:100C5000AE0FBF1FED2DF0E0EE0FFF1FAE0FBF1F59
:100C60000E947C060895E1BBE2B3E86FE2BB089501
:100C7000E5B3E569E5BBE4B3EA76E4BB0895E0914A
:100C80006A01A0916901EA170895E0916D01A091B0
:100C90006C01AE170895E0916A01ED7F9E2E0895D4
:100CA000A394E3E0EA150895EA2DA1E0B0E00E94E4
:100CB00094060895E2E0E3BFE0E3FFEFE2BFE0E087
:100CC000ECBF0895E8BBEFEFE7BB089500241124C3
:100CD00090E1AA0FBB1F001C111C0E1A1F0A18F46A
:100CE0000E0E1F1E01C0A1609A9599F7FD01D0015B
:100CF0000895ECDFFD010895119602D0FE2F1197A3
:100D0000E199FECFFF93FFB7F894AEBBBFBBE09A6B
:100D1000EDB3FFBFFF91089507D01196EF93EF2F2A
:100D200003D0EF9111970895E199FECF9FB7F89402
:100D3000AEBBBFBBE09A8DB3E81719F0EDBBE29AEA
:100D4000E19A9FBF08953A932A931A930A930895BC
:0A0D50003B812A8119810881089572
:00000001FF
